:020000040800F2
:10000000F81100209D010008FF1800084F18000893
:10001000FD1800083F0300088D38000800000000AC
:100020000000000000000000000000007D1A000831
:1000300041030008000000007B1A0008891A00082C
:10004000B7010008B7010008B7010008B7010008B0
:10005000B7010008B7010008B7010008B7010008A0
:10006000B7010008B7010008B7010008B701000890
:10007000B7010008B7010008B7010008B701000880
:10008000B7010008B7010008B7010008B701000870
:10009000B7010008B7010008B7010008B701000860
:1000A000B7010008B7010008B7010008B701000850
:1000B000B7010008B7010008B7010008B701000840
:1000C000B7010008B7010008B7010008B701000830
:1000D000B7010008B7010008B7010008B701000820
:1000E000B7010008B7010008B7010008B701000810
:1000F000B7010008B7010008B7010008B701000800
:10010000B7010008B7010008B7010008B7010008EF
:10011000B7010008B7010008B7010008B7010008DF
:10012000B7010008B7010008B7010008B7010008CF
:10013000B7010008B7010008B7010008B7010008BF
:10014000B7010008B7010008B7010008011900084D
:10015000B7010008B7010008B7010008B70100089F
:10016000B7010008B7010008B7010008B70100088F
:10017000B7010008B7010008B7010008000000003F
:10018000B7010008B7010008DFF80CD000F09AF8BA
:1001900000480047813D0008F811002006488047CC
:1001A00006480047FEE7FEE7FEE7FEE7FEE7FEE75C
:1001B000FEE7FEE7FEE7FEE7211B000889010008D5
:1001C0002DE9F05F0546002092469B46884606468C
:1001D000814640241BE0284641464746224600F01F
:1001E00061F853465A46C01A914110D31146184639
:1001F000224600F048F82D1A67EB01084F462246C8
:100200000120002100F03FF817EB00094E41201EAD
:10021000A4F10104DFDC484631462A464346BDE8E6
:10022000F09F40EA01039B0703D009E008C9121FB1
:1002300008C0042AFAD203E011F8013B00F8013BA0
:10024000521EF9D27047D2B201E000F8012B491ECC
:10025000FBD270470022F6E710B513460A46044663
:100260001946FFF7F0FF204610BD10B5484304467D
:1002700003F0E6FD002805D00021002C02D0641E0A
:100280000155FAE710BD202A04DB203A00FA02F1FA
:10029000002070479140C2F1200320FA03F3194374
:1002A00090407047202A04DB203A21FA02F0002116
:1002B000704721FA02F3D040C2F120029140084376
:1002C00019467047064C074D06E0E06840F0010310
:1002D00094E8070098471034AC42F6D3FFF758FF74
:1002E000004200082042000870B58C1810F8015B2D
:1002F00015F0070301D110F8013B2A1106D110F8BF
:10030000012B03E010F8016B01F8016B5B1EF9D1C2
:100310002B0705D40023521E0DD401F8013BFAE748
:1003200010F8013BCB1A921C03E013F8015B01F8B3
:10033000015B521EF9D5A142D8D3002070BDFEE763
:10034000704772B6FEE7000070B5044600F006F98B
:100350000546601C02D004480078044400F0FEF812
:10036000401BA042FAD370BD0C0000202DE9F84FCD
:10037000DFF8BCA10022012503264FF00F090AF186
:10038000040BAAF1040E00BF0B6805FA02F4234027
:10039000A34270D10F7907F00307012F01D0022F7C
:1003A00016D187684FEA420806FA08FC27EA0C07CC
:1003B000D1F80CC00CFA08FC4CEA070CC0F808C0D5
:1003C0004768A7430C79C4F3001494403C4344604D
:1003D0000C79E443A4070AD0C4684FEA420C06FA39
:1003E0000CF7BC438F6807FA0CF72743C7600C79FA
:1003F00004F00304022C12D1D40800EB840CDCF8C6
:1004000020405707FF0E09FA07F824EA0804D1F83C
:10041000108008FA07F848EA0408CCF8208004683D
:100420004FEA420C06FA0CF7BC430F7907F00307BA
:1004300007FA0CF7274307604C6814F4403F70D06C
:100440003C4C276847F480472760246822F0030764
:1004500004F480440094384C07EB040CDCF80848A2
:1004600097074FEA177809FA08F7BC43334FB842A9
:1004700002D1002724E054E0314FB84201D10127D6
:100480001EE0304FB84201D1022719E02E4FB8428A
:1004900001D1032714E02D4FB84201D104270FE00A
:1004A0002B4FB84201D105270AE02A4FB84201D1AB
:1004B000062705E0284FB84201D1072700E00827AA
:1004C00007FA08F72743CCF80878DAF800405746CF
:1004D000D1F804C09C435FEACC2C00D51C433C609F
:1004E000DBF800405F46D1F804C09C435FEA8C2CE7
:1004F00000D51C433C60DEF800407746D1F804C0CC
:100500009C435FEA8C3C00D51C433C60084F083F8D
:100510003C68D1F804C09C435FEACC3C00D51C4346
:100520003C60521C102AFFF42FAFBDE8F88F00008A
:10053000083C0140443802400030014000000240C5
:100540000004024000080240000C0240001002407B
:100550000014024000180240001C0240014880685C
:10056000704700000C0000200248816802781144A6
:10057000816070470C0000200B4810B5016841F401
:1005800000710160016841F480610160016841F41B
:1005900080710160032000F06FF80F2000F006F872
:1005A00000F024F8002010BD003C024070B50D4D55
:1005B00004464FF47A712878B1FBF0F00A490968D3
:1005C000B1FBF0F001F06EF848B9102C07D2002210
:1005D0002146501E00F030F800206C6070BD0120F4
:1005E00070BD00000C000020180000200A4808B56B
:1005F000016841F480410160006800F4804000908F
:100600000548001F016841F080510160006800F05A
:100610008050009008BD000044380240002809DBEB
:1006200000F01F02012191404009800000F1E0200C
:10063000C0F8001170470000F0B40E4B1B680C4668
:10064000C3F30223C3F10705042D00D90425191DA6
:10065000072901D2002300E0DB1E012606FA05F17E
:10066000491E214099409E40761E16403143F0BC01
:1006700003F01EB90CED00E0064900F0070208681F
:100680004FF6FF03184040EA0220034A1043086077
:10069000704700000CED00E00000FA0570470068AC
:1006A000416200207047F0B50368586A39B19C6A0E
:1006B0004FF4827600EB144400204D1E0AE040EA1D
:1006C000024098620FE006EB8007DF59401C04EB04
:1006D0001744C0B2A842F6D344EA02404FF48072F5
:1006E00002EB810158500020F0BDD0F8080501F060
:1006F00009BD01EBC10200EB8202D0F80805D26C03
:1007000001F074BC01EBC10200EB8202D0F80805D5
:10071000D2F88C2201F0BFBCD0F8080501F0F4BC7F
:100720000A0601F00F0101EBC10100EB810101D5C7
:100730003C3101E001F51F71006802F0EFBE70B5B9
:1007400004460B0601F00F0000EBC00104EB810131
:100750004FF001024FF0000503D581F83D203C31F8
:1007600003E081F87D5201F51F71087094F8BC0414
:10077000012808D084F8BC24206802F089FB84F8A2
:10078000BC54002070BD022070BD70B5044601F05D
:100790000F006268904201D9012070BD0B0601F084
:1007A0000F0101EBC10104EB81014FF001024FF099
:1007B000000503D581F83D203C3103E081F87D52EE
:1007C00001F51F718D70087094F8BC04012808D0E1
:1007D00084F8BC24206802F057FD84F8BC54002043
:1007E00070BD022070BD01F00F0101EBC10100EBF3
:1007F0008100D0F89C0270472DE9F04104460F06B5
:1008000001F00F0000EBC00104EB81014FF0010685
:100810004FF0000503D581F83D603C3103E081F8DD
:100820007D5201F51F710870CA600B714A7802B1E0
:100830000881022B00D14D7194F8BC04012809D025
:1008400084F8BC64206802F07BFA284684F8BC5423
:10085000BDE8F0810220FBE770B50C4601F00F0502
:1008600005EBC50100EB8101C1F89432C1F88C227F
:100870000023C1F89C3281F87D3281F87C520369F3
:1008800001F51F71012B00D14A612207027C00682B
:1008900003D002F051FD002070BD02F03BFCFAE7EE
:1008A00070B504460D4601F00F006168884201D919
:1008B000012070BD29064FF000064FF0010207D558
:1008C00000EBC00104EB810181F83D203C3107E0E1
:1008D00005EBC50104EB810181F87D6201F51F7113
:1008E0008A70087094F8BC04012807D084F8BC24EE
:1008F000206802F0F5FC280702D007E0022070BD56
:10090000217C04F2C442206802F092FC84F8BC64AA
:10091000002070BD70B50C4601F00F0505EBC50158
:1009200000EB81014B65CA640023CB65012381F88C
:100930003D3001F83C5F0369012B00D14A61220779
:10094000027C006803D002F0F7FC002070BD02F0CA
:10095000E1FBFAE72DE9FC5F05680446284602F052
:100960007EFE00287DD1206802F0A5FE002878D008
:10097000D5F80808C0F30D20C4F8FC04206802F084
:100980009AFE800704D52068416901F002014161A7
:10099000206802F090FEC10604F2C440009034D5F5
:1009A0002068816921F0100181612F6A07F00F0032
:1009B00000EBC00004EB8006C7F3434006F51F764A
:1009C000022802D0062811D01AE047F6F07007423C
:1009D00016D0C7F30A1217462846316902F06FFE97
:1009E000306938443061306A384408E008222846CB
:1009F000009902F064FE306AC7F30A1108443062BD
:100A00002068816941F010018161206802F053FE85
:100A100000034FF0080B4FF0000A4FF001097CD59E
:100A20000026206802F026FE074674E0F80770D022
:100A3000F1B2206802F037FE8046C00707D005EB10
:100A40004611C1F8089B3146204600F05FFF5FEA7F
:100A5000087024D505EB4611C1F808BB2068016C6D
:100A600000E025E200EB46100191D0F8082BFC4B8A
:100A7000994205D9110403D54FF40041C0F8081B71
:100A8000204600F005FBF6490198884207D9206905
:100A9000012804D120680121009A02F0C9FB5FEA15
:100AA000C86004D505EB46111020C1F8080B5FEAB9
:100AB00088701DD56869000605D5D5F8040840F48E
:100AC0008061C5F8041806EBC60004EB800090F8BE
:100AD0007F1200F51F70012905D180F803A0F1B243
:100AE000204600F0EBF905EB46110220C1F8080B97
:100AF0005FEA886004D505EB46102021C0F8081B8A
:100B00005FEA884005D505EB46104FF40051C0F868
:100B1000081B7F08761C002F88D1206802F0CBFDCF
:100B200040036FD5206802F09EFD0746002667E06F
:100B3000F80763D0F1B2206802F0A3FD8046C00739
:100B400023D006F00F0209FA02F0D5F834288243C8
:100B5000C5F8342805EB4610C0F80899206901282B
:100B60000FD106EBC60004EB8000D0E9122111443E
:100B7000C16436B9606D20B920680121009A02F085
:100B800057FBF1B22046FFF7B4FD5FEA087003D5CA
:100B900005EB4611C1F808B95FEAC86004D505EB5A
:100BA00046111020C1F808095FEA486004D505EB3A
:100BB00046104021C0F808195FEA887017D5314601
:100BC000284602F01FFD06EBC60004EB800090F8FB
:100BD0003F103C30012905D180F803A0F1B2204636
:100BE00000F068F905EB46110220C1F808095FEA38
:100BF000086003D53146204600F0EEFE7F08761CE3
:100C0000002F95D1206802F056FD002811DAD5F8A2
:100C1000040820F00101C5F8041894F8F404012830
:100C20002BD0204600F018FA2068416901F00041FD
:100C30004161206802F03FFD00050BD5D5F808089A
:100C4000C00702D0204600F06FFA2068416901F425
:100C500000614161206802F02EFDC00466D5D5F820
:100C6000040820F00100C5F804081021206802F0F3
:100C7000C9FC00214FF67F321FE084F8F4A4002164
:100C80002046FFF70BFDCFE705EB4110C0F8082920
:100C9000D0F8003923F40013C0F80039C0F8082B4D
:100CA000D0F8003B23F40013C0F8003BD0F8003B21
:100CB00043F00063C0F8003B491C60688842E3D8F9
:100CC000D5F81C0840F00111C5F81C18206B00284D
:100CD00028460DD0D0F8840840F00B01C5F88418E0
:100CE000D5F8440840F00B012846C5F844180DE03B
:100CF000D0F8140842F22B010843C5F81408D5F8BF
:100D0000100840F00B012846C5F81018D0F800086C
:100D100020F4FE61C5F80018217C2068009A02F0DA
:100D200087FA2068416901F480514161206802F02E
:100D3000C2FC800415D5206802F042F8206802F059
:100D400081FCE06000F0A2FA0146227B206802F0FC
:100D500015FD204600F06AF92068416901F4005150
:100D60004161206802F0A7FC000707D5204600F08B
:100D700077F92068416901F008014161206802F0BB
:100D80009AFC000616D5A86920F08000A86101260B
:100D90000DE000BF06EBC60004EB800090F87F0278
:100DA000012803D1F1B22046FFF7BAFC761C606837
:100DB000B042EFD8206802F07EFCC00221D50126A7
:100DC0004F4616E005EB4610D0F8001906EBC600BA
:100DD00004EB800090F84020012A09D1002907DAAD
:100DE00080F83F70F0B240F080012046FFF798FC99
:100DF000761C6068B042E5D82068416901F4801132
:100E00004161206802F057FC800234D501204B4636
:100E100029E000BF05EB4011D1F8001B00EBC00238
:100E200004EB820696F88022012A1BD1002919DAE8
:100E300094F8FC2401F4803102F00102914211D1B6
:100E400086F87F32A96941F08002AA6169690906C2
:100E500008D4D5F8040840F40070C5F8040805E08B
:100E60000A30544F401C61688142D3D820684169E0
:100E700001F400114161206802F01DFC400007D51B
:100E80002046FFF732FC2068416901F08041416152
:100E9000206802F010FC40070AD520684568680702
:100EA00002D52046FFF738FC20684168294341609D
:100EB000BDE8FC9FD0F8080501F076B9D0F8080528
:100EC00001F074B92DE9F0418AB0040005D094F81E
:100ED000BD042668002520B108E001200AB0BDE865
:100EE000F08184F8BC54204600F05EF8032084F8BA
:100EF000BD04F06BC00500D42561206802F004F940
:100F000004F11001282288466846FFF78AF994E820
:100F10000F0001F063FF0226C8BB0021206802F029
:100F2000EDFB002001270EE000EBC00104EB810186
:100F300081F83D7001F83C0F08810D71CD600D61A5
:100F4000401CC0B28D6161688142EDD8002011E083
:100F500000EBC00104EB810181F87D5281F87C0235
:100F600081F88052C1F88852C1F88C52401CC0B23E
:100F7000C1F8945261688142EAD828224146684605
:100F8000FFF74FF994E80F0002F004F810B184F86D
:100F9000BD64A2E784F8385084F8BD74206801F07D
:100FA000EBFF00209AE7000010B586B0044614213C
:100FB0006846FFF74FF92068B0F1A04F2FD11948CC
:100FC0000021026842F001020260006800F00100A6
:100FD00005904FF4C05000900220CDE9010103209C
:100FE00003900A20049069460F48FFF7BFF90D48A7
:100FF000001D016841F0800101600A481430016859
:1010000041F4804101600068002200F480400590B6
:1010100011464320FFF710FB4320FFF7FFFA06B00D
:1010200010BD0000303802400000024070B5044698
:10103000C068012570B1022801D0FFF782F9294666
:10104000D4F8080501F008F9D4F80805BDE87040A7
:1010500001F0C3B80025F2E7D0F8080501F0E6B8C2
:10106000D0F8080501F0ECB810B5044690F8BC04BF
:1010700001280BD0012084F8BC0484F838102068C3
:1010800002F06AFB002084F8BC0410BD022010BDF1
:101090002DE9F04100F2C441D0F80845054604F2BC
:1010A000AA200F46064601F05FFC94F8AA12002021
:1010B000C90603D13146204601F08AF994F8AA12F4
:1010C00001F01F01012903D13146204601F0C4F986
:1010D000002806D13946D5F80805BDE8F04101F0F1
:1010E000C7B8BDE8F08110B50446006894F8BC1498
:1010F000012906D0012184F8BC14A16A012902D07B
:1011000008E0022010BDA169012903D0816B41F4E0
:1011100080318163206802F050FA206801F01EFFE0
:10112000002084F8BC0410BD10B50446D0F80805B2
:1011300001F0E0F82068D0F8001E41F00101C0F88D
:10114000001E206A002804D00248016841F0060110
:10115000016010BD10ED00E02DE9F0470E460500DE
:1011600065D0DFF81481D8F80000F7B200F007006E
:10117000B04207D288F80070D8F8000000F00700ED
:10118000B04254D128683D4C810712D5400703D5A1
:10119000206840F4E05020602878000703D52068DC
:1011A00040F4604020602068A96820F0F000084307
:1011B00020602878C0072DD0304968680839012898
:1011C00012D0022813D0032811D0096889070029FA
:1011D0002DDA216821F0030101432160FFF7BEF9F8
:1011E000814641F2883A0EE009688903EFE7096811
:1011F0008901ECE7FFF7B2F9A0EB0901514502D9EB
:101200000320BDE8F0872068696800F00C00B0EBAF
:10121000810FEFD1D8F80010404601F00701B1422C
:1012200007D90770006800F00700B04201D0012024
:10123000E7E72878400705D52068E96820F4E05002
:10124000084320602878000706D52068296920F423
:10125000604040EAC100206000F03EF82168084A82
:10126000C1F30311515CC840064908600648006894
:10127000FFF79CF90020C4E7003C02400838024018
:101280004D400008180000201000002001480068B0
:1012900070470000180000200448054900680968EC
:1012A000044AC1F38221515CC840704718000020F5
:1012B000083802405D400008044805490068096894
:1012C000044AC1F34231515CC84070471800002005
:1012D000083802405D400008154810B5006810F05D
:1012E0000C02144813D04110042A0FD0082A0ED142
:1012F0000F4C241F2268236802F03F025B0207D5CF
:101300002068C0F38810A0FB010106E0084610BD6C
:101310002168C1F38811A1FB00010023FEF750FFF3
:101320002168C1F30141491C4900B0FBF1F010BD37
:10133000083802400024F4002DE9F84F04006ED074
:101340002078DFF84C93C007A9F104054AD009F1D1
:1013500004000168C1F38101012908D00068C0F3CD
:10136000810002280AD1D9F80000400206D5286879
:10137000800337D560680028E1D033E06068B0F5BD
:10138000803F10D0B0F5A02F286810D020F4803016
:101390002860286820F4802028606068A8B1FFF7E2
:1013A000DDF806460DE0286840F48030F4E740F4AC
:1013B00080202860F7E700BFFFF7D0F8801B642883
:1013C00073D828688003F7D50CE0FFF7C7F8064606
:1013D00005E000BFFFF7C2F8801B6428F0D828683A
:1013E0008003F7D42078DFF8AC8280074FF0000A42
:1013F0003ED5A748001D016811F00C0F08D0006809
:10140000C0F3810002280BD1D9F80000400207D4B4
:101410002868800716D5E068012800D112E033E182
:10142000E068B8B10120C8F80000FFF797F8064659
:1014300005E000BFFFF792F8801B0228C0D828689B
:101440008007F7D52868216920F0F80040EAC1003C
:1014500028600DE0C8F800A0FFF780F8064604E019
:10146000FFF77CF8801B02281FD828688007F7D474
:101470002078000722D5864F87486169703771B19F
:1014800001210160FFF76AF8064604E0FFF766F8FD
:10149000801B022809D838688007F7D50EE0C0F80D
:1014A00000A0FFF75BF8064605E082E0FFF756F87C
:1014B000801B02287DD838688007F7D42078400741
:1014C00068D5DFF8CCB100270BF13C0BDBF800004E
:1014D000C0000BD4DBF8001041F08051CBF80010B5
:1014E000DBF80000012700F0805000906B4E306860
:1014F000C00510D4306840F480703060FFF72EF8DB
:10150000009005E0FFF72AF80099401A022850D809
:101510003068C005F6D55E4EA0686C3601280FD045
:101520000528306810D020F001003060306820F0CD
:1015300004003060A068B8B1FFF710F800900FE029
:10154000306840F00100F4E740F004003060F7E755
:10155000FFF704F80099411A41F28830814266D8B9
:1015600030688007F4D50EE0FEF7F8FF009007E042
:10157000FEF7F4FF0099411A41F28830814256D8B3
:1015800030688007F4D42FB1DBF8001021F08051CF
:10159000CBF80010A069C8B33D49091D0968C1F323
:1015A000810102294AD00228504607D0C8F86000BD
:1015B00000E03CE0FEF7D2FF04463BE04746C8F8B7
:1015C0006000FEF7CBFF064605E000BFFEF7C6FF52
:1015D000801B02282BD828688001F7D4D4E90701A2
:1015E0000843A16A2E4A490802EB0141626A41EAB6
:1015F0008211084394F82C1040EA0161C9F80010E8
:1016000001203866FEF7AAFF044606E03EE000BF70
:10161000FEF7A4FF001B022809D828688001F7D52F
:1016200034E000BFFEF79AFF001B022802D9032016
:10163000BDE8F88F28688001F4D427E00128F7D0AE
:10164000D9F80000E26900F4800191421CD1226ABD
:1016500000F03F01914217D147F6C071626A014024
:10166000B1EB821F10D1A26A4FF0FF3300F440317A
:1016700003EB5202B1EB024F06D194F82C1000F0AC
:101680007060B0EB016F01D00120D1E70020CFE7FF
:101690000438024000004742800E4742007000407C
:1016A0000000FFFF10B5401EB0F1807F01D3012084
:1016B00010BD4FF0E02460610F21601702F0F8F8D0
:1016C0000020A06107202061002010BD70B504003B
:1016D00004D094F83D00002510B106E0012070BD53
:1016E00084F83C50204600F023F8242084F83D0084
:1016F0002068C16821F40051C160204600F018FA4A
:101700002068016921F4904101612068416921F05C
:101710002A0141612068C16841F40051C16025641B
:10172000202084F83D0084F83E00002070BD0000B9
:1017300010B586B0044614216846FEF78BFD1449A7
:101740002068884221D113480021026842F010022B
:101750000260006800F0100005900E48143802681E
:1017600042F001020260006800F0010005904FF4B1
:10177000C06000900220CDE9010103200390072002
:10178000049069460448FEF7F1FD06B010BD000064
:101790000010014044380240000002402DE9F843A7
:1017A000044690F83D001F4616460D4620284CD1B1
:1017B000C5B1BEB194F83C00012846D0012084F8A0
:1017C0003C004FF00008C4F84080212084F83D0020
:1017D000FEF7C4FEA6848146E684A068B0F5805F6B
:1017E00003D004E00120BDE8F883206928B12E462B
:1017F0005FF0000584F83C800EE00026FAE78021C7
:10180000204600F01BFAA0B9AEB116F8010B216812
:101810004860E08C401EE084E08C4B464FF00002B4
:1018200000970028EBD14FF04001204600F006FA67
:1018300030B10320D7E735F8020BC0F30800E6E724
:10184000202084F83D000020CDE70220CBE7FEE712
:10185000F0B500230A24302537261F4611E000BFCB
:10186000B4EB107F02D905EB107C01E006EB107C95
:1018700001F813C001EB430C00015B1C8CF80170F4
:10188000DBB29342ECD3F0BD0D4808B5016841F0DE
:1018900004010160016801F004010091016841F058
:1018A00080010160016801F080010091016841F050
:1018B00001010160006800F00100009008BD000017
:1018C000303802400C4810B50A4901604FF4E1314C
:1018D0004160002181600C22C160C0E90412816175
:1018E000C161FFF7F3FE002803D0BDE81040FEF70A
:1018F00028BD10BD00100140A4040020FEE7FEE753
:101900000148FFF727B80000E80600202DE9F04164
:1019100003680D4604461E6C03EB4511D1F8080B15
:10192000D4F810E04FF400474FF0200C04F2C4420A
:10193000BEF1010F09D0DFF898E0764539D10204F5
:1019400032D500BFC1F8087B3FE0224B5FEA007E42
:1019500004D59E4239D90004F4D436E05FEA806EA3
:1019600002D5C1F808CB30E010F0280F2DD19E42EF
:1019700001D90004E6D405EBC50004EB8000D1F8E2
:10198000101BD0F89832C1F31201591AC0F89C12FA
:1019900000F51F70ADB983691BB102691144016183
:1019A0000FE0012120680AE080060AD5C1F808CBC3
:1019B00007E035B9D4F8940218B90021184601F0AF
:1019C00037FCE9B22046FEF79DFE0020BDE8F0811D
:1019D0000A31544F0A30544F2DE9F84F0E4601EBAF
:1019E000C60100EB810481460568616DE06D3C3401
:1019F000884202D90120BDE8F88F081AE1688142C7
:101A000000D20846C01C870805EB46181BE000BF43
:101A1000A0EB010AE068504500D282460AF10300BB
:101A2000870899F8100000901FFA8AF3F2B228464E
:101A3000216901F017FF216901EB0A002061216A89
:101A400001EB0A002062D8F8180980B2B84205D329
:101A5000216AA069814201D20028D9D1216AA069F6
:101A6000884208D806F00F0101208840D5F83418C4
:101A70008143C5F834180020BDE7704770470178EE
:101A8000407841EA00207047FEF76EBD30B593B054
:101A900030216846FEF7DEFB14210CA8FEF7DAFBC6
:101AA0001D480025016841F080510160006800F088
:101AB000805011901948016841F48041016000682C
:101AC000022400F480401190012000900004019055
:101AD0008001CDE9064004200890A820CDE9090442
:101AE00007200B906846FFF727FC08B172B6FEE7A7
:101AF0000CA90F2081E831004FF4A0500F904FF453
:101B00008050109005210CA8FFF726FB002801D07B
:101B100072B6FEE713B030BD40380240007000409E
:101B20000248016841F470010160704788ED00E0EF
:101B300070B5044600680169E26821F44051114320
:101B400001612169A068E2690843616911430843A2
:101B50002168CA6849F20C639A430243CA6020684C
:101B60004169A26921F44071114341613149206802
:101B7000884202D03049884202D1FFF79DFB01E044
:101B8000FFF78AFBE2690023192164253226B2F5AA
:101B9000004F626828D0A0FB0101930F9200FEF76E
:101BA0000FFB0146B0FBF5F06FF01802504301EB5C
:101BB000800006EB0010B0FBF5F000F0F002B1FB86
:101BC000F5F002EB0012B1FBF5F06FF0180358438B
:101BD00001EB800006EB0010B0FBF5F000F00F0009
:101BE00021681044886070BDA0FB010192185B4120
:101BF000FEF7E6FA0146B0FBF5F00201B1FBF5F0A5
:101C00006FF01803584301EB800006EBC000B0FBF7
:101C1000F5F000F0F80002EB4002B1FBF5F058439C
:101C200001EB800006EBC000B0FBF5F000F0070010
:101C3000D6E7000000100140001401402DE9F041FA
:101C4000984617460E460446069D27E0681C25D098
:101C50002DB1FEF783FCA0EB0800A8421ED9206836
:101C60000C3050E8001F21F4D07140E80012002A27
:101C7000F5D12068143050E8001F21F0010140E840
:101C80000012002AF5D1202084F83D0084F83E009F
:101C9000002084F83C000320BDE8F0812068006843
:101CA00036EA000004D00020B842CFD00020F3E78D
:101CB0000120F9E710B5D0F8B8220AB15268904770
:101CC000002010BD134610B50A46002100F07CFA32
:101CD000002010BD134610B50A46002100F013FB8A
:101CE000002010BD10B50446802100F0F1FA204616
:101CF000BDE81040002100F0EBBA10B50323C0F896
:101D00005821C0F89432C0F85C2113460A460021DD
:101D100000F05AFA002010BD10B505210023C0F8CC
:101D200094121A46194600F04FFA002010BD10B563
:101D300002238261C0F89432C26113460A46002130
:101D400000F0E1FA002010BD10B504210023C0F816
:101D500094121A46194600F0D6FA002010BD000071
:101D600010B50A46024903A000F0E4F8004810BD8F
:101D7000E80400206E65785F6C696E6B20636F6E9F
:101D80006669670012200880004870473C00002008
:101D900010B50A46024903A000F0CCF8004810BD77
:101DA000E80400206E65785F6C696E6B20696E7464
:101DB0006572666163650000042008800048704712
:101DC0003800002010B50A46024903A000F0B2F81E
:101DD000004810BDE80400204E65784C696E6B0029
:101DE00010B50A46024903A000F0A4F8004810BD4F
:101DF000E80400204E65784C696E6B2D53544D33CA
:101E00003246340010B51A2008800A480168001DC7
:101E10000468001D0068081809D008220649FFF769
:101E200017FD0549042210312046FFF711FD024835
:101E3000801E10BD107AFF1F52000020F8B5044626
:101E40000020ADF8000048880D46010A082968D234
:101E5000DFE801F0670409176767454ED4F8B4124C
:101E6000207C0A6819E0207C02260028D4F8B802F9
:101E700005D0C16A684688470146467042E0816ADB
:101E8000F8E7C1B2062921D2DFE801F0030A1014F5
:101E9000181CD4F8B402426805E06946904725E072
:101EA000D4F8B4028268DAB3207CF6E7D4F8B4023E
:101EB000C268F8E7D4F8B4020269F4E7D4F8B402CF
:101EC0004269F0E7D4F8B4028269ECE7D4F8B812BA
:101ED0008B6B2BB3C1B26A462046984706E0207C44
:101EE000F0B9D4F8B802416B68468847014609E06A
:101EF000207CA8B9D4F8B802016B6846884701462F
:101F000007204870EA888AB1BDF8000040B18242DB
:101F100000D90246ADF800202046FFF708FFF8BDC3
:101F2000FFE729462046FFF7DDFEF8E72046FFF7EA
:101F30000BFFF4E770B5002300281ED000250446EF
:101F400002E06D1CEDB2641C2678002EF9D102244B
:101F500004EB450414801278CA545B1C0322CA5453
:101F600000245B1C06E0CA545B1CDAB28C54521C81
:101F7000D3B2401C0278002AF5D170BD01004FF0A9
:101F8000000004D0012901D0022901D003207047AC
:101F90000120704730B4A0B1D0F8B84200230CB192
:101FA000C0F8B832D0F8CC420CB1C0F8CC3209B18C
:101FB000C0F8B412012180F89C12027030BC00F00D
:101FC000B3B830BC0320704710B5D0F8C402FEF798
:101FD000DCFBBDE81040FFF7D1BF10B5D0F8C4025C
:101FE000FEF7ADFBBDE81040FFF7C8BF70B5164661
:101FF000044649B1D4F8B80242691AB194F89C0277
:10200000032842D0032070BDD4F89412002504F1B7
:102010001400022932D1D0E902318B4206D95A1A72
:10202000826031462046FFF755FE0FE0994214D1F9
:102030004068884211D3D4F8981288420DD2002209
:1020400011462046FFF746FEC4F8985200231A4670
:102050001946204600F0B8F810E0D4F8B802C1687C
:1020600029B194F89C02032801D120468847802199
:10207000204600F02DF92046FFF74EFE94F8A0020E
:10208000012806D184F8A05203E02046904700289A
:10209000B9D1002070BD10B51346044649B1D4F83B
:1020A000B80282691AB194F89C02032824D0032054
:1020B00010BDD4F8941204F5AA70032920D1D0E9F8
:1020C000021291420AD98A1A8260C068824200D301
:1020D000024619462046FFF7F5FD11E0D4F8B80294
:1020E000016929B194F89C02032801D12046884750
:1020F0002046FFF729FE03E0204690470028D7D16D
:10210000002010BD0020704710B5012180F89C12FE
:10211000D0F8B82212B1526801799047002010BD62
:10212000D0F8C402FEF75FBB10B5017839BB154982
:102130000222C1F80805C0F8C4124FF0A0400860A0
:10214000052048600020C1E90320C1E9062008629B
:102150004862C86208630846FEF7B4FE08B1FEF79D
:10216000F0F880210748FEF79AFA4022002105483E
:10217000FEF799FA802201210248FEF794FA002026
:1021800010BD0000E80600200A0601F07F01D0F82B
:10219000C40201EBC10100EB810002D590F83E00C2
:1021A000704790F87E02704700207047002070470B
:1021B00010B51C461346D0F8C4022246FEF71CFB9D
:1021C000BDE81040FFF7DABE10B5D0F8C402FEF744
:1021D00043FBBDE81040FFF7D1BE70B501250446B2
:1021E00080F89C520020C4F894026060C4F8A402F5
:1021F000D4F8BC0228B1D4F8B802002142682046C5
:1022000090470022402311462046FFF7D1FF402689
:10221000A4F864513346002280212046C4F860614E
:10222000FFF7C6FFA5840020266270BD90F89C12BF
:10223000042903D190F89D1280F89C120020704769
:1022400010B590F89C12032904D1D0F8B812C969CE
:1022500001B18847002010BD01740020704710B5FF
:10226000D0F8C402FEF700FFBDE81040FFF786BEBD
:1022700070B5044600F2AA20054600F075FB012067
:10228000C4F89402B4F8B002C4F8980294F8AA0210
:1022900010F01F010AD001290ED0022912D000F03F
:1022A00080012046BDE8704000F012B82946204663
:1022B000BDE8704000F0EABB29462046BDE870400A
:1022C00000F015BD29462046BDE8704000F069BC0D
:1022D00010B5D0F8C402FEF7E3FABDE81040FFF7EE
:1022E0004DBE10B5D0F8C402FEF7FDFEBDE81040AB
:1022F000FFF744BE90F89C1280F89D12042180F8EC
:102300009C120020704710B5D0F8C402FEF702FB03
:10231000BDE81040FFF732BE70B50D460646D0F856
:10232000BC4240F2AB121D491DA001F0B1FA687821
:102330000A2825D2DFE800F005050524180F20053E
:102340002205286860646868A064EA8821463046EF
:10235000FFF7D3FC18E01148873801682160416815
:1023600061608068A06005E00C4928227B39204626
:10237000FDF757FFEA880CE0E06E08E0688828B1B6
:1023800029463046FFF7AEFC002070BD0F480422FE
:10239000206021463046FFF7CAFCF5E7EC40000814
:1023A00025735B25645D3A20555342445F4E455882
:1023B0005F4C494E4B5F436F6E6669675F52657154
:1023C0007565737420200D0A00000000EFBEADDEBD
:1023D00070B50C4605464FF4F872114911A001F092
:1023E00057FA607820280ED1A088042802D005284A
:1023F00009D106E0E28817494020402A0BD902465D
:1024000009E0608808B1002070BD1249E2884031BF
:102410009220922AF3D82846FFF789FC012070BD4C
:102420002641000825735B25645D3A2055534244DC
:102430005F4E45585F4C494E4B5F437573746F6DEB
:102440004465766963655265717565737420200D06
:102450000A000000F4000020FFF7BABF10B50446E0
:1024600040F22F22044905A001F012FAD4F8BC0270
:1024700000210164084610BD5C41000825735B25FE
:10248000645D3A20555342445F4E45585F4C494E77
:102490004B5F44617461496E20200D0A000000000A
:1024A0002DE9FF410C468046D0F8BC52032740F28C
:1024B0003B221A491AA001F0EBF9E86D2146401CB5
:1024C000E8654046FFF72CFE064614281ED3286D0B
:1024D00001F015FD0446034640F242220F4919A0BF
:1024E00001F0D6F994B1D5E9150101F038FDAC65DC
:1024F0006068A37B627B217B8DE80F00334640F24E
:102500004722064919A001F0C3F90027404600F010
:10251000C9F804B03846BDE8F081000071410008F8
:1025200025735B25645D3A20555342445F4E455800
:102530005F4C494E4B5F446174614F757420200DB0
:102540000A00000025735B25645D3A20546865200D
:1025500061646472657373206F6620782069733AD2
:102560002025700A20200D0A0000000025735B253D
:10257000645D3A204C656E3A25642C49443A2558EE
:102580002C253032582C253032582C25303258200A
:10259000200D0A0010B504468121FFF71EFD02211F
:1025A0002046FFF71AFD002010BD000010B5D0F83E
:1025B000BC4240F26112074907A001F069F904F139
:1025C00044004178002901D82168E164FF2141706D
:1025D000002010BDD240000825735B25645D3A20C1
:1025E000555342445F4E45585F4C494E4B5F4550F2
:1025F000305F5278526561647920200D0A00000036
:102600003221018000487047AC000020D0F8BC02A5
:1026100090F8690008B1022070470120704700005F
:1026200010B5EE2905D000211180FFF75BFB0020DB
:1026300010BD12201080014810BD0000E0000020F5
:102640002DE9F0410F4606469046032574210120EE
:10265000FDF70BFE04464FF49072094909A001F002
:1026600017F9002134B1C4E91478C6F8BC4200253A
:10267000A16501E0C6F8BC122846BDE8F081000063
:102680009940000825735B25645D3A205553424408
:102690005F4E45585F4C494E4B5F496E6974202030
:1026A0000D0A000010B504464FF41772064907489A
:1026B00001F0EEF8D4F8BC0218230221826D204606
:1026C000BDE81040FFF780BD87410008D4410008F5
:1026D00010B54FF4A872034903A001F0D9F8002007
:1026E00010BD0000C040000825735B25645D3A20E2
:1026F000555342445F4E45585F4C494E4B5F534FD4
:102700004620200D0A00000030B50546D0F8BC0276
:1027100089B0182490F8692002B9142490F8700048
:1027200058B122466846FDF77CFDC4F120010DEB4F
:102730000400FDF78FFD694620242246284600F05C
:102740006DF809B030BD000070B50C46054640F28A
:1027500013220E490EA001F09BF8207810F06000C3
:1027600009D0202801D040280DD121462846BDE8B7
:10277000704000F0A7B860780A2804D101220C4903
:102780002846FFF7D4FA002070BD00004841000839
:1027900025735B25645D3A20555342445F4E45588E
:1027A0005F4C494E4B5F536574757020200D0A00D5
:1027B000A800002070B5054603264FF49A720E4912
:1027C0000EA001F065F8D5F8BC429CB1202302228E
:1027D00081212846FFF7ECFC0222202311462846DF
:1027E000FFF7E6FC206D01F070FBA0652846FFF7BF
:1027F00059FF0026304670BDAC40000825735B25AC
:10280000645D3A20555342445F4E45585F4C494EF3
:102810004B5F537461727420200D0A002DE9F04162
:1028200016460F460546D0F8BC4240F26B220949D5
:1028300009A001F02DF8206C00284FF0010007D10D
:10284000206433463A4681212846FFF75CFD00208C
:10285000BDE8F081BA41000825735B25645D3A202C
:10286000555342445F4E45585F4C494E4B5F54723E
:10287000616E736D697420200D0A000010B5044666
:1028800040F26322054906A001F002F8D4F8BC0228
:10289000006C08B1002010BD012010BDA44100084B
:1028A00025735B25645D3A20555342445F4E45587D
:1028B0005F4C494E4B5F5478526561647920200D1E
:1028C0000A0000002DE9F041064608780D4600F0A8
:1028D0001F07C0F3411440F2DF12174917A000F0A0
:1028E000D7FF012C04D1012F02D1A888012805D0DF
:1028F00029463046BDE8F041FFF70EBD6A78D6F8AC
:10290000BC12304600243AB1032A09D02946FFF709
:10291000E9F92046BDE8F081012081F86800F8E778
:102920000C704C708C70CC700C71FF224A710622B6
:10293000FFF7FDF9EDE700000941000825735B256D
:10294000645D3A20555342445F4E45585F4C494EB2
:102950004B5F56656E646F725F5265717565737417
:1029600020200D0A0000000070B5054611F8010B8B
:102970002870087868704C1C2046FFF780F8688043
:10298000A41C2046FFF77BF8A880A01CFFF777F86F
:10299000E88070BD38B504460020ADF8000041B1B4
:1029A000C4F8B812896A68468847C4F8CC02002087
:1029B00038BD032038BD02460320D2F8B832002BC0
:1029C00002D01B6810461847704700002DE9F041FF
:1029D0000F462C4E8978002504463170012906D90E
:1029E00039462046FFF77EF90320BDE8F08194F8D0
:1029F0009C0202280CD003281DD039462046FFF740
:102A000071F931782046FFF755F903252846ECE7A0
:102A100099B320466160FFF7CEFF050004D0394628
:102A20002046FFF75FF9F1E72046FFF78DF9032015
:102A300084F89C02EAE74FF00208C1B1606888425E
:102A40001BD0C1B22046FFF735F9317820466160CE
:102A5000FFF7B1FF050010D039462046FFF742F9D5
:102A600021792046FFF726F984F89C82CEE784F886
:102A70009C8220466160FFF71DF92046FFF764F94C
:102A8000C4E70000C6010020FFF72BBC2DE9F04190
:102A90000A78002512F0600208D0202A01D0402ACE
:102AA00072D1D0F8B8229268904732E04B78002279
:102AB00001264FF002080A2B66D2DFE803F0405DE2
:102AC0006557650805652C28FFF7B8F95EE00446F0
:102AD0008888D0B9C888C0B94888802815D200F045
:102AE0007F0794F89C0203280FD084F89E72394621
:102AF0002046FFF7B4FB2046FFF726F917B184F80C
:102B00009C8243E084F89C6240E020463CE0FFF772
:102B10005DFF05463AE0CB88012B35D190F89C3219
:102B2000012B04D0022B02D0032B2DD104E08260B4
:102B3000012200F1080116E00122011D13E090F8C6
:102B40009C32012B03D0022B01D0032B1CD1CB884C
:102B5000022B19D1C260D0F8A41209B1C0F80C80C0
:102B6000022200F10C01FFF7E2F80FE04988012989
:102B70000CD1C0F8A46211E090F89C32012B08D06F
:102B8000022B06D0032B04D0FFF7ACF82846BDE893
:102B9000F08149880129F9D1C0F8A422FFF7D4F8BF
:102BA000F4E72DE9F0410D4604462878002709791D
:102BB00010F060000BD0202801D0402873D1D4F849
:102BC000B802294682682046904707468CE068781C
:102BD000D8B3012822D0032865D194F89C0202289A
:102BE00002D003287CD10BE0002979D0802977D04E
:102BF0002046FFF76DFB80212046FFF769FB73E05D
:102C0000688838B931B1802904D0E88810B92046E5
:102C1000FFF75EFB2046FFF797F865E094F89C020B
:102C20000228E1D003285BD16888D8BB480602D0CF
:102C30002046FFF7C9F92046FFF786F8D4F8B80216
:102C400029468268204690474EE0FFE794F89C02B0
:102C50000026022802D0032842D111E009B18029C0
:102C60003ED1080601F07F0000EB800004EB8001FC
:102C700001D5143101E001F5AA7102220E602BE0AA
:102C8000080601F00F0000EB800004EB80000BD57C
:102C9000808C40B101F07F0000EB800004EB8005E8
:102CA00014350CE020E01BE0B0F86401C0B101F085
:102CB0007F0000EB800004EB800505F5AA7541B1AB
:102CC000802906D02046FFF75FFA10B10120286066
:102CD00000E02E60022229462046FFF728F803E094
:102CE00029462046FEF7FEFF3846BDE8F08170B564
:102CF0000646087800240D4610F0600003D0202816
:102D000001D0402817D196F89C02012803D0022850
:102D100001D003280FD1287901280CD8D6F8B802A1
:102D20008268304690470446E888204306D1304602
:102D3000FFF70AF802E03046FEF7D4FF204670BDE8
:102D400070B50A78012302F00F054E78AB401B4C9A
:102D5000D0F81C58012E17D045EA0343C0F81C38A0
:102D600000EB4210D0F8002B12040BD4D0F8002B4B
:102D70008B890979C3F30A031A4344EA81410A4360
:102D8000C0F8002B002070BD9BB21D43C0F81C583A
:102D900000EB4210D0F800391B04F3D4D0F800390E
:102DA0008D890979C5F30A0589042B4341EA8251CB
:102DB0000B432343C0F80039E4E700000080001013
:102DC000D0F800196FF30A01C0F80019D0F8041800
:102DD00041F48071C0F804180020704770B50446B3
:102DE00006990A9E049D0D98012916D0E06840F0CE
:102DF0004000E060204600F02BF8A16B1EB321F4E8
:102E00008031A163012D07D1A16841F00601A160C5
:102E1000A16841F02001A16070BDA16B21F4803157
:102E2000A163E168094A1140E160E16821F44011C1
:102E3000E160012803D1E06840F48010E0602046A2
:102E400000F006F8DEE741F48031DAE7BFFFBDFFAE
:102E500008B500220D490092009B5B1C00938B4239
:102E60000CD80369002BF7DA0092026942F00102E4
:102E70000261009A521C00928A4201D9032008BDC7
:102E80000269D207F5D1002008BD0000400D030003
:102E900030B54C780A78012300EB4212012C2CD07B
:102EA000D2F8004B002C0BDAD2F8004B44F000644F
:102EB000C2F8004BD2F8004B44F08044C2F8004BFB
:102EC000D0F83C580C7804F00F0403FA04F425EA17
:102ED0000444C0F83C48D0F81C48097801F00F01C0
:102EE0008B4024EA0341C0F81C18D2F8000B1949A2
:102EF0000840C2F8000B002030BDD2F80049002C79
:102F00000BDAD2F8004944F00064C2F80049D2F864
:102F1000004944F08044C2F80049D0F83C480D789C
:102F200005F00F0503FA05F5ADB2AC43C0F83C4817
:102F3000D0F81C48097801F00F018B4099B28C43FE
:102F4000C0F81C48D2F8000903490840C2F800093B
:102F5000D1E700000078F3EF007833ECD0F8001EE2
:102F600021F00301C0F8001ED0F8041821F002017E
:102F7000C0F8041800207047D0F8001E21F00301AB
:102F8000C0F8001ED0F8041841F00201C0F804187F
:102F9000002070472DE9F04F00250E460446DDF86D
:102FA0002CC0DDF824B0109F2846294604EB80028F
:102FB000C2F80411401C0F28F8D32046C7B1806B1B
:102FC00020F40012A263A06B40F40022A263084622
:102FD0008846C4F8000ED4F800182046C4F800183B
:102FE000BCF1010F16D0D0F8001841F0030116E033
:102FF000D0F8040840F00202C4F80428A06B40F4A2
:103000000012A263A06B20F40022A263A06B20F444
:103010008022DBE7D0F800180BB141F00101C0F8C5
:103020000018102100F0EEFA00B10125204600F052
:10303000CBFA00B101254046C4F81088C4F81488C2
:10304000C4F81C8800214FF000694FF0904A4FF6F9
:103050007F3314E004EB4112D2F800C9BCF1000F39
:1030600006DA11B1C2F800A904E0C4F8009901E041
:10307000C2F80009C2F81009C2F80839491C8E428A
:10308000E8D8002115E000BF04EB4112D2F800CBD4
:10309000BCF1000F06DA11B1C2F800AB04E0C4F8CD
:1030A000009B01E0C2F8000BC2F8100BC2F8083B0D
:1030B000491C8E42E8D8D4F8101821F48072C4F864
:1030C0001028A0616FF080406061BBF1000F03D158
:1030D000A06940F01000A061A06909490843A061FF
:1030E0000C9818B1A06940F00800A061012F03D12D
:1030F000A06904490843A0612846BDE8F08F00009C
:1031000000383C8004000040816821F001018160AA
:103110000020704770B50D784E78444CEBB200EB50
:103120004313012E21D0D3F8100B6FF31200C3F814
:10313000100BD3F8100B2040C3F8100B886908B1AE
:10314000C8688861C868C861D3F8100B40F40020D3
:10315000C3F8100BD3F8100BCC69C4F3120420434E
:10316000C3F8100B012A55D058E08E69002ED3F811
:10317000106932D06FF31206C3F81069D3F81069E2
:103180002640C3F810698E69CC68A64200D98C61CC
:10319000D3F8104944F40024C3F81049D3F8104977
:1031A0008E69C6F312063443C3F81049012A22D0AF
:1031B00000EB4512D2F8003943F00443C2F800395D
:1031C0008A6932B3D0F83428097801F00F0301215D
:1031D00099400A43C0F8342826E02640C3F8106915
:1031E000D3F8104944F40024C3F81049D3F8104927
:1031F0006FF31204D8E7496919B100EB4512C2F820
:10320000141900EB4510D0F8001941F00441C0F842
:10321000001909E0086908B1C3F8140BD3F8000BD2
:1032200040F00440C3F8000B002070BDFFFF07E032
:1032300010B5036C134CA34203D9D0F8003B002B0C
:103240001EDB0023C0F8103BD0F8103B43F40023F2
:10325000C0F8103BD0F8103B43F01803C0F8103B07
:10326000D0F8103B43F0C043C0F8103B012907D110
:10327000C0F8142BD0F8001B41F08021C0F8001BCF
:10328000002010BD0A30544F4A780B78012A00EB19
:1032900043100BD0D0F8002B22F40012C0F8002B02
:1032A0000979032914D0022912D017E0D0F8002997
:1032B00022F40012C0F800290979032901D002295B
:1032C0000CD1D0F8001941F08051C0F8001905E088
:1032D000D0F8001B41F08051C0F8001B002070475F
:1032E0000A784B78D1B200EB4110012B12D0D0F804
:1032F000001B002906DB2AB1D0F8001B21F0804119
:10330000C0F8001BD0F8001B41F40011C0F8001BEE
:1033100000207047D0F80019002906DB2AB1D0F848
:10332000001921F08041C0F80019D0F8001941F4CB
:103330000011C0F80019EBE7F8B50C784F78764D1E
:10334000E3B26FF0604600EB4313012F27D0D3F8B0
:10335000104B6FF31204C3F8104BD3F8104B2C40F2
:10336000C3F8104B8D69002D75D0CC6825446D1EB7
:10337000B5FBF4F5ADB26C43CC61D3F8104B06EA63
:10338000C5452C43C3F8104BD3F8104BCD69C5F39A
:1033900012052C43C3F8104B012A71D0A4E08F69A9
:1033A0001FB3D3F810796FF31207C3F81079D3F86D
:1033B00010792F40C3F810798F69CD682F447F1E94
:1033C000B7FBF5F506EAC545D3F810693543C3F8F0
:1033D0001059D3F810598E69C6F312063543C3F855
:1033E00010590D79012D10D01BE0D3F810692E4033
:1033F000C3F81069D3F8105945F40025C3F81059E3
:10340000D3F810596FF3120509E0D3F8105925F0DD
:10341000C045C3F81059D3F8105945F00055C3F80A
:103420001059012A18D000EB4413D3F8004944F096
:103430000444C3F800490C79012C2FD08A6962B387
:10344000D0F83428097801F00F03012199400A438C
:10345000C0F834285EE036E04A691AB100EB441344
:10346000C3F81429097901290FD1D0F80818C90522
:1034700000EB4411D1F8002903D442F0005202E0DD
:103480002EE042F08052C1F8002900EB4410D0F841
:10349000001941F00441C0F800193BE0D0F8084899
:1034A000E405D3F8004902D444F0005401E044F0AC
:1034B0008054C3F8004900920A8B93B20A780969D4
:1034C00000F0D0F926E0D3F8104BCD68C5F3120513
:1034D0002C43C3F8104BD3F8104B44F4002459E7A5
:1034E0000A690AB1C3F8142B097901290CD1D0F863
:1034F0000808C005D3F8000B02D440F0005001E0EA
:1035000040F08050C3F8000BD3F8000B40F00440AB
:10351000C3F8000B0020F8BDFFFF07E038B500221C
:10352000009213464D780A7842F2107400EB421272
:10353000012D19D0D2F8005B002D3CDAD2F8005BE7
:1035400045F00065C2F8005B0A7800EB4212D2F841
:10355000005B45F08045C2F8005B009A521C009267
:10356000A24221D9012326E0D2F80059002D22DA07
:10357000D2F8005945F00065C2F800590A7800EB0E
:103580004212D2F8005945F08045C2F80059009A1D
:10359000521C0092A242E5D80A7800EB4212D2F8FF
:1035A0000029002AF3DB06E00A7800EB4212D2F889
:1035B000002B002AD1DB184638BD816841F001019B
:1035C000816000207047000008B500220C4900927D
:1035D000009B5B1C00938B420AD80369002BF7DA2F
:1035E000009210220261009A521C00928A4201D974
:1035F000032008BD0269D206F5D4002008BD0000F2
:10360000400D030018B500230D4A0093009C641C74
:10361000009494420CD80469002CF7DA009320231C
:1036200043EA811101610099491C0091914201D93D
:10363000032018BD01698906F5D4002018BD0000DB
:10364000400D0300D0F8080810F0060004D002284E
:1036500003D0062801D00F20704702207047406930
:1036600000F001007047D0F81818D0F81C08084086
:1036700080B27047D0F81818D0F81C080840000C29
:10368000704710B5D0F81038D0F8342801F00F0486
:1036900000EB4110E24002F00102D0F8080943EAD1
:1036A000C212104010BD00EB4111D1F8081BD0F838
:1036B000140808407047416980690840704730B578
:1036C00003460846940802F00301002203F58053E4
:1036D00003E01D6840F8045B521CA242F9D30029A4
:1036E0000BD01C680022D50024FA05F3491E521C99
:1036F000090400F8013B090CF5D130BD70B5044652
:10370000C068002520F0C040E060012901D079B1F7
:1037100020E0E06840F00050E0600120FCF714FE7B
:1037200060696D1C10F0010F10D1322DF5D30DE042
:10373000E06840F08040E0600120FCF705FE606931
:103740006D1C10F0010F01D0322DF5D3322D01D0B8
:10375000002070BD012070BDD0F8002822F4FE6268
:10376000C0F80028D0F800284FF4FE6303EA0111E6
:103770000A43C0F80028002070470000022A3ED10A
:10378000264A274B0A449A4201D20F2138E0254AA3
:10379000254B0A449A4201D20E2131E0234A244BA0
:1037A0000A449A4201D20D212AE0224A224B0A44BD
:1037B0009A4201D20C2123E0204A214B0A449A422A
:1037C00001D20B211CE01F4A1F4B0A449A4201D22E
:1037D0000A2115E01D4A1E4B0A449A420FD31D4A86
:1037E0001D4B0A449A4201D2082109E01B4A1144A8
:1037F0001B4A914201D2072102E0062100E0092183
:10380000C26822F47052C260C2684FF4705303EA77
:1038100081210A43C260002070470000405327FF07
:1038200000350C00401E1BFF40420F0000DC0BFF68
:10383000804F1200808CF9FE20D6130060B6E5FEA2
:1038400060E3160000D3CEFE40771B00C05BB3FEE2
:10385000C091210000CA91FE20753800E05459FE45
:10386000E09C410010B5029C74B9DB1C9C0800EB85
:103870000230002300F5805004E000BF51F8042B13
:1038800002605B1CA342F9D3002010BDFEE70000DC
:103890000FB4054B10B503A9044A029800F028F8AC
:1038A00010BC5DF814FB0000693D0008C801002051
:1038B0000907090E002804DB00F1E02080F800145D
:1038C000704700F00F0000F1E02080F8141D7047F1
:1038D00002E008C8121F08C1002AFAD170477047D9
:1038E000002001E001C1121F002AFBD17047000037
:1038F0002DE9FF4F8DB00F460546002606E025282E
:103900000BD0DDE90F1290476D1C761C287800283B
:10391000F5D111B03046BDE8F08F0024A246A14693
:103920000122EC4900E0044315F8013F203B02FA74
:1039300003F00842F7D128782A2810D06FF02F0220
:103940002878A0F13001092914D80AEB8A0102EB8A
:10395000410144F0020400EB010A6D1CF0E701CFC5
:103960005FEA000A03D544F40054CAF1000A44F0A7
:1039700002046D1C28782E2817D115F8010F44F089
:1039800004042A280ED06FF02F022878A0F130010D
:1039900009290AD809EB890102EB410100EB010971
:1039A0006D1CF2E757F8049B6D1C28786C280FD02B
:1039B00006DC4C2817D068280DD06A2814D104E002
:1039C000742810D07A280FD10DE044F400140AE0D6
:1039D00044F4801401E044F440146978814202D137
:1039E00004F580146D1C6D1C2A786E2A1FD00CDC27
:1039F000632A31D004DC002A8BD0582A11D1A3E0ED
:103A0000642A68D0692A0CD165E0732A2ED004DCC0
:103A10006F2A73D0702A04D19BE0752A6FD0782A60
:103A20006ED01046DDE90F129047761C50E1C4F3CA
:103A30000250022806D0032809D0042801CF09D05B
:103A4000066045E101CFF117C0E9006140E101CF17
:103A500006803DE106703BE117F8040B8DF800008D
:103A600000208DF80100EB46012003E057F804BB6D
:103A70004FF0FF3061074FF0000102D40DE008F174
:103A80000101884649450FDA8045F8DB1BF808102C
:103A90000029F4D108E008F1010188468142FADBEF
:103AA0001BF808100029F6D1DDE90F23AAEB080066
:103AB0008146214600F036F9304400EB080604E068
:103AC000DDE90F121BF8010B9047B8F10108F7D29E
:103AD00021464846F7E00A21C4F302534FF0000B99
:103AE0000891022B04D001CFC117032B09D00AE0A3
:103AF000FF1D27F00707F7E8020108E032E01FE0AA
:103B000020E000B2C117042B01D140B2C117031E3F
:103B100071F1000307DA4FF0000CD0EB0C006CEBF6
:103B200001012D2302E0230504D52B238DF8243039
:103B3000012303E0E30701D02023F7E7984658E08C
:103B40000A2110E010210EE010204FF0000B089029
:103B50000CE010214FF0000B44F004044FF0080972
:103B6000089103E008214FF0000B0891C4F30253C1
:103B7000022B04D001CF0021032B06D006E0FF1D4D
:103B800027F00707F7E8020103E080B2042B00D119
:103B9000C0B24FF0000823072BD5702A07D0DDF8FC
:103BA00020C08CF0100C5CEA0B0C05D00EE040231A
:103BB0008DF82430012308E050EA010306D03023B9
:103BC0008DF824308DF8252002239846DDF820C09A
:103BD0008CF0080C5CEA0B0C0BD150EA010301D10C
:103BE000630706D530238DF824304FF00108A9F182
:103BF0000109582A04D038A20B9208AA0A920BE0B5
:103C00003AA2F9E75B46089AFCF7DAFA0B9B9B5C51
:103C10000A9A521E0A92137050EA0102F2D10A98CF
:103C2000ADEB000000F1200B600702D524F48034D6
:103C300001E04FF00109D94502DDA9EB0B0000E0DE
:103C4000002000EB0B0141440890AAEB010AE003BD
:103C500006D4DDE90F232146504600F063F8064400
:103C60004FF0000908E009A911F80900DDE90F1279
:103C7000904709F10109761CC145F4DBE0030CD53E
:103C8000DDE90F232146504600F04CF8064404E0DD
:103C9000DDE90F1230209047761C0899481E0890E5
:103CA0000029F5DC08E00A980A990078491C0A9175
:103CB000DDE90F129047761CBBF10001ABF1010B5F
:103CC000F1DC21465046DDE90F2300F019F80644E7
:103CD0006D1C1BE60928010030313233343536378C
:103CE0003839616263646566000000003031323348
:103CF00034353637383941424344454600000000E8
:103D00002DE9F041044600251E461746880404D4D8
:103D100005E039462020B0476D1C641EF9D52846C1
:103D2000BDE8F0812DE9F041044600251E4690468D
:103D3000C80301D5302700E02027880404D505E01A
:103D400041463846B0476D1C641EF9D52846BDE88B
:103D5000F081EFF3108072B600F001007047002888
:103D600000D162B67047000013B54FF0FF33012257
:103D700069460248FDF712FD00981CBDA40400200E
:103D8000FCF7FAFBFDF782FEFDF77EFDFDF79AFDDD
:103D90008B22214921A0FFF77BFD052000F086F84A
:103DA000234D2860052000F081F86860052000F0B0
:103DB0007DF8A86018210520FCF757FA0646002474
:103DC00004EB440006EBC001286800F0ABF8641C6B
:103DD000052CF5D3002217491748FEF7DBF81749E1
:103DE0001548FEF7D7FDD5E900121348FEF728FC69
:103DF0001148FEF749FE7B24686800F066F810B1B0
:103E0000446100F0FDF80C48FEF738FD0028F3D0BF
:103E100000F0DAF8F0E700004840000825735B2561
:103E2000645D3A2068656C6C6F20200D0A0000000C
:103E3000000000201C000020D40100206C000020A5
:103E4000F0B50B30154D20F007010024144A0FE0A7
:103E500003688B420BD38B4205D95E1A431847681F
:103E6000C3E9006700E04368136002C004E0021D7C
:103E700010680028ECD12046002802D1286808B13B
:103E80000020F0BD064A07481060074A121A22F0C7
:103E90000702C0E9002401202860D7E7D0010020F4
:103EA000CC010020FC0B0020F80D002070B5054669
:103EB00010210120FCF7D9F9044604212846FCF71B
:103EC000D4F92560E060204670BD70B50446FFF768
:103ED00040FF0246A068002560B1E368616853F8BE
:103EE0002150491C2368401EB1FBF3F603FB161159
:103EF000C4E901101046FFF732FF284670BD30B507
:103F00008268002162B14368C168046851F82310D7
:103F10005B1CB3FBF4F504FB1533521EC0E9013200
:103F2000084630BD70B50E4604460025FFF711FF68
:103F30000146A268206882420CD263681A44B2FB30
:103F4000F0F300FB1320E26842F82060A068401CF8
:103F50000125A0600846FFF702FF284670BD10B596
:103F60008468036800229C420CD242682244B2FB5F
:103F7000F3F403FB1422C36843F822108168491C40
:103F800001228160104610BD70B50E460446002522
:103F9000FFF7DFFE0246A168206881420BD261680C
:103FA00071B1491E61606168E06840F82160A068F5
:103FB000401C0125A0601046FFF7D1FE284670BDC9
:103FC000401E6060EFE7000070B50B4DA868FFF77A
:103FD0007CFF04000FD001460848FEF795FB214600
:103FE00020B1A868BDE87040FFF7CEBF2868BDE8E3
:103FF0007040FFF797BF70BD00000020D401002083
:1040000070B506460E48FEF701FB0E4C02280BD099
:10401000002531460A48FEF777FB314650B1A068CB
:10402000FFF780FF284670BD3146A068FFF77AFF92
:10403000012070BD2068FFF775FF0125F2E7000041
:10404000D4010020000000206D61696E00000000B6
:104050000000000000010203040607080900000038
:104060000001020304000000000200000001000043
:1040700000F300000080DE8002010000001000005C
:104080000001000000080000000400000001000022
:10409000000004000001000000555342445F4E45FB
:1040A000585F4C494E4B5F496E697400555342440A
:1040B0005F4E45585F4C494E4B5F537461727400BC
:1040C000555342445F4E45585F4C494E4B5F534FEA
:1040D0004600555342445F4E45585F4C494E4B5F36
:1040E0004550305F527852656164790055534244BF
:1040F0005F4E45585F4C494E4B5F436F6E66696734
:104100005F5265717565737400555342445F4E4547
:10411000585F4C494E4B5F56656E646F725F5265D7
:10412000717565737400555342445F4E45585F4C3A
:10413000494E4B5F437573746F6D44657669636573
:104140005265717565737400555342445F4E45580E
:104150005F4C494E4B5F5365747570005553424434
:104160005F4E45585F4C494E4B5F44617461496EE8
:1041700000555342445F4E45585F4C494E4B5F4497
:104180006174614F757400555342445F4E45585FEA
:104190004C494E4B5F507265706172655265636544
:1041A00069766500555342445F4E45585F4C494E11
:1041B0004B5F5478526561647900555342445F4EB9
:1041C00045585F4C494E4B5F5472616E736D697414
:1041D0000000000025735B25645D3A20555342447E
:1041E0005F4E45585F4C494E4B5F5072657061722F
:1041F000655265636569766520200D0A0000000040
:104200002042000800000020D4010000E80200085D
:104210003C430008D401002024100000E0380008CE
:10422000C1320182101324F413851D1B08B9041A2E
:10423000C5041AE10413051E1B0861081A9104172E
:1042400004030904120132021E40501D6F603E1B20
:10425000020341031A1A0313B527140895251B08F6
:104260004908411AAD0C135D241B08A1044BD1264B
:10427000143988190C6904415A21081409023213AF
:10428000020125804B09041502FFFFFF2607058167
:1042900002202C070502071B0904812009FE0101E9
:1042A000E009210BFF1B081A0F1412034D125312C1
:1042B00046125412311A30021927113A40653A0455
:1042C000BD4971071057494E5553420A1501183A16
:1042D000921D1205120132883207122A1244126509
:1042E000127612691A63081249126E1A7408127251
:1042F00012663A611212471A55161244327332503E
:104300001A7B1612311235126212341A3396123891
:104310001A2D0612341A640E1A2D1A1A31341A364E
:104320000A1A62101A65441A2D0E1A30301A371AFA
:0C43300012383A391E3A343C02137D006A
:040000050800018965
:00000001FF
