:020000040800F2
:10000000602D00209D010008C3280008512600082B
:10001000C1280008E50B0008CD4B000800000000D7
:10002000000000000000000000000000412A00085D
:10003000E70B0008000000003F2A00084D2A0008D6
:10004000B7010008B7010008B7010008B7010008B0
:10005000B7010008B7010008B7010008B7010008A0
:10006000B7010008B7010008B7010008B701000890
:10007000B7010008B7010008B7010008B701000880
:10008000B7010008B7010008B7010008B701000870
:10009000B7010008B7010008B7010008B701000860
:1000A000B7010008B7010008B7010008B701000850
:1000B000B7010008F52A0008B7010008B7010008D9
:1000C000B7010008B7010008B7010008B701000830
:1000D000B7010008B7010008B7010008B701000820
:1000E000B7010008B7010008B7010008B701000810
:1000F000B7010008B7010008B7010008B701000800
:10010000B7010008B7010008B7010008B7010008EF
:10011000B7010008B7010008B7010008B7010008DF
:10012000B7010008B7010008B7010008B7010008CF
:10013000B7010008B7010008B7010008B7010008BF
:10014000B7010008B7010008B7010008B7010008AF
:10015000B7010008B7010008B7010008B70100089F
:10016000B7010008B7010008B7010008B70100088F
:10017000B7010008C5280008B7010008000000000A
:10018000B7010008B7010008DFF80CD000F07EFCD2
:100190000048004705550008602D002006488047AC
:1001A00006480047FEE7FEE7FEE7FEE7FEE7FEE75C
:1001B000FEE7FEE7FEE7FEE7E52A00088901000802
:1001C0002DE9F05F0546002092469B46884606468C
:1001D000814640241BE0284641464746224600F01F
:1001E0008CFA53465A46C01A914110D3114618460C
:1001F000224600F073FA2D1A67EB01084F4622469B
:100200000120002100F06AFA17EB00094E41201E80
:10021000A4F10104DFDC484631462A464346BDE8E6
:10022000F09F0000014610B509683C22B1FBF2F3D3
:1002300002FB1313B1FBF2F11D480360B1FBF2F3B3
:1002400002FB1313B1FBF2F118224360B1FBF2F38E
:1002500002FB1313B1FBF2F183600A1D0723B2FB0B
:10026000F3F403FB142282618A0040F2B55102F6D6
:100270006C32B2FBF1F344334361B2FBF1F301FBA7
:1002800013218908C1613B2903D3027D920700D065
:10029000491C0022074C13460261E25C8A4203D8E3
:1002A000891A5B1C0361F8E7491CC16010BD00009E
:1002B00034150020B457000870B5054601B9072170
:1002C000541A241DB4F5B67F09DD286800F036F90C
:1002D000A04204DC2868401C2860012070BD002C6E
:1002E00005DA2868401E286000F028F90444072039
:1002F00094FBF0F0401C70BD2DE9F04F89B01D4615
:100300008A468046002401AF4FF0070B0192079008
:1003100057F8241011F8010B47F8241048B125288C
:100320000DD0BAF1010F06D908F8010BAAF1010AA4
:100330005CE0641E5AE0002009B0BDE8F08F11F8BF
:10034000010B47F824100028F3D002264FF03009A3
:100350005A284BD020DC4D2873D014DC442871D0AF
:1003600008DC2528DDD041282AD042282ED0432879
:100370003CD130E0462847D0472857D0482862D0A3
:10038000492833D161E0523808282FD2DFE800F045
:10039000787AA6838A97A6A86138192826D2DFE83A
:1003A00000F00D1318202E253513255C25256064DB
:1003B0002566256D257375258B9BA0006AA000E03E
:1003C00070A0A9690091B4E07DA000E08848296987
:1003D000F8E788A007E06969642091FBF0F013302A
:1003E00082E0E86880E0641C47F82400002C8FDA83
:1003F000002088F800000799A8EB01009CE7E86856
:100400004FF02009009070E07EA0ECE7686900F2F0
:100410006C700090D5E906126846FFF74DFF009911
:10042000642091FBF0F200FB12105DE06869042685
:1004300000F26C700090D5E906126846FFF73CFFA9
:1004400053E010E048E0A8684EE0A8680C2117309F
:1004500090FBF1F201FB120001E0E8690326401C69
:1004600042E02869FBE768683EE069A0BBE7A8684E
:100470000C2801DA67A0B6E767A0B4E767A0B2E787
:1004800069A0B0E728682FE069A0ACE7A869012659
:1004900008BB072028E0D5E90610401AC01D90FBD4
:1004A000FBF021E0686900F26C700090D5E906125B
:1004B0006846FFF701FF17E00126A86914E0A96963
:1004C0005846891D91FBF0F20BFB1211EA69511A93
:1004D000C91D91FBFBF007E056A084E758A082E716
:1004E0000426686900F26C70009000218DF81810E5
:1004F00006A80A2113E0009A92FBF1F301FB1322F4
:10050000303200F8012D009A92FBF1F2009232B9DC
:1005100001E000F8019D321EA6F10106F9DC321E51
:10052000A6F10106E7DC5EE710F8011B0029FBD10C
:1005300000994A1E00920029F6DC54E781070CD18D
:10054000642190FBF1F201FB120151B94FF4C87123
:1005500090FBF1F201FB120018B1002000F26D10C7
:1005600070470120FAE7000053756E004D6F6E0072
:1005700054756500576564005468750046726900DB
:100580005361740053756E646179004D6F6E6461E0
:10059000790054756573646179005765646E65739D
:1005A0006461790054687572736461790046726998
:1005B00064617900536174757264617900000000B0
:1005C0004A616E00466562004D61720041707200C2
:1005D0004D6179004A756E004A756C00417567007F
:1005E000536570004F6374004E6F7600446563007E
:1005F000C05700082561202562202565202554204C
:100600002559000025592D256D2D25640000000079
:100610000A000000414D0000504D000025493A25D8
:100620004D3A25532025700025483A254D000000FD
:1006300009000000256D2F25642F2579000000009A
:1006400025483A254D3A25530000000040EA0103B1
:100650009B0703D009E008C9121F08C0042AFAD278
:1006600003E011F8013B00F8013B521EF9D270473C
:10067000D2B201E000F8012B491EFBD270470022E4
:10068000F6E710B513460A4604461946FFF7F0FF91
:10069000204610BD10B54843044604F07FFF0028F3
:1006A00005D00021002C02D0641E0155FAE710BDD0
:1006B00030B50B46014600202022012409E021FA32
:1006C00002F59D4205D303FA02F5491B04FA02F52F
:1006D0002844151EA2F10102F1DC30BD202A04DB02
:1006E000203A00FA02F1002070479140C2F1200345
:1006F00020FA03F3194390407047202A04DB203A84
:1007000021FA02F00021704721FA02F3D040C2F131
:10071000200291400843194670472DE9FE4F80465C
:1007200081EA0300C00F0C46009021F0004123F045
:100730000045B8EB0200A94105D24046214690464B
:100740001C460B46024623F00040104347D0270DBD
:10075000C7F30A00C3F30A510290401A01904028DF
:100760006BDAC3F3130040F4801B0098924620B16B
:100770000023D2EB030A63EB0B0B01985946C0F13F
:1007800040025046FFF7AAFF06460D46504659461E
:10079000019A00F08DF910EB08006141002487EA0E
:1007A000115284EAE7731A4340D0009A62B3019A67
:1007B000012A4FEA075215DC001B61EB02014FF0E2
:1007C000004202EA0752CDE90042001C41F58011C7
:1007D00032462B4600F08DF903B0BDE8F08F40465D
:1007E0002146F9E7001B61EB0201001C41F5801373
:1007F00000185B412018A2F5001747EB030140EAFF
:10080000D570B6196D4111E06D084FEA360645EA1C
:10081000C0754FEA0752001B61EB0201001C41F555
:10082000801149084FEA30000019514132462B46E9
:1008300003B0BDE8F04F00F04DB900980122400030
:100840000023D0EB020263EBE073009821464FEAED
:10085000E074B8EB000061EB0401E9E783F00043CA
:100860005BE781F0004158E72DE9FE4F81EA030480
:1008700004F0004421F0004100944FF0000B23F0FD
:10088000004350EA01045ED052EA03045BD0C3F394
:100890000A54C1F30A552C44A4F2F3340194A0FB8A
:1008A0000254C1F3130141F48011C3F3130343F461
:1008B000801301FB024400FB034E840A970A44EABA
:1008C000815447EA8357A4FB076802958D0A05FB0C
:1008D00007854FEA932C04FB0C542705029D4FEA31
:1008E000065847EA1637B5EB08056EEB070C870E7E
:1008F000920E47EA811742EA8312A7FB0201B6EB88
:100900000B0164EB00042B0D43EA0C335E1844EB3F
:100910001C50DA465146E7FB0201C5F313044FEAC7
:100920000B3343EA14534FEA0432019C43EA0603B3
:10093000A4F10C040294009CCDE900B400F0D9F8B5
:1009400003B0BDE8F08F00200146F9E72DE9F04D36
:1009500081EA030404F0004B21F0004514464FF0F7
:10096000000A23F0004150EA050220D054EA0102B7
:100970001DD0C5F30A570246C5F31303C1F3130094
:10098000C1F30A5640F4801543F48013A7EB060820
:10099000101BD64608F2FD3873EB050002D308F1B0
:1009A000010801E092185B41B8F1000F03DA002062
:1009B0000146BDE8F08D00204FF4801106468446C4
:1009C0000EE0171B73EB050705D3121B63EB050342
:1009D00006434CEA010C49084FEA300092185B418B
:1009E00050EA0107EDD152EA030012D082EA040076
:1009F00083EA0501084305D0101BAB4106D2012252
:100A0000002306E000224FF0004302E06FF00102F5
:100A100053101AEB06004CEB085110EB0A0041EBA7
:100A20000B01BDE8F04D00F055B8C1F30A52C1F317
:100A3000130140F2FF3341F480119A4202DA0020A0
:100A40000146704740F233439A42A2F2334202DC3D
:100A50005242FFF752BEFFF741BE000030B5041E00
:100A600071F1000404DB4FF00044404264EB0101EB
:100A7000141E73F1000405DB1C464FF00043524284
:100A800063EB0403994208BF904230BD064C074D0A
:100A900006E0E06840F0010394E80700984710344E
:100AA000AC42F6D3FFF774FB18580008385800081A
:100AB000202A06DBCB17203A41FA02F043EAE07322
:100AC00006E041FA02F3D040C2F12002914008430F
:100AD0001946704710B5141E73F1000408DA401C63
:100AE00041F1000192185B411A4301D120F001004D
:100AF00010BD2DE9F04D92469B4611B1B1FA81F23D
:100B000002E0B0FA80F220329046FFF7E7FD04469B
:100B10000F4640EA0A0041EA0B0153465A46084391
:100B200013D0114653EA010019D0C8F140025046D3
:100B3000FFF7E3FD05460E46504659464246FFF78D
:100B4000CDFD084305D0012004E020463946BDE82C
:100B5000F08D0020054346EAE0762C4337430A989F
:100B60006305E40AA0EB08000022FD0A44EA4754AA
:100B70000A3002D500200146E9E701051019694154
:100B8000DDE9084500196941BDE8F04DA2E770B5FF
:100B90008C1810F8015B15F0070301D110F8013B28
:100BA0002A1106D110F8012B03E010F8016B01F8AF
:100BB000016B5B1EF9D12B0705D40023521E0DD407
:100BC00001F8013BFAE710F8013BCB1A921C03E055
:100BD00013F8015B01F8015B521EF9D5A142D8D38D
:100BE000002070BDFEE7704772B6FEE710B5040046
:100BF00002D0607910B106E0012010BD0020207104
:100C0000204600F005F801206071002010BD0000B2
:100C100008B500680649884208D10648016841F4D1
:100C200080510160006800F48050009008BD000011
:100C3000003002403038024070B5044600F00CF934
:100C40000546601C02D004480078044400F004F912
:100C5000401BA042FAD370BDCC0100202DE9F84F13
:100C6000DFF8BCA10022012503264FF00F090AF18D
:100C7000040BAAF1040E00BF0B6805FA02F423402E
:100C8000A34270D10F7907F00307012F01D0022F83
:100C900016D187684FEA420806FA08FC27EA0C07D3
:100CA000D1F80CC00CFA08FC4CEA070CC0F808C0DC
:100CB0004768A7430C79C4F3001494403C43446054
:100CC0000C79E443A4070AD0C4684FEA420C06FA40
:100CD0000CF7BC438F6807FA0CF72743C7600C7901
:100CE00004F00304022C12D1D40800EB840CDCF8CD
:100CF00020405707FF0E09FA07F824EA0804D1F844
:100D0000108008FA07F848EA0408CCF82080046844
:100D10004FEA420C06FA0CF7BC430F7907F00307C1
:100D200007FA0CF7274307604C6814F4403F70D073
:100D30003C4C276847F480472760246822F003076B
:100D400004F480440094384C07EB040CDCF80848A9
:100D500097074FEA177809FA08F7BC43334FB842B0
:100D600002D1002724E054E0314FB84201D10127DD
:100D70001EE0304FB84201D1022719E02E4FB84291
:100D800001D1032714E02D4FB84201D104270FE011
:100D90002B4FB84201D105270AE02A4FB84201D1B2
:100DA000062705E0284FB84201D1072700E00827B1
:100DB00007FA08F72743CCF80878DAF800405746D6
:100DC000D1F804C09C435FEACC2C00D51C433C60A6
:100DD000DBF800405F46D1F804C09C435FEA8C2CEE
:100DE00000D51C433C60DEF800407746D1F804C0D3
:100DF0009C435FEA8C3C00D51C433C60084F083F95
:100E00003C68D1F804C09C435FEACC3C00D51C434D
:100E10003C60521C102AFFF42FAFBDE8F88F000091
:100E2000083C0140443802400030014000000240CC
:100E30000004024000080240000C02400010024082
:100E40000014024000180240001C02400AB18161F7
:100E500070470904FBE70000014880687047000004
:100E6000CC010020024881680278114481607047FB
:100E7000CC0100200B4810B5016841F400710160FD
:100E8000016841F480610160016841F48071016092
:100E9000032000F06FF80F2000F006F800F024F8AF
:100EA000002010BD003C024070B50D4D04464FF4CB
:100EB0007A712878B1FBF0F00A490968B1FBF0F0CB
:100EC00001F0C6F848B9102C07D200222146501E66
:100ED00000F030F800206C6070BD012070BD000093
:100EE000CC010020D80100200A4808B5016841F46F
:100EF00080410160006800F4804000900548001FB8
:100F0000016841F080510160006800F0805000905D
:100F100008BD000044380240002809DB00F01F0231
:100F2000012191404009800000F1E020C0F800114B
:100F300070470000F0B40E4B1B680C46C3F302234D
:100F4000C3F10705042D00D90425191D072901D275
:100F5000002300E0DB1E012606FA05F1491E2140B0
:100F600099409E40761E16403143F0BC03F046BEC9
:100F70000CED00E0064900F0070208684FF6FF0399
:100F8000184040EA0220034A1043086070470000FE
:100F90000CED00E00000FA05704700684162002097
:100FA0007047F0B50368586A39B19C6A4FF482768D
:100FB00000EB144400204D1E0AE040EA0240986213
:100FC0000FE006EB8007DF59401C04EB1744C0B26A
:100FD000A842F6D344EA02404FF4807202EB81014A
:100FE00058500020F0BDD0F8080502F0BCB901EB64
:100FF000C10200EB8202D0F80805D26C02F011B9F0
:1010000001EBC10200EB8202D0F80805D2F88C2275
:1010100002F062B9D0F8080502F0A7B90A0601F09B
:101020000F0101EBC10100EB810101D53C3101E071
:1010300001F51F71006803F011BC70B504460B0682
:1010400001F00F0000EBC00104EB81014FF0010241
:101050004FF0000503D581F83D203C3103E081F8D5
:101060007D5201F51F71087094F8BC04012808D066
:1010700084F8BC24206803F0ABF884F8BC5400204A
:1010800070BD022070BD70B5044601F00F006268AB
:10109000904201D9012070BD0B0601F00F0101EB58
:1010A000C10104EB81014FF001024FF0000503D5AF
:1010B00081F83D203C3103E081F87D5201F51F713C
:1010C0008D70087094F8BC04012808D084F8BC2402
:1010D000206803F079FA84F8BC54002070BD022027
:1010E00070BD01F00F0101EBC10100EB8100D0F8F0
:1010F0009C0270472DE9F04104460F0601F00F00F5
:1011000000EBC00104EB81014FF001064FF0000538
:1011100003D581F83D603C3103E081F87D5201F553
:101120001F710870CA600B714A7802B10881022BE6
:1011300000D14D7194F8BC04012809D084F8BC6436
:10114000206802F09DFF284684F8BC54BDE8F08179
:101150000220FBE770B50C4601F00F0505EBC50159
:1011600000EB8101C1F89432C1F88C220023C1F850
:101170009C3281F87D3281F87C52036901F51F7140
:10118000012B00D14A612207027C006803D003F0E2
:1011900073FA002070BD03F05DF9FAE770B50446FC
:1011A0000D4601F00F006168884201D9012070BD31
:1011B00029064FF000064FF0010207D500EBC001F1
:1011C00004EB810181F83D203C3107E005EBC501CE
:1011D00004EB810181F87D6201F51F718A7008704E
:1011E00094F8BC04012807D084F8BC24206803F0DC
:1011F00017FA280702D007E0022070BD217C04F214
:10120000C442206803F0B4F984F8BC64002070BDC7
:1012100070B50C4601F00F0505EBC50100EB81012F
:101220004B65CA640023CB65012381F83D3001F88A
:101230003C5F0369012B00D14A612207027C0068F0
:1012400003D003F019FA002070BD03F003F9FAE7A8
:101250002DE9FC5F05680446284603F0A0FB002842
:101260007DD1206803F0C7FB002878D0D5F80808A6
:10127000C0F30D20C4F8FC04206803F0BCFB800719
:1012800004D52068416901F002014161206803F042
:10129000B2FBC10604F2C440009034D520688169D5
:1012A00021F0100181612F6A07F00F0000EBC000F0
:1012B00004EB8006C7F3434006F51F76022802D0F0
:1012C000062811D01AE047F6F070074216D0C7F38F
:1012D0000A1217462846316903F091FB30693844F9
:1012E0003061306A384408E008222846009903F04B
:1012F00086FB306AC7F30A110844306220688169AE
:1013000041F010018161206803F075FB00034FF08C
:10131000080B4FF0000A4FF001097CD50026206829
:1013200003F048FB074674E0F80770D0F1B220687C
:1013300003F059FB8046C00707D005EB4611C1F802
:10134000089B3146204601F0C3FA5FEA087024D5B5
:1013500005EB4611C1F808BB2068016C00E025E2EE
:1013600000EB46100191D0F8082BFC4B994205D9AF
:10137000110403D54FF40041C0F8081B204600F0CB
:101380002FFBF6490198884207D92069012804D12A
:1013900020680121009A03F0EBF85FEAC86004D5E9
:1013A00005EB46111020C1F8080B5FEA88701DD5C7
:1013B0006869000605D5D5F8040840F48061C5F8D1
:1013C000041806EBC60004EB800090F87F1200F5CD
:1013D0001F70012905D180F803A0F1B2204600F06A
:1013E000EBF905EB46110220C1F8080B5FEA8860B3
:1013F00004D505EB46102021C0F8081B5FEA8840A1
:1014000005D505EB46104FF40051C0F8081B7F08C6
:10141000761C002F88D1206803F0EDFA40036FD5C9
:10142000206803F0C0FA0746002667E0F80763D09B
:10143000F1B2206803F0C5FA8046C00723D006F059
:101440000F0209FA02F0D5F834288243C5F834288F
:1014500005EB4610C0F80899206901280FD106EB6A
:10146000C60004EB8000D0E912211144C16436B9F2
:10147000606D20B920680121009A03F079F8F1B27B
:101480002046FFF7B4FD5FEA087003D505EB46116F
:10149000C1F808B95FEAC86004D505EB4611102011
:1014A000C1F808095FEA486004D505EB4610402101
:1014B000C0F808195FEA887017D53146284603F04E
:1014C00041FA06EBC60004EB800090F83F103C3078
:1014D000012905D180F803A0F1B2204600F068F997
:1014E00005EB46110220C1F808095FEA086003D540
:1014F0003146204601F052FA7F08761C002F95D124
:10150000206803F078FA002811DAD5F8040820F0F2
:101510000101C5F8041894F8F40401282BD02046E2
:1015200000F042FA2068416901F000414161206801
:1015300003F061FA00050BD5D5F80808C00702D002
:10154000204600F099FA2068416901F40061416188
:10155000206803F050FAC00466D5D5F8040820F0DE
:101560000100C5F804081021206803F0EBF9002100
:101570004FF67F321FE084F8F4A400212046FFF7E5
:101580000BFDCFE705EB4110C0F80829D0F8003972
:1015900023F40013C0F80039C0F8082BD0F8003B42
:1015A00023F40013C0F8003BD0F8003B43F0006385
:1015B000C0F8003B491C60688842E3D8D5F81C0895
:1015C00040F00111C5F81C18206B002828460DD0EA
:1015D000D0F8840840F00B01C5F88418D5F8440809
:1015E00040F00B012846C5F844180DE0D0F8140867
:1015F00042F22B010843C5F81408D5F8100840F052
:101600000B012846C5F81018D0F8000820F4FE6138
:10161000C5F80018217C2068009A02F0A9FF206814
:10162000416901F480514161206803F0E4F98004CC
:1016300015D5206802F064FD206803F0A3F9E0608E
:1016400000F0CCFA0146227B206803F037FA2046EE
:1016500000F094F92068416901F40051416120686B
:1016600003F0C9F9000707D5204600F0A1F920686A
:10167000416901F008014161206803F0BCF90006EE
:1016800016D5A86920F08000A86101260DE000BFF2
:1016900006EBC60004EB800090F87F02012803D11E
:1016A000F1B22046FFF7BAFC761C6068B042EFD872
:1016B000206803F0A0F9C00221D501264F4616E0AC
:1016C00005EB4610D0F8001906EBC60004EB8000CD
:1016D00090F84020012A09D1002907DA80F83F70EC
:1016E000F0B240F080012046FFF798FC761C60685D
:1016F000B042E5D82068416901F480114161206859
:1017000003F079F9800234D501204B4629E000BF6F
:1017100005EB4011D1F8001B00EBC00204EB820680
:1017200096F88022012A1BD1002919DA94F8FC24AA
:1017300001F4803102F00102914211D186F87F322A
:10174000A96941F08002AA616969090608D4D5F83F
:10175000040840F40070C5F8040805E00A30544F4E
:10176000401C61688142D3D82068416901F40011AE
:101770004161206803F03FF9400007D52046FFF79C
:1017800032FC2068416901F080414161206803F02A
:1017900032F940070AD520684568680702D5204617
:1017A000FFF738FC2068416829434160BDE8FC9F91
:1017B000D0F8080501F030BED0F8080501F040BEB1
:1017C0002DE9F0418AB0040005D094F8BD042668E4
:1017D000002520B108E001200AB0BDE8F08184F8BE
:1017E000BC54204600F05EF8032084F8BD04F06B82
:1017F000C00500D42561206802F026FE04F1100126
:10180000282288466846FEF721FF94E80F0002F080
:1018100085FC0226C8BB0021206803F00FF90020D8
:1018200001270EE000EBC00104EB810181F83D705F
:1018300001F83C0F08810D71CD600D61401CC0B2F4
:101840008D6161688142EDD8002011E000EBC0019C
:1018500004EB810181F87D5281F87C0281F880528D
:10186000C1F88852C1F88C52401CC0B2C1F89452E1
:1018700061688142EAD8282241466846FEF7E6FEC2
:1018800094E80F0002F026FD10B184F8BD64A2E7D1
:1018900084F8385084F8BD74206802F00DFD0020F3
:1018A0009AE700002DE9F04186B00446142168460D
:1018B000FEF7E5FE2C492068884251D12B4C4FF0B1
:1018C0000008206840F004002060206800F0040058
:1018D0000590206840F001002060206800F00100C1
:1018E0000590206840F0020020602068022500F08A
:1018F000020005900D208DE8210103260A27694684
:101900001B48CDE90367FFF7A9F928208DE82101DD
:1019100069461848CDE90367FFF7A0F943F623406D
:101920008DE8210169461448CDE90367FFF796F970
:10193000206840F000502060206800F000500590C2
:10194000206840F0804020602068002200F0804045
:10195000059001214D20FFF7EDFA4D20FFF7DCFA4D
:1019600006B0BDE8F08100000000044030380240BD
:1019700000080240000002400004024070B5044626
:10198000C068012570B1022801D0FFF72DF9294662
:10199000D4F8080501F0C2FDD4F80805BDE8704090
:1019A00001F077BD0025F2E7D0F8080501F09FBDF2
:1019B000D0F8080501F0A5BD10B5044690F8BC04A8
:1019C00001280BD0012084F8BC0484F8381020686A
:1019D00003F062F8002084F8BC0410BD022010BDA2
:1019E0002DE9F04100F2C441D0F80845054604F263
:1019F000AA200F46064602F028F994F8AA12002001
:101A0000C90603D13146204601F04EFE94F8AA12D1
:101A100001F01F01012903D13146204601F086FE65
:101A2000002806D13946D5F80805BDE8F04101F097
:101A300081BDBDE8F08110B50446006894F8BC147F
:101A4000012906D0012184F8BC14A16A012902D021
:101A500008E0022010BDA169012903D0816B41F487
:101A600080318163206802F048FF206802F016FC94
:101A7000002084F8BC0410BD10B50446D0F8080559
:101A800001F09AFD2068D0F8001E41F00101C0F875
:101A9000001E206A002804D00248016841F00601B7
:101AA000016010BD10ED00E02DE9F0470E46050085
:101AB00065D0DFF81481D8F80000F7B200F0070015
:101AC000B04207D288F80070D8F8000000F0070094
:101AD000B04254D128683D4C810712D5400703D548
:101AE000206840F4E05020602878000703D5206883
:101AF00040F4604020602068A96820F0F0000843AE
:101B000020602878C0072DD030496868083901283E
:101B100012D0022813D0032811D0096889070029A0
:101B20002DDA216821F0030101432160FFF794F9C8
:101B3000814641F2883A0EE009688903EFE70968B7
:101B40008901ECE7FFF788F9A0EB0901514502D9BB
:101B50000320BDE8F0872068696800F00C00B0EB56
:101B6000810FEFD1D8F80010404601F00701B142D3
:101B700007D90770006800F00700B04201D00120CB
:101B8000E7E72878400705D52068E96820F4E050A9
:101B9000084320602878000706D52068296920F4CA
:101BA000604040EAC100206000F03EF82168084A29
:101BB000C1F30311515CC84006490860064800683B
:101BC000FFF772F90020C4E7003C024008380240E9
:101BD0009C570008D8010020D0010020014800686F
:101BE00070470000D80100200448054900680968D2
:101BF000044AC1F38221515CC8407047D8010020DB
:101C000008380240AC5700080448054900680968D4
:101C1000044AC1F34231515CC8407047D8010020EA
:101C200008380240AC570008154810B5006810F09D
:101C30000C02144813D04110042A0FD0082A0ED1E8
:101C40000F4C241F2268236802F03F025B0207D575
:101C50002068C0F38810A0FB010106E0084610BD13
:101C60002168C1F38811A1FB00010023FEF7A8FA47
:101C70002168C1F30141491C4900B0FBF1F010BDDE
:101C8000083802400024F4002DE9F84F04006ED01B
:101C90002078DFF84C93C007A9F104054AD009F178
:101CA00004000168C1F38101012908D00068C0F374
:101CB000810002280AD1D9F80000400206D5286820
:101CC000800337D560680028E1D033E06068B0F564
:101CD000803F10D0B0F5A02F286810D020F48030BD
:101CE0002860286820F4802028606068A8B1FFF789
:101CF000B3F806460DE0286840F48030F4E740F47D
:101D000080202860F7E700BFFFF7A6F8801B642853
:101D100073D828688003F7D50CE0FFF79DF80646D6
:101D200005E000BFFFF798F8801B6428F0D828680A
:101D30008003F7D42078DFF8AC8280074FF0000AE8
:101D40003ED5A748001D016811F00C0F08D00068AF
:101D5000C0F3810002280BD1D9F80000400207D45B
:101D60002868800716D5E068012800D112E033E129
:101D7000E068B8B10120C8F80000FFF76DF806462A
:101D800005E000BFFFF768F8801B0228C0D828686C
:101D90008007F7D52868216920F0F80040EAC100E3
:101DA00028600DE0C8F800A0FFF756F8064604E0EA
:101DB000FFF752F8801B02281FD828688007F7D445
:101DC0002078000722D5864F87486169703771B146
:101DD00001210160FFF740F8064604E0FFF73CF8F8
:101DE000801B022809D838688007F7D50EE0C0F8B4
:101DF00000A0FFF731F8064605E082E0FFF72CF877
:101E0000801B02287DD838688007F7D420784007E7
:101E100068D5DFF8CCB100270BF13C0BDBF80000F4
:101E2000C0000BD4DBF8001041F08051CBF800105B
:101E3000DBF80000012700F0805000906B4E306806
:101E4000C00510D4306840F480703060FFF704F8AB
:101E5000009005E0FFF700F80099401A022850D8DA
:101E60003068C005F6D55E4EA0686C3601280FD0EC
:101E70000528306810D020F001003060306820F074
:101E800004003060A068B8B1FEF7E6FF00900FE0F4
:101E9000306840F00100F4E740F004003060F7E7FC
:101EA000FEF7DAFF0099411A41F28830814266D884
:101EB00030688007F4D50EE0FEF7CEFF009007E013
:101EC000FEF7CAFF0099411A41F28830814256D884
:101ED00030688007F4D42FB1DBF8001021F0805176
:101EE000CBF80010A069C8B33D49091D0968C1F3CA
:101EF000810102294AD00228504607D0C8F8600064
:101F000000E03CE0FEF7A8FF04463BE04746C8F887
:101F10006000FEF7A1FF064605E000BFFEF79CFF4C
:101F2000801B02282BD828688001F7D4D4E9070148
:101F30000843A16A2E4A490802EB0141626A41EA5C
:101F40008211084394F82C1040EA0161C9F800108E
:101F500001203866FEF780FF044606E03EE000BF41
:101F6000FEF77AFF001B022809D828688001F7D500
:101F700034E000BFFEF770FF001B022802D90320E7
:101F8000BDE8F88F28688001F4D427E00128F7D055
:101F9000D9F80000E26900F4800191421CD1226A64
:101FA00000F03F01914217D147F6C071626A0140CB
:101FB000B1EB821F10D1A26A4FF0FF3300F4403121
:101FC00003EB5202B1EB024F06D194F82C1000F053
:101FD0007060B0EB016F01D00120D1E70020CFE7A6
:101FE0000438024000004742800E47420070004023
:101FF0000000FFFF70B5040003D06079002510B128
:1020000005E0012070BD2571204600F00DF802208A
:1020100060712068016841F0040101600120607175
:10202000A560002070BD000008B500680649884220
:1020300008D10648016841F040010160006800F0E5
:102040004000009008BD00000008065034380240EF
:1020500010B5401EB0F1807F01D3012010BD4FF0BC
:10206000E02460610F21601702F0C8FD0020A0612C
:1020700007202061002010BD7047704770B590F8B0
:102080003C20012A32D0012480F83C40022280F812
:102090003D2003685A689D6822F070060A68324342
:1020A0005A60134B02689A4214D0B2F1804F11D09B
:1020B000104B9A420ED0104B9A420BD00F4B9A42C3
:1020C00008D00F4B9A4205D00E4B9A4202D00E4BCD
:1020D0009A4204D1496825F080031943916080F841
:1020E0003D40002180F83C10084670BD022070BDC4
:1020F000000001400004004000080040000C0040C7
:1021000000040140004001400018004010B50400E8
:1021100003D094F83D0010B107E0012010BD00206D
:1021200084F83C00204600F01FF8022084F83D00AF
:10213000211D206800F0E4FC012084F8460084F8AA
:102140003E0084F83F0084F8400084F8410084F8A1
:10215000420084F8430084F8440084F8450084F881
:102160003D00002010BD000008B5114A016811486B
:10217000914211D1016841F0020101600068002222
:1021800000F00200009011461D20FEF7D3FEBDE8CE
:1021900008401D20FEF7C0BE074A914207D10168E2
:1021A00041F080010160006800F08000009008BDEF
:1021B0000004004040380240001C004070B5044656
:1021C00090F83C000025012817D0012684F83C60D7
:1021D000022084F83D002068826822F0770222F411
:1021E0007F4282600868502838D00DDC20284FD00C
:1021F00005DC90B3102811D14AE0022070BD3028D0
:1022000046D040280AD13BE060282FD070280DD05E
:10221000B0F5805F03D0B0F5005F12D0012584F8DF
:102220003D60002084F83C00284670BDCB68D1E9B1
:102230000121206800F0C8FC2068816841F0770126
:1022400009E0CB68D1E90121206800F0BDFC2068DD
:10225000816841F480418160E1E719E0CA6849681A
:10226000206800F085FD5021206806E0CA684968B2
:10227000206800F08EFD6021206800F0AFFCCEE702
:10228000CA684968206800F073FD40212068F4E7BF
:10229000226801461046F0E7704770B504460068B2
:1022A00001694FF00005C943890715D4C168C943C6
:1022B000890711D4E91E0161012020772068806917
:1022C0008007204602D0FFF7E7FF04E000F0C2F8E5
:1022D000204600F054F9257720680169C943490771
:1022E00017D4C168C943490713D46FF004010161D1
:1022F000022020772068806910F4407F204602D0B9
:10230000FFF7CAFF04E000F0A5F8204600F037F917
:10231000257720680169C943090716D4C168C943F4
:10232000090712D46FF008010161042020772068AA
:10233000C0698007204602D0FFF7AEFF04E000F03E
:1023400089F8204600F01BF9257720680169C94308
:10235000C90617D4C168C943C90613D46FF0100168
:102360000161082020772068C06910F4407F204672
:1023700002D0FFF791FF04E000F06CF8204600F077
:10238000FEF8257720680169C943C90708D1C168EB
:10239000C943C90704D1891E0161204600F0F0F845
:1023A00020680169C943090609D4C168C9430906FF
:1023B00005D46FF0800101612046FFF75DFE2068C3
:1023C0000169C943490609D4C168C943490605D40E
:1023D0006FF040010161204600F0D3F820680169E8
:1023E000C94389060BD4C168C943890607D46FF075
:1023F000200101612046BDE87040FFF73EBE70BD80
:1024000010B586B0044614216846FEF738F90E4927
:102410002068884215D10D480021026842F001026F
:102420000260006800F0010005904020009002204A
:10243000CDE901010920CDE9031069460448FEF702
:102440000DFC06B010BD0000001C004030380240FA
:1024500000000240704770B5044690F83C0000262A
:102460000D4601280FD0012084F83C006AB1042AEF
:102470001DD0082A2FD00C2A3FD00126002084F836
:102480003C00304670BD022070BD206800F0AEFBFD
:102490002068816941F0080181612068816921F02B
:1024A00004018161206881692A69114311E0206873
:1024B00000F0CCFB2068816941F4006181612068F3
:1024C000816921F480618161206881692A6941EA1A
:1024D00002218161D2E7206800F0EEFB2068C1692B
:1024E00041F00801C1612068C16921F00401C161A6
:1024F0002068C1692A69114311E0206800F010FCCE
:102500002068C16941F40061C1612068C16921F49A
:102510008061C1612068C1692A6941EA0221C16103
:10252000ACE710B5040003D094F83D0010B107E00B
:10253000012010BD002084F83C00204600F01EF869
:10254000022084F83D00211D206800F0D9FA012006
:1025500084F8460084F83E0084F83F0084F8400088
:1025600084F8410084F8420084F8430084F8440071
:1025700084F8450084F83D00002010BD7047704786
:102580007047704770B5040004D094F83D000025F2
:1025900010B106E0012070BD84F83C50204600F0E8
:1025A00023F8242084F83D002068C16821F40051FC
:1025B000C160204600F000FC2068016921F49041D0
:1025C00001612068416921F02A0141612068C168E8
:1025D00041F40051C1602564202084F83D0084F856
:1025E0003E00002070BD000010B586B004461421E6
:1025F0006846FEF744F813492068884220D1124803
:102600000021026842F010020260006800F0100031
:1026100005900D481438026842F00202026000681A
:1026200000F002000590C02000900220CDE90101D9
:10263000032003900720049069460448FEF70EFB30
:1026400006B010BD001001404438024000040240B2
:10265000FEE70000F0B500230A24302537261F4688
:1026600011E000BFB4EB107F02D905EB107C01E054
:1026700006EB107C01F813C001EB430C00015B1C5E
:102680008CF80170DBB29342ECD3F0BD074910B572
:10269000054808600846FEF7A9FA002803D0BDE8FF
:1026A0001040FEF7A1BA10BD003002401800002013
:1026B0002DE9F04786B014216846FDF7E0FF304869
:1026C0000025016841F004010160016801F0040186
:1026D0000591016841F080010160016801F080010D
:1026E0000591016841F001010160016801F00101FB
:1026F0000591016841F002010160016801F00201E9
:102700000591016841F0080101600068DFF87480FC
:1027100000F008000590012210214046FEF796FBCC
:10272000DFF864904FF44046002231464846FEF7F9
:102730008DFBDFF858A04FF48077002239465046D1
:10274000FEF784FB10200124CDE900040320CDE92D
:10275000024069464046FEF781FACDE900646946C9
:102760004846CDE90245FEF779FACDE9007469469D
:102770005046CDE90245FEF771FA06B0BDE8F08794
:10278000303802400000024000040240000C0240C9
:10279000074910B5054808600846FFF72BFC0028DC
:1027A00003D0BDE81040FEF71FBA10BD0008065068
:1027B000440D002010B588B01C216846FDF75FFF6E
:1027C00015481449002401605321C0E9011440F266
:1027D000E731C0E903148461FFF798FC08B1FEF704
:1027E00003FA0D48FFF79DFE08B1FEF7FDF96020E2
:1027F000CDE9000402940022694607480494FFF7DB
:102800002AFE08B1FEF7F0F90348FFF7F9FD08B01A
:1028100010BD0000001C00409C0D002010B586B0CB
:1028200000241748009401940294039404941349DB
:10283000059401605321C0E9011440F2E731C0E979
:1028400003148461FFF762FC08B1FEF7CDF94FF481
:102850008050009069460A48FFF7B0FC08B1FEF7C7
:10286000C3F9049404A906480594FFF707FC00285F
:1028700001D0FEF7B9F906B010BD00000004004019
:10288000540D00200C4810B50A4901600B49416005
:10289000002181600C22C160C0E904128161C16124
:1028A000FFF770FE002803D0BDE81040FEF79CB98A
:1028B00010BD000000100140E40D002040420F0058
:1028C000FEE7FEE70148FEF7C3BC00002810002029
:1028D0002DE9F04103680D4604461E6C03EB4511DB
:1028E000D1F8080BD4F810E04FF400474FF0200C5B
:1028F00004F2C442BEF1010F09D0DFF898E076453A
:1029000039D1020432D500BFC1F8087B3FE0224B29
:102910005FEA007E04D59E4239D90004F4D436E043
:102920005FEA806E02D5C1F808CB30E010F0280FC6
:102930002DD19E4201D90004E6D405EBC50004EB7D
:102940008000D1F8101BD0F89832C1F31201591A47
:10295000C0F89C1200F51F70ADB983691BB1026904
:10296000114401610FE0012120680AE080060AD5C8
:10297000C1F808CB07E035B9D4F8940218B90021A2
:10298000184601F0F5FDE9B22046FEF739FB0020BC
:10299000BDE8F0810A31544F0A30544F2DE9F84F09
:1029A0000E4601EBC60100EB810481460568616DAE
:1029B000E06D3C34884202D90120BDE8F88F081A46
:1029C000E168814200D20846C01C870805EB461822
:1029D0001BE000BFA0EB010AE068504500D2824630
:1029E0000AF10300870899F8100000901FFA8AF393
:1029F000F2B22846216902F0D5F8216901EB0A00FC
:102A00002061216A01EB0A002062D8F8180980B21F
:102A1000B84205D3216AA069814201D20028D9D1E8
:102A2000216AA069884208D806F00F010120884079
:102A3000D5F834188143C5F834180020BDE7704735
:102A400070470178407841EA00207047FEF70ABAE3
:102A500030B593B030216846FDF711FE14210CA863
:102A6000FDF70DFE1D480025016841F08051016011
:102A7000006800F0805011901948016841F48041CD
:102A800001600068022400F4804011900120009051
:102A9000000401908001CDE9064004200890A820A0
:102AA000CDE9090407200B906846FFF7EDF808B15F
:102AB00072B6FEE70CA90F2081E831004FF4A05058
:102AC0000F904FF48050109005210CA8FEF7ECFFFA
:102AD000002801D072B6FEE713B030BD4038024086
:102AE000007000400248016841F4700101607047C5
:102AF00088ED00E00148FFF7D0BB0000540D002036
:102B0000F0B50268254C264D264E274F274B4FF037
:102B1000804CA04209D0604507D0A84205D0B04201
:102B200003D0B84201D0984204D122F0700E4A6816
:102B300042EA0E02A0421BD0604519D0A84217D02D
:102B4000B04215D0B84213D0984211D0184DA842C7
:102B50000ED0184DA8420BD0174DA84208D0174DE3
:102B6000A84205D0164DA84202D0164DA84203D166
:102B700022F44075CA682A434D6922F080022A4334
:102B800002608A68C2620A688262A04201D09842EA
:102B900001D10969016301214161F0BD00000140DB
:102BA0000004004000080040000C00400004014008
:102BB000004001400044014000480140001800402E
:102BC000001C00400020004010B5846842EA032247
:102BD00024F47F440A432243826010BD826822F0BD
:102BE00070020A4342F0070181607047F0B5026A43
:102BF00022F001020262036A42688469124E24F0E4
:102C000073050C682C4323F002058B682B430D4D94
:102C1000A84201D0B04205D123F00807CB683B435E
:102C200023F00403A84201D0B04205D14D6922F43B
:102C3000407215438A692A4342608461496841634E
:102C40000362F0BD0000014000040140F0B5026ADB
:102C500022F010020262026A436884690D6824F45B
:102C6000E64444EA05248D6822F0200242EA051277
:102C70000F4D104EA84201D0B04206D1CF6822F0CD
:102C8000800242EA071222F04002A84201D0B0427C
:102C900007D14D6923F4406343EA85038D6943EA14
:102CA000850343608461496881630262F0BD00006E
:102CB0000000014000040140F0B5026A22F4807275
:102CC0000262026A4368C46922F4007224F0730548
:102CD0000C68124E2C438D6842EA05220E4DA84224
:102CE00001D0B04206D1CF6822F4006242EA072246
:102CF00022F48062A84201D0B04207D14D6923F48A
:102D0000405343EA05138D6943EA05134360C461E8
:102D10004968C1630262F0BD000001400004014047
:102D200030B5026A22F480520262046A4268C369C2
:102D30000D6823F4E64343EA05238D6824F4005428
:102D400044EA0534084DA84202D0084DA84204D1F7
:102D50004D6922F4804242EA85124260C3614968AB
:102D60000164046230BD0000000001400004014025
:102D700010B5036A046A24F001040462846924F033
:102D8000F00444EA021423F00A020A438461026256
:102D900010BD10B5036A23F0100303628369046A4F
:102DA00023F4704343EA023224F0A00343EA011102
:102DB0008261016210BD000070B5044600680169BF
:102DC000E26821F44051114301612169A068E26980
:102DD00008436169114308432168CA6849F20C63DA
:102DE0009A430243CA6020684169A26921F4407194
:102DF0001143416131492068884202D030498842FC
:102E000002D1FEF701FF01E0FEF7EEFEE2690023CA
:102E1000192164253226B2F5004F626828D0A0FB44
:102E20000101930F9200FDF7CBF90146B0FBF5F0DD
:102E30006FF01802504301EB800006EB0010B0FB6E
:102E4000F5F000F0F002B1FBF5F002EB0012B1FB7F
:102E5000F5F06FF01803584301EB800006EB00100B
:102E6000B0FBF5F000F00F0021681044886070BDE1
:102E7000A0FB010192185B41FDF7A2F90146B0FBEE
:102E8000F5F00201B1FBF5F06FF01803584301EBC8
:102E9000800006EBC000B0FBF5F000F0F80002EB9C
:102EA0004002B1FBF5F0584301EB800006EBC00097
:102EB000B0FBF5F000F00700D6E70000001001407D
:102EC0000014014010B5D0F8B82200245268904791
:102ED00000B10324204610BD002070470020704739
:102EE000134610B50A46002100F0CAFA002010BDB2
:102EF000134610B50A46002100F067FB002010BD04
:102F000010B50446802100F045FB2046BDE8104086
:102F1000002100F03FBB10B50323C0F89432C0F885
:102F200058211346C0F85C210A46002100F0A8FA97
:102F3000002010BD10B50521C0F8941200231A46D8
:102F4000194600F09DFA002010BD10B50223C0F80C
:102F5000943282611346C2610A46002100F035FBBB
:102F6000002010BD10B50421C0F8941200231A46A9
:102F7000194600F02AFB002010BD000010B50A46DB
:102F8000024903A000F0F8F8004810BD280E002008
:102F90006E65785F6C696E6B20636F6E6669670043
:102FA00012200880004870474000002010B50A46F3
:102FB000024903A000F0E0F8004810BD280E0020F0
:102FC0006E65785F6C696E6B20696E7465726661A0
:102FD0006365000004200880004870473C00002022
:102FE00010B50A46024903A000F0C6F8004810BD1B
:102FF000280E002054656D706C617465000000003F
:1030000010B50A46024903A000F0B6F8004810BD0A
:10301000280E00204E65784C696E6B2D53544D334D
:103020003246340010B51A2008800A480168001D95
:103030000468001D0068081809D008220649FFF737
:1030400009FB0549042210312046FFF703FB024823
:10305000801E10BD107AFF1F56000020F8B50446F0
:103060000E460020ADF8000072880146100A0828BC
:1030700079D2DFE800F07804091778785660D4F840
:10308000B412207C0A6819E0207C02250028D4F8BC
:10309000B80205D0C16A684688470146457054E0C9
:1030A000816AF8E7D0B2062821D2DFE800F0030AEF
:1030B0001014181CD4F8B402426805E06946904721
:1030C00036E0D4F8B4028268A2B3207CF6E7D4F8E4
:1030D000B402C268F8E7D4F8B4020269F4E7D4F89D
:1030E000B4024269F0E7D4F8B4028269ECE7002543
:1030F00012E000BF04EB8500D0F8B822926B52B109
:10310000C4F8D452D0F8B802B1786A46836B20462E
:103110009847010019D16D1CD4F8D802A842E9D80B
:1031200013E0207C30B9D4F8B802416B6846884778
:1031300001460AE017E0207CA8B9D4F8B802016B78
:1031400068468847072201464270F28882B1BDF87E
:10315000000040B1824200D90246ADF8002020466E
:10316000FFF7F3FEF8BD31462046FFF7C9FEF8BD74
:103170002046FFF7F7FEF8BD70B5002300281ED0EB
:103180000025044602E06D1CEDB2641C2678002E7A
:10319000F9D1022404EB450414801278CA545B1C54
:1031A0000322CA5400245B1C06E0CA545B1CDAB23A
:1031B0008C54521CD3B2401C0278002AF5D170BD49
:1031C00001004FF0000004D0012901D0022901D0F4
:1031D000032070470120704778B10023C0F8B8324F
:1031E000C0F8C432C0F8D03209B1C0F8B41201211D
:1031F00080F89C12027000F0CBB80320704710B525
:10320000D0F8C802FDF73FFFBDE81040FFF7D8BF78
:1032100010B5D0F8C802FDF710FFBDE81040FFF769
:10322000CFBF2DE9F04117460446002521B194F89F
:103230009C02032842D04CE0D4F8941204F114000C
:10324000022935D1D0E902639E4206D9F21A826082
:1032500039462046FFF74CFE0FE0B34214D14068D8
:10326000984211D3D4F8981288420DD20022114608
:103270002046FFF73DFEC4F8985200231A4619462F
:10328000204600F0FDF813E094F89C02032808D1D2
:10329000D4F8B802C16821B1C4F8D452C16820463C
:1032A00088478021204600F075F92046FFF742FE4E
:1032B00094F8A00268B184F8A0520AE0D4F8B802E9
:1032C000426932B1C4F8D45242692046904700287E
:1032D00000D10020BDE8F08170B5134604460022FD
:1032E00021B194F89C02032830D03AE0D4F894122B
:1032F00004F5AA70032934D1D0E902518D420AD9CC
:103300006A1A82600846824200D302461946204665
:10331000FFF7E6FD25E094F8AA0210F01F0003D0A5
:10332000012802D0022800D0002294F89C02032831
:1033300008D1D4F8B802016921B1C4F8D4220169D6
:10334000204688472046FFF70DFE0AE0D4F8B80271
:10335000836933B1C4F8D42282692046904700289B
:1033600000D1002070BD0020704710B5002401215D
:1033700080F89C12D0F8B82222B1526801799047A7
:1033800000B10324204610BDD0F8C802FDF7A9BE45
:1033900010B50178012929D115490122C1F8080584
:1033A000C0F8C81213480860062048600020C860B2
:1033B0000861C1E9062008624862C8620863486380
:1033C0000846FEF7FDF908B1FDF70EFC4FF4007159
:1033D0000748FDF7E2FD802200210548FDF7E1FDE9
:1033E0004FF4BA7201210248FDF7DBFD002010BD49
:1033F00028100020000004400A0601F07F01D0F8E8
:10340000C80201EBC10100EB810002D590F83E003B
:10341000704790F87E02704710B5D0F8D42200EBC8
:103420008202D2F8B82222B190F89C32032B02D04B
:1034300004E0032010BD126A02B19047002010BDC5
:1034400010B5D0F8D42200EB8202D2F8B82222B113
:1034500090F89C32032B02D004E0032010BD526A86
:1034600002B19047002010BD10B51C461346D0F89D
:10347000C8022246FDF73EFEBDE81040FFF7A0BEA1
:1034800010B5D0F8C802FDF765FEBDE81040FFF7A3
:1034900097BE2DE9F04100260125044680F89C5294
:1034A000C4F894626660C4F8A46280F8A062D0F8A0
:1034B000B80230B1426822B100212046904700B1E5
:1034C00003260022402311462046FFF7CDFF402768
:1034D000A4F864513B46002280212046C4F8607164
:1034E000FFF7C2FFA58430462762BDE8F08190F85F
:1034F0009C12042903D190F89D1280F89C120020A0
:10350000704710B590F89C12032905D1D0F8B81275
:1035100011B1C96901B18847002010BD01740020B4
:10352000704710B5D0F8C802FEF746FABDE8104063
:10353000FFF746BE70B5044600F2AA20054600F02B
:1035400084FB0120C4F89402B4F8B002C4F89802D5
:1035500094F8AA0210F01F010AD001290ED0022906
:1035600012D000F080012046BDE8704000F012B893
:1035700029462046BDE8704000F002BC294620469E
:10358000BDE8704000F043BD29462046BDE87040CC
:1035900000F08DBC10B5D0F8C802FDF7FFFDBDE806
:1035A0001040FFF70DBE10B5D0F8C802FEF743FA81
:1035B000BDE81040FFF704BE90F89C1280F89D1201
:1035C000042180F89C120020704710B5D0F8C80282
:1035D000FDF71EFEBDE81040FFF7F2BD2DE9F041FA
:1035E0000D468046D0F8BC42FDF736FC4FF47A77A2
:1035F000B0FBF7F107FB1106FDF72EFCB0FBF7F16E
:10360000244B324624A001F0FFFF012084F844003F
:10361000204869789138092935D2DFE801F034056E
:10362000110515051E252E002868C4F84600686897
:10363000C4F84A00EA8821464046FFF76CFC26E0C1
:10364000A16DD1E900010BE0A06D0422806820602B
:1036500021464046FFF779FC19E0A16DD1E903014D
:103660000822C4E90001F3E750F8061F2160416811
:103670006160007A20720922EAE70168216080888F
:10368000A0800622E4E729464046FFF739FC0020E7
:10369000BDE8F081D55600085B253033642E253017
:1036A00033645D2D25730A002DE9F0410C46054673
:1036B000FDF7D2FB4FF47A77B0FBF7F107FB110669
:1036C000FDF7CAFBB0FBF7F1124B324612A001F036
:1036D0009BFF607820280ED1A088042802D00528FE
:1036E00009D106E0E28810494020402A0CD9024660
:1036F0000AE0608810B10020BDE8F0810A49E28844
:1037000040319220922AF2D82846FFF71EFC012071
:10371000F2E700000F5700085B253033642E253098
:1037200033645D2D25730A00F80000202DE9F04177
:103730000E460746FDF790FB4FF47A75B0FBF5F1A6
:1037400005FB1104FDF788FBB0FBF5F1054B2246A4
:1037500005A001F059FF31463846BDE8F041FFF7BA
:10376000A3BF0000315700085B253033642E25309D
:1037700033645D2D25730A002DE9F0410F46804624
:10378000D0F8BC42FDF768FB4FF47A76B0FBF6F157
:1037900006FB1105FDF760FBB0FBF6F1104B2A4666
:1037A000104801F031FF787840B103280AD039463B
:1037B0004046FFF7A5FB0020BDE8F081012084F81A
:1037C0005C00F8E7002020706070A070E07020714D
:1037D000FF206071062221464046FFF7B6FBEAE76C
:1037E000BB560008983B0008D0F8BC0200210164D9
:1037F000084670472DE9F04180460326FFF7C4FDD7
:103800000446FDF729FB4FF47A77B0FBF7F107FB8D
:103810001105FDF721FBB0FBF7F123462A4604A072
:1038200001F0F2FE404600F02BF93046BDE8F08191
:103830005B253033642E253033645D2D72786C65E2
:103840006E3A2025640A000070B50646FDF704FBB9
:103850004FF47A75B0FBF5F105FB1104FDF7FCFAA6
:10386000B0FBF5F1074B224607A001F0CDFE812108
:103870003046FFF7CDFC02213046FFF7C9FC00209F
:1038800070BD00007A5600085B253033642E253069
:1038900033645D2D25730A0070B588B00546FDF7C9
:1038A000DBFA4FF47A76B0FBF6F106FB1104FDF774
:1038B000D3FAB0FBF6F11C4B22461CA001F0A4FE8B
:1038C000D5F8BC0200F146046178012904D003292F
:1038D00014D0052915D11CE0184A01211170D0E936
:1038E0000023816DC1E90023806DFCF79BFC03463A
:1038F00013A220216846FCF7FFFC02E0816D0068FE
:103900008860284600F0BCF8FF20607008B00020F6
:1039100070BD0021016441658179806D827C61F315
:1039200001028274EDE70000A15600085B253033E8
:10393000642E253033645D2D25730A00AC00002011
:1039400025592D256D2D25642025483A254D3A25EC
:103950005300000070B50546FDF77EFA4FF47A7605
:10396000B0FBF6F106FB1104FDF776FAB0FBF6F1B9
:10397000044B224604A001F047FE3220288006486E
:1039800070BD00006A5700085B253033642E253077
:1039900033645D2D25730A00B00000202DE9F0414D
:1039A00014460F468046FDF757FA4FF47A76B0FB7F
:1039B000F6F106FB1105FDF74FFAB0FBF6F10A4BE5
:1039C0002A460AA001F020FEEE2F08D00020208019
:1039D00001464046FFF794FA0020BDE8F08112202E
:1039E00020800648F9E70000835700085B25303344
:1039F000642E253033645D2D25730A00E400002019
:103A00002DE9F047894606469246032560210120AC
:103A1000FCF740FE0446FDF71FFA4FF47A78B0FB3E
:103A2000F8F208FB1207FDF717FAB0FBF8F10F4B9D
:103A30003A460FA001F0E8FD00218CB1C4F858A06F
:103A4000C4E91491C6F8BC42A16D4FF6FF70002581
:103A50008881A16DC881A16D4FF48060088201E06A
:103A6000C6F8BC122846BDE8F0870000535600088F
:103A70005B253033642E253033645D2D25730A00B9
:103A800030B4084AD0F8BC1254780123A3435370D1
:103A900052780B6D896D03EB82220B8A30BC0221B8
:103AA000FFF7EEBCAC00002070B5FDF7D5F94FF480
:103AB0007A75B0FBF5F105FB1104FDF7CDF9B0FB0C
:103AC000F5F1034B224603A001F09EFD002070BDDE
:103AD0008F5600085B253033642E253033645D2D0E
:103AE00025730A002DE9F0410D460646FDF7B4F9AD
:103AF0004FF47A74B0FBF4F104FB1107FDF7ACF955
:103B0000B0FBF4F11F4B3A461FA001F07DFD287871
:103B100010F060002BD0202801D040282FD1FDF7D5
:103B20009BF9B0FBF4F104FB1107FDF795F9B0FB2D
:103B3000F4F1144B3A46643B17A001F065FD297877
:103B400001F01F00C1F34111012904D1012802D164
:103B5000A888012805D029463046BDE8F041FFF786
:103B60003DBD29463046BDE8F041FFF705BE687807
:103B70000A2804D101220C493046FFF7E6F900205B
:103B8000BDE8F081565700085B253033642E2530A0
:103B900033645D2D25730A005B253033642E253098
:103BA00033645D2D25730A00AE0000202DE9F0413D
:103BB00005460326FDF750F94FF47A77B0FBF7F18D
:103BC00007FB1104FDF748F9B0FBF7F1104B224653
:103BD00010A001F019FDD5F8BC42ACB14FF48066DD
:103BE0003346022281212846FFF73EFC022233465B
:103BF00011462846FFF738FC0020606584F8440031
:103C00002846FFF73DFF00263046BDE8F081000062
:103C1000665600085B253033642E253033645D2DF5
:103C200025730A0010B51346D0F8BC22146C54B9A1
:103C300092F844403CB1012414640A468121FFF704
:103C4000C4FC002010BD012010BD70B5054611F860
:103C5000010B2870087868704C1C2046FEF7F1FEB6
:103C60006880A41C2046FEF7ECFEA880A01CFEF78E
:103C7000E8FEE88070BD38B504460020ADF80000CD
:103C8000A1B1C4F8B812D4F8D40204EB8000D0F883
:103C9000B802C16A19B168468847C4F8D002D4F89E
:103CA000D802401CC4F8D802002038BD032038BD1B
:103CB00002460020D2F8B832002B02D01B68104612
:103CC000184770472DE9F04188462B4E897800252A
:103CD00004463170012906D941462046FFF710F904
:103CE0000320BDE8F08194F89C02022702280CD042
:103CF00003281DD041462046FFF702F931782046BF
:103D0000FFF7E0F803252846EBE789B3204661601A
:103D1000FFF7CEFF050004D041462046FFF7F0F83C
:103D20001DE02046FFF71EF9032084F89C02EAE715
:103D3000C1B1606888421BD0C1B22046FFF7C2F80B
:103D4000317820466160FFF7B3FF050010D041468F
:103D50002046FFF7D5F821792046FFF7B3F884F81D
:103D60009C72D0E784F89C7220466160FFF7AAF845
:103D70002046FFF7F7F8C6E7DC010020FFF713BC89
:103D80002DE9F0410A78002512F060020CD0202ABB
:103D900001D0402A7ED1D0F8D42200EB8202D2F8A2
:103DA000B8229268904732E04B78002201264FF00B
:103DB00002080A2B6ED2DFE803F040656D576D08EC
:103DC000056D2C28FFF74AF966E004468888D0B9CB
:103DD000C888C0B94888802815D200F07F0794F8B9
:103DE0009C0203280FD084F89E7239462046FFF7C4
:103DF00098FB2046FFF7B6F817B184F89C824BE099
:103E000084F89C6248E0204644E0FFF75BFF0546EB
:103E100042E0CB88012B3DD190F89C32012B04D09D
:103E2000022B02D0032B35D104E08260012200F185
:103E3000080116E00122011D13E090F89C32012BCD
:103E400003D0022B01D0032B24D1CB88022B21D10C
:103E5000C260D0F8A41209B1C0F80C80022200F1AF
:103E60000C01FFF772F817E04A88012A02D0022AF3
:103E700003D00FE0C0F8A46216E08988090A80F830
:103E8000A01211E090F89C32012B08D0022B06D032
:103E9000032B04D0FFF734F82846BDE8F0814988A9
:103EA0000129F9D1C0F8A422FFF75CF8F4E72DE965
:103EB000F041054608780C790E464FF0000810F0E6
:103EC00060000BD0202801D040286AD12146284626
:103ED000FFF702F8FF2800D0D8B395E07078C8B398
:103EE000012824D003285CD195F89C02022802D036
:103EF000032856D10CE0002C53D0802C51D0214601
:103F00002846FFF747FB80212846FFF743FB7BE06D
:103F1000708840B93CB1802C05D0C88818B92146BA
:103F20002846FFF737FB2846FFF71CF86CE095F8AA
:103F30009C020228DFD0032863D1708880BB600612
:103F400003D021462846FFF75AF92846FFF70AF81A
:103F5000BCE700E00AE0C5F8D402D5F8B8028268F0
:103F6000F2B131462846904780464DE095F89C02D4
:103F70000027022802D0032843D113E00CB1802C83
:103F80003FD1200604F07F0000EB800005EB8001AC
:103F900001D5143101E001F5AA7102220F602CE075
:103FA00032E02EE0200604F00F0000EB800005EB6D
:103FB000800009D5808C20B304F07F0000EB8000E6
:103FC00005EB800614360AE0B0F86401C8B104F0CD
:103FD0007F0000EB800005EB800606F5AA764CB169
:103FE000802C07D021462846FFF706FA10B10120A1
:103FF000306000E03760022231462846FEF7A5FF18
:1040000002E02846FEF77CFF4046BDE8F08170B52F
:104010000546087800240E4610F0600003D02028E2
:1040200001D0402827D195F89C02012803D002280E
:1040300001D003281FD1B088C1B201291AD8C1B25A
:104040002846FEF74BFFFF280CD058B9D5F8B81218
:104050008A683AB1C5F8D4028A6831462846904742
:10406000044600E00324F088204307D12846FEF7E9
:1040700079FF03E031462846FEF742FF204670BD37
:1040800070B50A78012302F00F054E78AB401B4C47
:10409000D0F81C58012E17D045EA0343C0F81C384D
:1040A00000EB4210D0F8002B12040BD4D0F8002BF8
:1040B0008B890979C3F30A031A4344EA81410A430D
:1040C000C0F8002B002070BD9BB21D43C0F81C58E7
:1040D00000EB4210D0F800391B04F3D4D0F80039BB
:1040E0008D890979C5F30A0589042B4341EA825178
:1040F0000B432343C0F80039E4E7000000800010C0
:10410000D0F800196FF30A01C0F80019D0F80418AC
:1041100041F48071C0F804180020704770B504465F
:1041200006990A9E049D0D98012916D0E06840F07A
:104130004000E060204600F02BF8A16B1EB321F494
:104140008031A163012D07D1A16841F00601A16072
:10415000A16841F02001A16070BDA16B21F4803104
:10416000A163E168094A1140E160E16821F440116E
:10417000E160012803D1E06840F48010E06020464F
:1041800000F006F8DEE741F48031DAE7BFFFBDFF5B
:1041900008B500220D490092009B5B1C00938B42E6
:1041A0000CD80369002BF7DA0092026942F0010291
:1041B0000261009A521C00928A4201D9032008BD74
:1041C0000269D207F5D1002008BD0000400D0300B0
:1041D00030B54C780A78012300EB4212012C2CD028
:1041E000D2F8004B002C0BDAD2F8004B44F00064FC
:1041F000C2F8004BD2F8004B44F08044C2F8004BA8
:10420000D0F83C580C7804F00F0403FA04F425EAC3
:104210000444C0F83C48D0F81C48097801F00F016C
:104220008B4024EA0341C0F81C18D2F8000B19494E
:104230000840C2F8000B002030BDD2F80049002C25
:104240000BDAD2F8004944F00064C2F80049D2F811
:10425000004944F08044C2F80049D0F83C480D7849
:1042600005F00F0503FA05F5ADB2AC43C0F83C48C4
:10427000D0F81C48097801F00F018B4099B28C43AB
:10428000C0F81C48D2F8000903490840C2F80009E8
:10429000D1E700000078F3EF007833ECD0F8001E8F
:1042A00021F00301C0F8001ED0F8041821F002012B
:1042B000C0F8041800207047D0F8001E21F0030158
:1042C000C0F8001ED0F8041841F00201C0F804182C
:1042D000002070472DE9F04F00250E460446DDF81A
:1042E0002CC0DDF824B0109F2846294604EB80023C
:1042F000C2F80411401C0F28F8D32046C7B1806BC8
:1043000020F40012A263A06B40F40022A2630846CE
:104310008846C4F8000ED4F800182046C4F80018E7
:10432000BCF1010F16D0D0F8001841F0030116E0DF
:10433000D0F8040840F00202C4F80428A06B40F44E
:104340000012A263A06B20F40022A263A06B20F4F1
:104350008022DBE7D0F800180BB141F00101C0F872
:104360000018102100F0EEFA00B10125204600F0FF
:10437000CBFA00B101254046C4F81088C4F814886F
:10438000C4F81C8800214FF000694FF0904A4FF6A6
:104390007F3314E004EB4112D2F800C9BCF1000FE6
:1043A00006DA11B1C2F800A904E0C4F8009901E0EE
:1043B000C2F80009C2F81009C2F80839491C8E4237
:1043C000E8D8002115E000BF04EB4112D2F800CB81
:1043D000BCF1000F06DA11B1C2F800AB04E0C4F87A
:1043E000009B01E0C2F8000BC2F8100BC2F8083BBA
:1043F000491C8E42E8D8D4F8101821F48072C4F811
:104400001028A0616FF080406061BBF1000F03D104
:10441000A06940F01000A061A06909490843A061AB
:104420000C9818B1A06940F00800A061012F03D1D9
:10443000A06904490843A0612846BDE8F08F000048
:1044400000383C8004000040816821F00101816057
:104450000020704770B50D784E78444CEBB200EBFD
:104460004313012E21D0D3F8100B6FF31200C3F8C1
:10447000100BD3F8100B2040C3F8100B886908B15B
:10448000C8688861C868C861D3F8100B40F4002080
:10449000C3F8100BD3F8100BCC69C4F312042043FB
:1044A000C3F8100B012A55D058E08E69002ED3F8BE
:1044B000106932D06FF31206C3F81069D3F810698F
:1044C0002640C3F810698E69CC68A64200D98C6179
:1044D000D3F8104944F40024C3F81049D3F8104924
:1044E0008E69C6F312063443C3F81049012A22D05C
:1044F00000EB4512D2F8003943F00443C2F800390A
:104500008A6932B3D0F83428097801F00F03012109
:1045100099400A43C0F8342826E02640C3F81069C1
:10452000D3F8104944F40024C3F81049D3F81049D3
:104530006FF31204D8E7496919B100EB4512C2F8CC
:10454000141900EB4510D0F8001941F00441C0F8EF
:10455000001909E0086908B1C3F8140BD3F8000B7F
:1045600040F00440C3F8000B002070BDFFFF07E0DF
:1045700010B5036C134CA34203D9D0F8003B002BB9
:104580001EDB0023C0F8103BD0F8103B43F400239F
:10459000C0F8103BD0F8103B43F01803C0F8103BB4
:1045A000D0F8103B43F0C043C0F8103B012907D1BD
:1045B000C0F8142BD0F8001B41F08021C0F8001B7C
:1045C000002010BD0A30544F4A780B78012A00EBC6
:1045D00043100BD0D0F8002B22F40012C0F8002BAF
:1045E0000979032914D0022912D017E0D0F8002944
:1045F00022F40012C0F800290979032901D0022908
:104600000CD1D0F8001941F08051C0F8001905E034
:10461000D0F8001B41F08051C0F8001B002070470B
:104620000A784B78D1B200EB4110012B12D0D0F8B0
:10463000001B002906DB2AB1D0F8001B21F08041C5
:10464000C0F8001BD0F8001B41F40011C0F8001B9B
:1046500000207047D0F80019002906DB2AB1D0F8F5
:10466000001921F08041C0F80019D0F8001941F478
:104670000011C0F80019EBE7F8B50C784F78764DCB
:10468000E3B26FF0604600EB4313012F27D0D3F85D
:10469000104B6FF31204C3F8104BD3F8104B2C409F
:1046A000C3F8104B8D69002D75D0CC6825446D1E64
:1046B000B5FBF4F5ADB26C43CC61D3F8104B06EA10
:1046C000C5452C43C3F8104BD3F8104BCD69C5F347
:1046D00012052C43C3F8104B012A71D0A4E08F6956
:1046E0001FB3D3F810796FF31207C3F81079D3F81A
:1046F00010792F40C3F810798F69CD682F447F1E41
:10470000B7FBF5F506EAC545D3F810693543C3F89C
:104710001059D3F810598E69C6F312063543C3F801
:1047200010590D79012D10D01BE0D3F810692E40DF
:10473000C3F81069D3F8105945F40025C3F810598F
:10474000D3F810596FF3120509E0D3F8105925F08A
:10475000C045C3F81059D3F8105945F00055C3F8B7
:104760001059012A18D000EB4413D3F8004944F043
:104770000444C3F800490C79012C2FD08A6962B334
:10478000D0F83428097801F00F03012199400A4339
:10479000C0F834285EE036E04A691AB100EB4413F1
:1047A000C3F81429097901290FD1D0F80818C905CF
:1047B00000EB4411D1F8002903D442F0005202E08A
:1047C0002EE042F08052C1F8002900EB4410D0F8EE
:1047D000001941F00441C0F800193BE0D0F8084846
:1047E000E405D3F8004902D444F0005401E044F059
:1047F0008054C3F8004900920A8B93B20A78096981
:1048000000F0D0F926E0D3F8104BCD68C5F31205BF
:104810002C43C3F8104BD3F8104B44F4002459E751
:104820000A690AB1C3F8142B097901290CD1D0F80F
:104830000808C005D3F8000B02D440F0005001E096
:1048400040F08050C3F8000BD3F8000B40F0044058
:10485000C3F8000B0020F8BDFFFF07E038B50022C9
:10486000009213464D780A7842F2107400EB42121F
:10487000012D19D0D2F8005B002D3CDAD2F8005B94
:1048800045F00065C2F8005B0A7800EB4212D2F8EE
:10489000005B45F08045C2F8005B009A521C009214
:1048A000A24221D9012326E0D2F80059002D22DAB4
:1048B000D2F8005945F00065C2F800590A7800EBBB
:1048C0004212D2F8005945F08045C2F80059009ACA
:1048D000521C0092A242E5D80A7800EB4212D2F8AC
:1048E0000029002AF3DB06E00A7800EB4212D2F836
:1048F000002B002AD1DB184638BD816841F0010148
:10490000816000207047000008B500220C49009229
:10491000009B5B1C00938B420AD80369002BF7DADB
:10492000009210220261009A521C00928A4201D920
:10493000032008BD0269D206F5D4002008BD00009E
:10494000400D030018B500230D4A0093009C641C21
:10495000009494420CD80469002CF7DA00932023C9
:1049600043EA811101610099491C0091914201D9EA
:10497000032018BD01698906F5D4002018BD000088
:10498000400D0300D0F8080810F0060004D00228FB
:1049900003D0062801D00F207047022070474069DD
:1049A00000F001007047D0F81818D0F81C08084033
:1049B00080B27047D0F81818D0F81C080840000CD6
:1049C000704710B5D0F81038D0F8342801F00F0433
:1049D00000EB4110E24002F00102D0F8080943EA7E
:1049E000C212104010BD00EB4111D1F8081BD0F8E5
:1049F000140808407047416980690840704730B525
:104A000003460846940802F00301002203F5805390
:104A100003E01D6840F8045B521CA242F9D3002950
:104A20000BD01C680022D50024FA05F3491E521C45
:104A3000090400F8013B090CF5D130BD70B50446FE
:104A4000C068002520F0C040E060012901D079B1A4
:104A500020E0E06840F00050E0600120FCF7ECF856
:104A600060696D1C10F0010F10D1322DF5D30DE0EF
:104A7000E06840F08040E0600120FCF7DDF860690C
:104A80006D1C10F0010F01D0322DF5D3322D01D065
:104A9000002070BD012070BDD0F8002822F4FE6215
:104AA000C0F80028D0F800284FF4FE6303EA011193
:104AB0000A43C0F80028002070470000022A3ED1B7
:104AC000264A274B0A449A4201D20F2138E0254A50
:104AD000254B0A449A4201D20E2131E0234A244B4D
:104AE0000A449A4201D20D212AE0224A224B0A446A
:104AF0009A4201D20C2123E0204A214B0A449A42D7
:104B000001D20B211CE01F4A1F4B0A449A4201D2DA
:104B10000A2115E01D4A1E4B0A449A420FD31D4A32
:104B20001D4B0A449A4201D2082109E01B4A114454
:104B30001B4A914201D2072102E0062100E009212F
:104B4000C26822F47052C260C2684FF4705303EA24
:104B500081210A43C260002070470000405327FFB4
:104B600000350C00401E1BFF40420F0000DC0BFF15
:104B7000804F1200808CF9FE20D6130060B6E5FE4F
:104B800060E3160000D3CEFE40771B00C05BB3FE8F
:104B9000C091210000CA91FE20753800E05459FEF2
:104BA000E09C410010B5029C74B9DB1C9C0800EB32
:104BB0000230002300F5805004E000BF51F8042BC0
:104BC00002605B1CA342F9D3002010BDFEE7000089
:104BD0007CB5044600201D46164600290BD0491E10
:104BE000CDE90041044B6A462946304600F0E8F81A
:104BF000009A002111707CBDEF5400080907090ECE
:104C0000002804DB00F1E02080F80014704700F079
:104C10000F0000F1E02080F8141D704702E008C882
:104C2000121F08C1002AFAD170477047002001E026
:104C300001C1121F002AFBD1704700002DE9FF5F60
:104C400082B00021DDE90430020DDDF840B00343FD
:104C500018D044F61050A2F2FF32424315141198B6
:104C600001281FD0A5EB0B00401C5FEA000A4FF0A3
:104C700000064E4FDFF83891B046504615D5CAF1C0
:104C8000000413E0119801244AA3012801D16FEA1E
:104C90000B010298119AC0E90031C0E9024206B046
:104CA000BDE8F09FCBF10000DFE704460021404A59
:104CB000491842EB0450CDE9001012E0E00707D09C
:104CC00032463B4640464946FBF7CEFD8046894684
:104CD00032463B4610461946FBF7C6FD06460F46D0
:104CE0006410002CEAD1DDE90401DDE90023BAF10A
:104CF000000F06DAFBF7B8FD42464B46FBF7B4FD62
:104D000005E0FBF723FE42464B46FBF71FFE044639
:104D10000E460022284BFBF7A1FE03D84FF0FF30D0
:104D2000014607E00022254B20463146FBF7F5FC03
:104D3000FBF77BFE102409E0002C0ADB0A2200238B
:104D4000FBF73EFA039B30321A55641E50EA01020B
:104D5000F2D1641C039AC4F111031444119A012A7C
:104D600003D0012208430DD10AE0084304D00020FB
:104D70004FF0110B119072E7A3EB0B056D1E0DE0C8
:104D80005B4504DD4FF0000205F1010504E003DAA4
:104D90004FF00002A5F10105002AECD0029811990C
:104DA000C0E90231C0E9004579E700000000144085
:104DB0000000F03F300000000000F0430000E03F42
:104DC0002DE9FF4F95B09B468946064600250FE228
:104DD000252877D100242746F84A0121059400E0D0
:104DE000044316F8013F203B01FA03F01042F7D1CB
:104DF00030782A2811D06FF02F033078A0F13002DC
:104E0000092A16D8059A44F0020402EB820203EB49
:104E100042021044761C0590EFE759F8042B0592E6
:104E2000002A03DA504244F40054059044F002048E
:104E3000761C30782E2816D116F8010F44F00404A1
:104E40002A280DD06FF02F023078A0F13003092B03
:104E500009D807EB870302EB4303C718761CF3E777
:104E600059F8047B761C30786C280FD006DC4C286F
:104E700017D068280DD06A2814D104E0742810D007
:104E80007A280FD10DE044F400140AE044F48014B1
:104E900001E044F440147278824202D104F5801497
:104EA000761C761C307866280BD013DC582877D017
:104EB00009DC002875D04528F6D04628F4D04728CC
:104EC0001AD19DE118E0632835D0642879D065288F
:104ED00012D195E1702873D008DC6728F1D06928D9
:104EE0006FD06E280DD06F2806D1B5E073282CD076
:104EF000752875D0782874D05A46179990476D1C3C
:104F000075E1C4F30250022809D003280DD0D9F866
:104F1000001004280DD00D6009F1040967E1D9F8EB
:104F20000010EA17C1E90052F6E7D9F800100D8029
:104F3000F2E70D70F0E719F8041B8DF8001000205F
:104F40008DF80100EA46012003E059F804AB4FF068
:104F5000FF3061074FF0000102D40DE008F10101BC
:104F60008846B9420FDA8045F8DB1AF808100029A4
:104F7000F4D108E008F1010188468142FADB1AF811
:104F800008100029F6D105985B46A0EB08072146DA
:104F90003846179A00F094FA284400EB080507E019
:104FA0004DE029E10DE01AF8010B5A461799904798
:104FB000B8F10108F7D25B4621463846179A13E14B
:104FC00042E00A220092C4F302524FF0000A022A81
:104FD00008D059F804CB032A4FEAEC710AD00DE04F
:104FE00029E02AE009F1070121F00702F2E802C1F5
:104FF000914609E00FFA8CFC4FEAEC71042A03D1C8
:105000004FFA8CFC4FEAEC71002907DA0A460021BE
:10501000DCF1000C61EB02012D2202E0220504D537
:105020002B228DF80420012203E0E20701D0202288
:10503000F7E7904659E00A2102E010220DE0102126
:105040004FF0000A00910BE010224FF0000A44F0EC
:1050500004040827009203E008224FF0000A00929F
:10506000C4F30252022A05D059F804CB0021032AC6
:1050700008D009E009F1070121F00702F2E802C1B6
:10508000914605E01FFA8CFC042A01D10CF0FF0CBC
:105090004FF00008220728D5702806D0009B83F027
:1050A000100353EA0A0305D00EE040228DF80420D5
:1050B000012208E05CEA010206D030228DF80420CB
:1050C0008DF8050002229046009B83F0080353EA06
:1050D0000A030AD15CEA010201D1620705D5302238
:1050E0008DF804204FF001087F1E582804D034A00A
:1050F00003900EA802900DE036A0F9E753466046F3
:10510000009AFBF75DF884460398825C0298401E83
:10511000029002705CEA0100F0D1029806A9081A18
:1051200000F1200A600702D524F4803400E0012752
:10513000574502DDA7EB0A0000E0002000EB0A0162
:10514000009005984144401A0590E00306D45B4660
:105150002146179A059800F0B3F90544002706E0A8
:1051600001A85A46C05D179990476D1C7F1C4745A2
:10517000F6DBE0030CD55B462146179A059800F054
:105180009FF9054404E030205A46179990476D1C5A
:105190000099481E00900029F5DC08E00298029969
:1051A0005A460078491C0291179990476D1CBAF134
:1051B0000001AAF1010AF1DC65E100000928010003
:1051C000303132333435363738396162636465667D
:1051D000000000003031323334353637383941423F
:1051E000434445460000000000F058F90544761C91
:1051F000307800287FF4ECAD19B02846BDE8F08F78
:10520000620700D4062709F1070222F0070CFCE828
:105210000223E14603F000485FEA080C02D00FF2D7
:10522000702C0DE05FEA045C02D50FF2682C07E0F9
:105230005FEAC47C02D00FF2602C01E0AFF2700C88
:105240004FF0FF3823F00043CDF850C065280CD054
:1052500006DC452809D046281DD047283DD13DE031
:10526000662818D067287ED138E00021112F01DB95
:10527000112000E0781CCDE9000106A90EA8FFF777
:10528000DDFCDDE90F010E9A03910021009207F188
:10529000010A04914DE04FF000400097CDE9011064
:1052A00006A90EA8FFF7CAFCDDE90F0203920E9BC8
:1052B00011990022DDF80CA00093049211B9791C19
:1052C00000EB010AB7EB0A0004D4C0F1FF3007F18C
:1052D000010A0490AAEB0700019044E0012F00DAD4
:1052E00001270021112F01DD112000E03846CDE912
:1052F000000106A90EA8FFF7A1FCDDE90F010E9A37
:105300000391002104910092BA4621070CD403991D
:10531000514500DA8A46BAF1010F05DD009AAAF17B
:105320000101515C302908D0B84202DA10F1040FB3
:1053300006DA0121CDE9011015E0AAF10101E9E742
:10534000002805DC049901440491AAEB000102E065
:10535000411C514500DD8A460499401A401C0190C9
:105360004FF000400290200704D40198504501DB23
:10537000CDF8048000208DF84F0002980DF14F0702
:10538000B0F1004F25D02B200E9002984FF002086C
:1053900000280CDA404202902D200E9007E00A21EE
:1053A0000298FBF785F93031029007F8011DB8F13A
:1053B0000001A8F10108F2DC02980028EFD1791E63
:1053C0000E980870307800F0200040F0450007F893
:1053D000020D12A8C01B00F107081498007800B154
:1053E000012000EB0A01019801EBE07105984144AE
:1053F000401A401E0590E00306D45B462146179AEA
:10540000059800F05DF805441498007818B15A46E4
:10541000179990476D1CE00324D55B462146179AE7
:10542000059800F04DF805441CE00498002807DBBF
:10543000DDE90301884203DD0098405C179901E033
:10544000179930205A469047049805F10105401CF1
:1054500004900198401E019004D12E205A461799BD
:1054600090476D1CBAF10001AAF1010ADDDC05E0EC
:1054700017F8010B5A46179990476D1CB8F10001B7
:10548000A8F10108F4DC5B462146179A0598ABE6C3
:105490002D0000002B000000200000002DE9F0414D
:1054A000044600251E461746880404D405E0394604
:1054B0002020B0476D1C641EF9D52846BDE8F08158
:1054C0002DE9F041044600251E469046C80301D54B
:1054D000302700E02027880404D505E041463846FF
:1054E000B0476D1C641EF9D52846BDE8F0814A68B6
:1054F000002A06D00A68531C0B6010704868401ED2
:1055000048607047FBF7B6FCFDF7A2FAFDF7D0F84C
:10551000FDF7B8F9FDF74EF9FDF7B8F8FDF738F9E2
:10552000FDF77CF9012213491348FDF755FE134995
:105530001148FEF7A0FB124A12490F48FEF760FA25
:105540000D48FEF71BFC4FF47A7442F2107600BF50
:10555000FBF782FCB0FBF4F104FB1105FBF77CFCCC
:10556000B0FBF4F12A4608A000F04EF83046FBF7F5
:1055700063FBEDE72000002068020020700000209F
:1055800000000020440500205B253033642E2530C8
:1055900033645D2D546573740A000000F0B50B3060
:1055A000154D20F007010024144A0FE003688B42D8
:1055B0000BD38B4205D95E1A43184768C3E90067CD
:1055C00000E04368136002C004E0021D1068002878
:1055D000ECD12046002802D1286808B10020F0BD97
:1055E000064A07481060074A121A22F00702C0E96B
:1055F000002401202860D7E7E4010020E00100201A
:1056000064150020601D00200FB4802110B50B48E8
:10561000FBF735F803AB80210848029AFFF7D8FA68
:1056200004460748007828B10449A2B201F180007D
:10563000FEF7F8FA204610BC5DF814FBE8010020E4
:10564000AC00002056312E30300054656D706C6116
:10565000746500555342445F4E45585F4C494E4B6C
:105660005F496E697400555342445F4E45585F4C24
:10567000494E4B5F537461727400555342445F4E00
:1056800045585F4C494E4B5F4465496E69740055FF
:105690005342445F4E45585F4C494E4B5F534F4613
:1056A00000555342445F4E45585F4C494E4B5F4551
:1056B00050305F5278526561647900555342445FBF
:1056C0004E45585F4C494E4B5F4446555F5265719D
:1056D0007565737400555342445F4E45585F4C499D
:1056E0004E4B5F436F6E6669675F52657175657398
:1056F0007400555342445F4E45585F4C494E4B5FD2
:1057000056656E646F725F5265717565737400558E
:105710005342445F4E45585F4C494E4B5F4375734F
:10572000746F6D44657669636552657175657374F0
:1057300000555342445F4E45585F4C494E4B5F43C2
:105740007573746F6D496E746572666163655265D9
:10575000717565737400555342445F4E45585F4CF4
:10576000494E4B5F536574757000555342445F4E0C
:1057700045585F4C494E4B5F4765744366674465C7
:10578000736300555342445F4E45585F4C494E4B3E
:105790005F476574537472446573630000000000D2
:1057A00000000000010203040607080900000000D1
:1057B000010203041F1D1F1E1F1E1F1F1E1F1E1F71
:1057C0004A616E75617279004665627275617279BF
:1057D000004D6172636800417072696C004D6179BF
:1057E000004A756E65004A756C790041756775737E
:1057F000740053657074656D626572004F63746FF9
:10580000626572004E6F76656D6265720044656315
:10581000656D6265720000003858000800000020C5
:10582000E80100008E0B00085C590008E801002028
:10583000782B00002C4C00088105142C01F4011376
:10584000A12F1B08D5041AE1041301301B082504FD
:105850001A7D0C1AAD041704030904120132022642
:1058600040501D6F601C01020346031A1A0313AD5A
:105870003B140849381408E53A42081A990C13E910
:10588000371B08F5045AA914411355396A08044115
:105890005A9D081409023213020125804B09041590
:1058A00002FFFFFF15070581021A04072A02071BE2
:1058B0000904812009FE0101E009210BFF1B081AE0
:1058C0000F1412034D12531246125412311A3002A1
:1058D0002A20B1413B0104BD510008100157494E37
:1058E0005553420A1501183A921D120512013288C9
:1058F0003207122A12441265127612691A630812CC
:1059000049126E1A7408127212663A611212471A1C
:1059100055161244327332501A7B16123112351258
:105920006212341A339612381A2D0612341A640E83
:105930001A2D1A1A31341A360A1A62101A65441AC4
:105940002D0E1A30301A371A12383A391E3A343CB2
:0C5950006A7DAC318210D324F40000000A
:040000050800018965
:00000001FF
