:020000040800F2
:10000000E86F00209D0100087B320008FF2E0008E9
:10001000793200089D070008E95D00080000000033
:10002000000000000000000000000000AF01000818
:100030001909000800000000B3010008B50100081C
:10004000B7010008B7010008B7010008B7010008B0
:10005000B7010008B7010008B7010008B7010008A0
:10006000B7010008B7010008B7010008B701000890
:10007000B7010008B7010008B7010008B701000880
:10008000B7010008B7010008B7010008B701000870
:10009000B7010008B7010008B7010008B701000860
:1000A000B7010008B7010008B7010008B701000850
:1000B000B701000839350008B7010008B70100088A
:1000C000B7010008B7010008B7010008B701000830
:1000D000B7010008C93B0008B7010008B7010008D4
:1000E000B7010008B7010008B7010008B701000810
:1000F000B7010008B7010008B7010008B701000800
:10010000B7010008B701000845350008B70100082D
:10011000B7010008B7010008B7010008B7010008DF
:10012000B7010008B70100085D080008B701000822
:10013000B7010008B7010008B7010008B7010008BF
:10014000B7010008B7010008B7010008B7010008AF
:10015000B7010008B701000869080008B7010008E6
:10016000B7010008B7010008B7010008B70100088F
:10017000B70100087D320008B70100080000000048
:10018000B7010008B7010008DFF80CD000F05AFAF8
:1001900000480047E1680008E86F002006488047F3
:1001A00006480047FEE7FEE7FEE7FEE7FEE7FEE75C
:1001B000FEE7FEE7FEE7FEE72935000889010008B3
:1001C0002DE9F05F0546002092469B46884606468C
:1001D000814640241BE0284641464746224600F01F
:1001E00069F853465A46C01A914110D31146184631
:1001F000224600F050F82D1A67EB01084F462246C0
:100200000120002100F047F817EB00094E41201EA5
:10021000A4F10104DFDC484631462A464346BDE8E6
:10022000F09F40EA01039B0703D009E008C9121FB1
:1002300008C0042AFAD203E011F8013B00F8013BA0
:10024000521EF9D27047D2B201E000F8012B491ECC
:10025000FBD270470022F6E710B513460A46044663
:100260001946FFF7F0FF204610BD30B50B4601469A
:1002700000202022012409E021FA02F59D4205D345
:1002800003FA02F5491B04FA02F52844151EA2F1EF
:100290000102F1DC30BD202A04DB203A00FA02F131
:1002A000002070479140C2F1200320FA03F3194364
:1002B00090407047202A04DB203A21FA02F0002106
:1002C000704721FA02F3D040C2F120029140084366
:1002D000194670472DE9FE4F804681EA0300C00FA2
:1002E0000C46009021F0004123F00045B8EB0200DD
:1002F000A94105D24046214690461C460B4602467F
:1003000023F00040104347D0270DC7F30A00C3F382
:100310000A510290401A019040286BDAC3F313008F
:1003200040F4801B0098924620B10023D2EB030AD0
:1003300063EB0B0B01985946C0F140025046FFF7A2
:10034000AAFF06460D4650465946019A00F08CF920
:1003500010EB08006141002487EA115284EAE77338
:100360001A4340D0009A62B3019A012A4FEA075219
:1003700015DC001B61EB02014FF0004202EA07525C
:10038000CDE90042001C41F5801132462B4600F0B9
:100390008CF903B0BDE8F08F40462146F9E7001B19
:1003A00061EB0201001C41F5801300185B4120182D
:1003B000A2F5001747EB030140EAD570B6196D416D
:1003C00011E06D084FEA360645EAC0754FEA07525C
:1003D000001B61EB0201001C41F5801149084FEA46
:1003E00030000019514132462B4603B0BDE8F04FB2
:1003F00000F04CB90098012240000023D0EB02022B
:1004000063EBE073009821464FEAE074B8EB00001C
:1004100061EB0401E9E783F000435BE781F0004111
:1004200058E72DE9FE4F81EA030404F0004421F06F
:10043000004100944FF0000B23F0004350EA010408
:100440005ED052EA03045BD0C3F30A54C1F30A55E9
:100450002C44A4F2F3340194A0FB0254C1F3130121
:1004600041F48011C3F3130343F4801301FB0244EE
:1004700000FB034E840A970A44EA815447EA8357F3
:10048000A4FB076802958D0A05FB07854FEA932CAC
:1004900004FB0C542705029D4FEA065847EA16371D
:1004A000B5EB08056EEB070C870E920E47EA811735
:1004B00042EA8312A7FB0201B6EB0B0164EB0004D6
:1004C0002B0D43EA0C335E1844EB1C50DA465146C0
:1004D000E7FB0201C5F313044FEA0B3343EA14535D
:1004E0004FEA0432019C43EA0603A4F10C0402948F
:1004F000009CCDE900B400F0D8F803B0BDE8F08F5F
:1005000000200146F9E72DE9F04D81EA030404F0EB
:10051000004B21F0004514464FF0000A23F0004143
:1005200050EA050220D054EA01021DD0C5F30A5753
:100530000246C5F31303C1F31300C1F30A5640F496
:10054000801543F48013A7EB0608101BD64608F26B
:10055000FD3873EB050002D308F1010801E09218A1
:100560005B41B8F1000F03DA00200146BDE8F08DD1
:1005700000204FF48011064684460EE0171B73EBF3
:10058000050705D3121B63EB050306434CEA010C78
:1005900049084FEA300092185B4150EA0107EDD15B
:1005A00052EA030012D082EA040083EA05010843FC
:1005B00005D0101BAB4106D20122002306E0002229
:1005C0004FF0004302E06FF0010253101AEB0600F7
:1005D0004CEB085110EB0A0041EB0B01BDE8F04D6C
:1005E00000F054B8C1F30A52C1F3130140F2FF33D3
:1005F00041F480119A4202DA00200146704740F22D
:1006000033439A42A2F2334202DC5242FFF752BE17
:10061000FFF741BE30B5041E71F1000404DB4FF05A
:100620000044404264EB0101141E73F1000405DB39
:100630001C464FF00043524263EB0403994208BF4B
:10064000904230BD064C074D06E0E06840F00103E3
:1006500094E8070098471034AC42F6D3FFF798FDB2
:10066000206B0008406B0008202A06DBCB17203ADD
:1006700041FA02F043EAE07306E041FA02F3D040A7
:10068000C2F12002914008431946704710B5141E6C
:1006900073F1000408DA401C41F1000192185B413B
:1006A0001A4301D120F0010010BD2DE9F04D924612
:1006B0009B4611B1B1FA81F202E0B0FA80F2203229
:1006C0009046FFF7E8FD04460F4640EA0A0041EA7B
:1006D0000B0153465A46084313D0114653EA010012
:1006E00019D0C8F140025046FFF7E4FD05460E461A
:1006F000504659464246FFF7CEFD084305D001203B
:1007000004E020463946BDE8F08D0020054346EA66
:10071000E0762C4337430A986305E40AA0EB08000F
:100720000022FD0A44EA47540A3002D5002001465F
:10073000E9E7010510196941DDE90845001969413A
:10074000BDE8F04DA2E770B58C1810F8015B15F00C
:10075000070301D110F8013B2A1106D110F8012B33
:1007600003E010F8016B01F8016B5B1EF9D12B0758
:1007700005D40023521E0DD401F8013BFAE710F80E
:10078000013BCB1A921C03E013F8015B01F8015BFB
:10079000521EF9D5A142D8D3002070BDFEE700203B
:1007A0007047002070470000084810B50849D0F88D
:1007B000CC02002208600749044803F01DFC0649EA
:1007C000024803F00CFC002010BD00009002002045
:1007D000E40100207C1A00207C12002010B50446A1
:1007E000088881B2204600F01BF82146034803F038
:1007F000F6FB024803F0C0FB002010BD9002002071
:100800000021002809D001E0491C89B2425C002A7D
:10081000FAD1002901D000F003B8704700207047DA
:100820000C4A30B4146814B1D4F8142212B130BC9C
:100830000120704704F50473012206C3C4F80802BE
:10084000054A0B465165024630BC8321024804F03C
:100850000DBA0000E401002090020020014800F0E1
:10086000DFB80000740F0020014800F0D9B8000084
:10087000D40F002001681823CAB2103AB2FBF3F279
:10088000054B6FF30901032A9B5CC36500D9091D61
:100890008165084670470000006B000810B50146EE
:1008A00000208B698A6A4FF0C07453B1B3F5005FC2
:1008B00015D072B1012A0CD0022A0AD0032A09D11C
:1008C00004E01AB1012A06D0022A03D1C96AC9017B
:1008D00000D5012010BDC96AA142FAD010BD002A7E
:1008E000F7D0012AF2D0022AF3D0032AF3D010BDA8
:1008F00030B50468256825F48025256004686360A8
:100900008368402B036803D099600068C26030BDE3
:100910009A600068C16030BD704772B6FEE710B5DE
:10092000040002D0607910B106E0012010BD002063
:100930002071204600F004F801206071002010BDF5
:1009400008B500680649884208D10648016841F4A4
:1009500080510160006800F48050009008BD0000E4
:1009600000300240303802402DE9F0410446876DE6
:1009700000F0D8FA064694F835000025022806D083
:100980008020606584F834500120BDE8F081206843
:10099000016821F0160101602068416921F08001A1
:1009A0004161206C08B9A06C20B12068016821F079
:1009B000080101602068016821F0010101600CE07C
:1009C00000F0B0FA801B052807D9202060650320BD
:1009D00084F8350084F83450D7E720680068C007F1
:1009E000EED194F85C103F208840B860012084F874
:1009F000350084F834500020C7E790F835100229FC
:100A000003D08021416501207047052180F8351011
:100A10000068016821F001010160002070470000BA
:100A20002DE9F84304464FF00009CDF800906348E3
:100A30004FF41651A56D0068B0FBF1F72E6894F8DD
:100A40005C10082000FA01F131420FD021680A68D9
:100A500052070BD50A6822F004020A6094F85C1071
:100A60008840A860606D40F00100606594F85C10FB
:100A70004FF0010808FA01F0304208D021684969B6
:100A8000090604D5A860606D40F00200606594F826
:100A90005C1004208840304208D02168096889072A
:100AA00004D5A860606D40F00400606594F85C10A7
:100AB00010208840304218D021680968090714D5F1
:100AC000A86020680168490304D50068000308D5C0
:100AD000A16C07E00168C90503D4016821F0080191
:100AE0000160216C09B12046884794F85C102020F1
:100AF0008840304231D021680968C9062DD5A860E8
:100B000094F8350005282068016806D0490347D5C8
:100B1000006800031DD4616C1CE021F01601016027
:100B20002068416921F080014161206C08B9A06C06
:100B300020B12068016821F00801016094F85C1080
:100B40003F208840A86084F8358084F83490216D77
:100B50001FE0E16B09B120468847606D00282BD06B
:100B6000606DC00714D0052084F835002068016846
:100B700021F0010101600098401C0090B84203D8A8
:100B800020680068C007F6D184F8358084F8349076
:100B9000E16C002910D001B02046BDE8F0430847C1
:100BA0000168C905D5D4016821F01001016084F8FD
:100BB000358084F83490CCE7BDE8F8835C020020EF
:100BC0002DE9F041044600F0ADF906465CB1022083
:100BD00084F83500002584F834502068016821F03D
:100BE000010101600DE00120BDE8F08100F09AF9FB
:100BF000801B052805D920206065032084F8350076
:100C0000F2E720680068C007F0D122681168204828
:100C10000140D4E901031843D4E9033633431843B0
:100C200063691843A3691843E3691843236A1843A7
:100C30000843616A042903D1D4E90B13194308431B
:100C4000106020684069666A20F0070130460E4354
:100C5000012704280CD1A06A0643E06A40B120466F
:100C6000FFF71CFE20B14020606584F83570BAE7BC
:100C7000206846612046FFF7FDFD94F85C203F2187
:100C800091408160656584F835700020ACE7000014
:100C90003F8010F02DE9F0410446866D90F8340055
:100CA000002501280DD0012084F8340094F8357017
:100CB0000020012F07D084F8340002252846BDE823
:100CC000F0810220FBE7022784F83570606520463A
:100CD000FFF70EFE94F85C103F208840B06020685B
:100CE000016841F016010160206C20B120680168A4
:100CF00041F0080101602068016841F001010160D4
:100D0000DCE7000070B5044600F00CF90546601CF5
:100D100002D004480078044400F004F9401BA042CB
:100D2000FAD370BD500200202DE9F84FDFF8BCA1C6
:100D30000022012503264FF00F090AF1040BAAF146
:100D4000040E00BF0B6805FA02F42340A34270D1E1
:100D50000F7907F00307012F01D0022F16D1876802
:100D60004FEA420806FA08FC27EA0C07D1F80CC043
:100D70000CFA08FC4CEA070CC0F808C04768A74307
:100D80000C79C4F3001494403C4344600C79E44370
:100D9000A4070AD0C4684FEA420C06FA0CF7BC4319
:100DA0008F6807FA0CF72743C7600C7904F0030437
:100DB000022C12D1D40800EB840CDCF82040570739
:100DC000FF0E09FA07F824EA0804D1F8108008FA9F
:100DD00007F848EA0408CCF8208004684FEA420C7F
:100DE00006FA0CF7BC430F7907F0030707FA0CF774
:100DF000274307604C6814F4403F70D03C4C276890
:100E000047F480472760246822F0030704F48044F5
:100E10000094384C07EB040CDCF8084897074FEABD
:100E2000177809FA08F7BC43334FB84202D10027BC
:100E300024E054E0314FB84201D101271EE0304F89
:100E4000B84201D1022719E02E4FB84201D1032741
:100E500014E02D4FB84201D104270FE02B4FB842C8
:100E600001D105270AE02A4FB84201D1062705E043
:100E7000284FB84201D1072700E0082707FA08F7F2
:100E80002743CCF80878DAF800405746D1F804C078
:100E90009C435FEACC2C00D51C433C60DBF800404F
:100EA0005F46D1F804C09C435FEA8C2C00D51C43FC
:100EB0003C60DEF800407746D1F804C09C435FEA0E
:100EC0008C3C00D51C433C60084F083F3C68D1F87F
:100ED00004C09C435FEACC3C00D51C433C60521CE0
:100EE000102AFFF42FAFBDE8F88F0000083C014046
:100EF000443802400030014000000240000402403B
:100F000000080240000C02400010024000140240A1
:100F100000180240001C02400AB1816170470904B8
:100F2000FBE7000001488068704700005002002085
:100F300002488168027811448160704750020020A5
:100F40000B4810B5016841F400710160016841F47B
:100F500080610160016841F480710160032000F04C
:100F60008DF80F2000F006F800F03EF8002010BDCC
:100F7000003C024010B5014688B00022322000F04B
:100F80005DF8322000F04CF813480024016841F06D
:100F900008010160006805A900F008000690684695
:100FA00000F050FF00F074FF0C494000B0FBF1F17D
:100FB0000C480B4A491E026040F2E732C0E90324A4
:100FC000C0E9011401F00CFB10B1012008B010BD04
:100FD000044801F05DFBF9E74038024040420F0051
:100FE000000C0040341000200C4882B0016841F42D
:100FF00080410160006800F4804000900748001FB5
:10100000016841F0805101600068002200F08050CA
:1010100000900F21901E02B000F010B8443802403A
:10102000002809DB00F01F020121914040098000E7
:1010300000F1E020C0F8001170470000F0B40E4B42
:101040001B680C46C3F30223C3F10705042D00D926
:101050000425191D072901D2002300E0DB1E01260B
:1010600006FA05F1491E214099409E40761E164021
:101070003143F0BC04F0D2BE0CED00E0064900F0B4
:10108000070208684FF6FF03184040EA0220034AAF
:1010900010430860704700000CED00E00000FA0506
:1010A000BFF34F8F05480168054A01F4E061114321
:1010B0000160BFF34F8F00BFFDE700000CED00E0C3
:1010C0000400FA0570470068416200207047F0B5DF
:1010D0000368586A39B19C6A4FF4827600EB144475
:1010E00000204D1E0AE040EA024098620FE006EB45
:1010F0008007DF59401C04EB1744C0B2A842F6D366
:1011000044EA02404FF4807202EB81015850002003
:10111000F0BDD0F8080503F02CBC01EBC10200EBD8
:101120008202D0F80805D26C03F056BB01EBC10275
:1011300000EB8202D0F80805D2F88C2203F0B3BB92
:10114000D0F8080503F018BC0A0601F00F0101EB06
:10115000C10100EB810101D53C3101E001F51F71B6
:10116000006804F089BC70B504460B0601F00F005E
:1011700000EBC00104EB81014FF001024FF00005CC
:1011800003D581F83D203C3103E081F87D5201F523
:101190001F71087094F8BC04012808D084F8BC249E
:1011A000206804F023F984F8BC54002070BD0220AC
:1011B00070BD70B5044601F00F006268904201D91D
:1011C000012070BD0B0601F00F0101EBC10104EB22
:1011D00081014FF001024FF0000503D581F83D2059
:1011E0003C3103E081F87D5201F51F718D7008706C
:1011F00094F8BC04012808D084F8BC24206804F0CA
:10120000F1FA84F8BC54002070BD022070BD01F0DA
:101210000F0101EBC10100EB8100D0F89C02704787
:101220002DE9F04104460F0601F00F0000EBC0016C
:1012300004EB81014FF001064FF0000503D581F862
:101240003D603C3103E081F87D5201F51F7108706B
:10125000CA600B714A7802B10881022B00D14D712E
:1012600094F8BC04012809D084F8BC64206804F018
:1012700015F8284684F8BC54BDE8F0810220FBE74D
:1012800070B50C4601F00F0505EBC50100EB8101BF
:10129000C1F89432C1F88C220023C1F89C3281F845
:1012A0007D3281F87C52036901F51F71012B00D159
:1012B0004A612207027C006803D004F0EBFA0020A8
:1012C00070BD04F0D5F9FAE770B504460D4601F09B
:1012D0000F006168884201D9012070BD29064FF0D6
:1012E00000064FF0010207D500EBC00104EB8101BD
:1012F00081F83D203C3107E005EBC50104EB81019D
:1013000081F87D6201F51F718A70087094F8BC0441
:10131000012807D084F8BC24206804F08FFA28073D
:1013200002D007E0022070BD217C04F2C442206894
:1013300004F02CFA84F8BC64002070BD70B50C4633
:1013400001F00F0505EBC50100EB81014B65CA6497
:101350000023CB65012381F83D3001F83C5F036930
:10136000012B00D14A612207027C006803D004F0FF
:1013700091FA002070BD04F07BF9FAE72DE9FC5FDB
:1013800005680446284604F018FC00287DD1206832
:1013900004F03FFC002878D0D5F80808C0F30D20F1
:1013A000C4F8FC04206804F034FC800704D52068ED
:1013B000416901F002014161206804F02AFCC10684
:1013C00004F2C440009034D52068816921F01001F6
:1013D00081612F6A07F00F0000EBC00004EB80066C
:1013E000C7F3434006F51F76022802D0062811D025
:1013F0001AE047F6F070074216D0C7F30A121746F4
:101400002846316904F009FC306938443061306A9B
:10141000384408E008222846009904F0FEFB306AB0
:10142000C7F30A11084430622068816941F0100155
:101430008161206804F0EDFB00034FF0080B4FF0D2
:10144000000A4FF001097CD50026206804F0C0FB9B
:10145000074674E0F80770D0F1B2206804F0D1FBC1
:101460008046C00707D005EB4611C1F8089B3146FE
:10147000204601F009FF5FEA087024D505EB46110C
:10148000C1F808BB2068016C00E025E200EB4610C3
:101490000191D0F8082BFC4B994205D9110403D5D2
:1014A0004FF40041C0F8081B204600F02FFBF6491E
:1014B0000198884207D92069012804D120680121B8
:1014C000009A04F063F95FEAC86004D505EB4611A1
:1014D0001020C1F8080B5FEA88701DD56869000606
:1014E00005D5D5F8040840F48061C5F8041806EB6A
:1014F000C60004EB800090F87F1200F51F700129F0
:1015000005D180F803A0F1B2204600F0EBF905EB1D
:1015100046110220C1F8080B5FEA886004D505EB8C
:1015200046102021C0F8081B5FEA884005D505EB6E
:1015300046104FF40051C0F8081B7F08761C002F9E
:1015400088D1206804F065FB40036FD5206804F063
:1015500038FB0746002667E0F80763D0F1B2206841
:1015600004F03DFB8046C00723D006F00F0209FAC5
:1015700002F0D5F834288243C5F8342805EB46102C
:10158000C0F80899206901280FD106EBC60004EBCA
:101590008000D0E912211144C16436B9606D20B9D0
:1015A00020680121009A04F0F1F8F1B22046FFF71B
:1015B000B4FD5FEA087003D505EB4611C1F808B920
:1015C0005FEAC86004D505EB46111020C1F8080990
:1015D0005FEA486004D505EB46104021C0F80819C1
:1015E0005FEA887017D53146284604F0B9FA06EB51
:1015F000C60004EB800090F83F103C30012905D173
:1016000080F803A0F1B2204600F068F905EB46111E
:101610000220C1F808095FEA086003D53146204678
:1016200001F098FE7F08761C002F95D1206804F009
:10163000F0FA002811DAD5F8040820F00101C5F805
:10164000041894F8F40401282BD0204600F042FA44
:101650002068416901F000414161206804F0D9FA35
:1016600000050BD5D5F80808C00702D0204600F0C9
:1016700099FA2068416901F400614161206804F031
:10168000C8FAC00466D5D5F8040820F00100C5F8F2
:1016900004081021206804F063FA00214FF67F321D
:1016A0001FE084F8F4A400212046FFF70BFDCFE7EC
:1016B00005EB4110C0F80829D0F8003923F40013D5
:1016C000C0F80039C0F8082BD0F8003B23F4001311
:1016D000C0F8003BD0F8003B43F00063C0F8003B8B
:1016E000491C60688842E3D8D5F81C0840F0011115
:1016F000C5F81C18206B002828460DD0D0F88408A7
:1017000040F00B01C5F88418D5F8440840F00B01EF
:101710002846C5F844180DE0D0F8140842F22B0111
:101720000843C5F81408D5F8100840F00B01284606
:10173000C5F81018D0F8000820F4FE61C5F80018AC
:10174000217C2068009A04F021F82068416901F4A6
:1017500080514161206804F05CFA800415D520684E
:1017600003F0DCFD206804F01BFAE06000F08AFB67
:101770000146227B206804F0AFFA204600F094F97D
:101780002068416901F400514161206804F041FA88
:10179000000707D5204600F0A1F92068416901F053
:1017A00008014161206804F034FA000616D5A869E2
:1017B00020F08000A86101260DE000BF06EBC60006
:1017C00004EB800090F87F02012803D1F1B220469B
:1017D000FFF7BAFC761C6068B042EFD8206804F0CE
:1017E00018FAC00221D501264F4616E005EB461037
:1017F000D0F8001906EBC60004EB800090F84020FA
:10180000012A09D1002907DA80F83F70F0B240F0D0
:1018100080012046FFF798FC761C6068B042E5D84E
:101820002068416901F480114161206804F0F1F9F8
:10183000800234D501204B4629E000BF05EB401162
:10184000D1F8001B00EBC00204EB820696F8802260
:10185000012A1BD1002919DA94F8FC2401F4803103
:1018600002F00102914211D186F87F32A96941F05C
:101870008002AA616969090608D4D5F8040840F411
:101880000070C5F8040805E00A30544F401C616838
:101890008142D3D82068416901F400114161206878
:1018A00004F0B7F9400007D52046FFF732FC206866
:1018B000416901F080414161206804F0AAF94007C4
:1018C0000AD520684568680702D52046FFF738FC2E
:1018D0002068416829434160BDE8FC9FD0F80805B5
:1018E00003F0C0B8D0F8080503F0D0B82DE9F041F6
:1018F0008AB0040005D094F8BD042668002520B104
:1019000008E001200AB0BDE8F08184F8BC5420460C
:1019100000F05EF8032084F8BD04F06BC00500D42D
:101920002561206803F09EFE04F1100128228846FC
:101930006846FEF776FC94E80F0003F0FDFC0226F3
:10194000C8BB0021206804F087F9002001270EE0C1
:1019500000EBC00104EB810181F83D7001F83C0F00
:1019600008810D71CD600D61401CC0B28D61616850
:101970008142EDD8002011E000EBC00104EB8101B1
:1019800081F87D5281F87C0281F88052C1F888523A
:10199000C1F88C52401CC0B2C1F8945261688142B7
:1019A000EAD8282241466846FEF73BFC94E80F003F
:1019B00003F09EFD10B184F8BD64A2E784F83850AE
:1019C00084F8BD74206803F085FD00209AE70000CC
:1019D0002DE9F04186B0044614216846FEF73AFC32
:1019E0002C492068884251D12B4C4FF000082068C8
:1019F00040F004002060206800F00400059020689A
:101A000040F001002060206800F00100059020688F
:101A100040F0020020602068022500F002000590DE
:101A20000D208DE8210103260A2769461B48CDE9D0
:101A30000367FFF779F928208DE8210169461848E6
:101A4000CDE90367FFF770F943F623408DE82101E4
:101A500069461448CDE90367FFF766F9206840F04E
:101A600000502060206800F000500590206840F091
:101A7000804020602068002200F080400590052111
:101A80004D20FFF7DBFA4D20FFF7CAFA06B0BDE89C
:101A9000F08100000000044030380240000802409D
:101AA000000002400004024070B50446C0680125F1
:101AB00070B1022801D0FEF730FF2946D4F808059E
:101AC00003F07DF8D4F80805BDE8704003F008B8CD
:101AD0000025F2E7D0F8080503F043B8D0F8080570
:101AE00003F04AB810B5044690F8BC0401280BD0A6
:101AF000012084F8BC0484F83810206804F0DAF877
:101B0000002084F8BC0410BD022010BD2DE9F04176
:101B100000F2C441D0F80845054604F2AA200F4659
:101B2000064603F064F994F8AA120020C90603D10E
:101B30003146204603F0A4F894F8AA1201F01F01E0
:101B4000012903D13146204603F0BAF8002806D116
:101B50003946D5F80805BDE8F04103F03CB8BDE8CA
:101B6000F08110B50446006894F8BC14012906D031
:101B7000012184F8BC14A16A012902D008E00220E6
:101B800010BDA169012903D0816B41F480318163CB
:101B9000206803F0C0FF206803F08EFC002084F86A
:101BA000BC0410BD10B50446D0F8080503F055F884
:101BB0002068D0F8001E41F00101C0F8001E206A24
:101BC000002804D00248016841F00601016010BD00
:101BD00010ED00E02DE9F843054600684FF00109DB
:101BE000C1074FF0000601D1400727D5DFF80C816F
:101BF000C8F86860FFF796F90746414C05E000BF5A
:101C0000FFF790F9C01B022857D820680001F7D4CD
:101C100068688101287A41EA007039498431086096
:101C2000C8F86890FFF77EF9074604E0FFF77AF9F5
:101C3000C01B022841D820680001F7D5287880070A
:101C400052D52F484030016841F080510160006852
:101C50002C4C00F080500090206840F48070206090
:101C6000FFF760F9074604E0FFF75CF9C01B0228A4
:101C700023D82068C005F7D5214C7034206810F4B3
:101C8000407020D0A98901F4407181421BD02068A6
:101C90001D4920F44070C1F800900E60206020685B
:101CA000C00710D0FFF73EF9064641F2883707E03B
:101CB000FFF738F9801BB84202D90320BDE8F8834A
:101CC00020688007F4D5E9680D48C1F30122083087
:101CD000032A0BD0016821F4F81101602068A9895A
:101CE000C1F30B01084320600020E7E70268074BBF
:101CF00022F4F81219400A430260EFE7000047425D
:101D00000038024000700040400E4742FFFCFF0FC9
:101D10002DE9F0470E46050065D0DFF81481D8F8AC
:101D20000000F7B200F00700B04207D288F8007058
:101D3000D8F8000000F00700B04254D128683D4CAC
:101D4000810712D5400703D5206840F4E050206099
:101D50002878000703D5206840F4604020602068A0
:101D6000A96820F0F000084320602878C0072DD033
:101D7000304968680839012812D0022813D0032896
:101D800011D00968890700292DDA216821F00301A3
:101D900001432160FFF7C6F8814641F2883A0EE020
:101DA00009688903EFE709688901ECE7FFF7BAF8EA
:101DB000A0EB0901514502D90320BDE8F087206856
:101DC000696800F00C00B0EB810FEFD1D8F800107B
:101DD000404601F00701B14207D90770006800F0E2
:101DE0000700B04201D00120E7E72878400705D579
:101DF0002068E96820F4E050084320602878000754
:101E000006D52068296920F4604040EAC1002060BE
:101E100000F05EF82168084AC1F30311515CC84024
:101E20000649086006480068FFF7A4F80020C4E7E8
:101E3000003C024008380240086B00085C020020A9
:101E4000540200200F2202600C4A136803F00303BF
:101E50004360136803F0F0038360136803F4E053F6
:101E6000C36012684FF4E05303EAD20202610448EF
:101E7000006800F007000860704700000838024062
:101E8000003C024001480068704700005C020020EE
:101E90000448054900680968044AC1F38221515C7D
:101EA000C84070475C02002008380240186B0008E8
:101EB0000448054900680968044AC1F34231515C8D
:101EC000C84070475C02002008380240186B0008C8
:101ED000154810B5006810F00C02144813D04110DA
:101EE000042A0FD0082A0ED10F4C241F2268236821
:101EF00002F03F025B0207D52068C0F38810A0FB08
:101F0000010106E0084610BD2168C1F38811A1FB5C
:101F100000010023FEF754F92168C1F30141491C77
:101F20004900B0FBF1F010BD083802400024F40075
:101F30002DE9F84F04006ED02078DFF84C93C007ED
:101F4000A9F104054AD009F104000168C1F3810137
:101F5000012908D00068C0F3810002280AD1D9F80D
:101F60000000400206D52868800337D56068002845
:101F7000E1D033E06068B0F5803F10D0B0F5A02F1D
:101F8000286810D020F480302860286820F4802051
:101F900028606068A8B1FEF7C5FF06460DE0286816
:101FA00040F48030F4E740F480202860F7E700BF79
:101FB000FEF7B8FF801B642873D828688003F7D524
:101FC0000CE0FEF7AFFF064605E000BFFEF7AAFFF4
:101FD000801B6428F0D828688003F7D42078DFF8C5
:101FE000AC8280074FF0000A3ED5A748001D01686B
:101FF00011F00C0F08D00068C0F3810002280BD14B
:10200000D9F80000400207D42868800716D5E06898
:10201000012800D112E033E1E068B8B10120C8F82E
:102020000000FEF77FFF064605E000BFFEF77AFFDF
:10203000801B0228C0D828688007F7D52868216946
:1020400020F0F80040EAC10028600DE0C8F800A0C8
:10205000FEF768FF064604E0FEF764FF801B0228D7
:102060001FD828688007F7D42078000722D5864F2C
:1020700087486169703771B101210160FEF752FF35
:10208000064604E0FEF74EFF801B022809D8386898
:102090008007F7D50EE0C0F800A0FEF743FF064624
:1020A00005E082E0FEF73EFF801B02287DD83868FD
:1020B0008007F7D42078400768D5DFF8CCB1002737
:1020C0000BF13C0BDBF80000C0000BD4DBF8001078
:1020D00041F08051CBF80010DBF80000012700F040
:1020E000805000906B4E3068C00510D4306840F4CA
:1020F00080703060FEF716FF009005E0FEF712FFDB
:102100000099401A022850D83068C005F6D55E4EB6
:10211000A0686C3601280FD00528306810D020F058
:1021200001003060306820F004003060A068B8B171
:10213000FEF7F8FE00900FE0306840F00100F4E791
:1021400040F004003060F7E7FEF7ECFE0099411A1A
:1021500041F28830814266D830688007F4D50EE0BD
:10216000FEF7E0FE009007E0FEF7DCFE0099411A62
:1021700041F28830814256D830688007F4D42FB1BC
:10218000DBF8001021F08051CBF80010A069C8B333
:102190003D49091D0968C1F3810102294AD002287D
:1021A000504607D0C8F8600000E03CE0FEF7BAFEF9
:1021B00004463BE04746C8F86000FEF7B3FE06461B
:1021C00005E000BFFEF7AEFE801B02282BD8286872
:1021D0008001F7D4D4E907010843A16A2E4A4908CF
:1021E00002EB0141626A41EA8211084394F82C1023
:1021F00040EA0161C9F8001001203866FEF792FE3E
:10220000044606E03EE000BFFEF78CFE001B0228FD
:1022100009D828688001F7D534E000BFFEF782FEB8
:10222000001B022802D90320BDE8F88F286880012E
:10223000F4D427E00128F7D0D9F80000E26900F4CF
:10224000800191421CD1226A00F03F01914217D1D6
:1022500047F6C071626A0140B1EB821F10D1A26AD9
:102260004FF0FF3300F4403103EB5202B1EB024F69
:1022700006D194F82C1000F07060B0EB016F01D023
:102280000120D1E70020CFE7043802400000474298
:10229000800E4742007000400000FFFF70B5040050
:1022A00003D06079002510B105E0012070BD2571D3
:1022B000204600F00DF8022060712068016841F0AE
:1022C0000401016001206071A560002070BD000064
:1022D00008B500680649884208D10648016841F0FF
:1022E00040010160006800F04000009008BD00005F
:1022F000000806503438024010B5040002D0607F58
:1023000010B106E0012010BD00202077204600F02B
:1023100039F8022060772168CA204862216853207A
:102320004862204601F074F830BB20688168144A86
:10233000114081602168886862681043D4E90423F1
:102340001A43104388602168E068086120680169C9
:10235000228941EA02410161204601F07DF858B925
:1023600021680A6C22F480220A6421680A6CA3693D
:102370001A430A64012161772268FF21516210BD6E
:10238000BFFF8FFF1FB500210091019102910391C2
:102390000068084988420CD1022000900002039096
:1023A0006846FFF717FC08B1FEF7B7FA02490120AB
:1023B00008601FBD002800403C0E474270B504462F
:1023C000007F0B46012819D001262677022060776E
:1023D000B2B19878D97840EA014558781978000266
:1023E00040EA413005432168CA20486221685320F1
:1023F0004862204601F00CF8D0B122E0022070BD06
:102400005878C10603D500F0EF000A305870D8782C
:1024100000F0F1FF0204587800F0EDFF42EA0022DC
:10242000987800F0E8FF0243187842EA4035DAE78E
:102430000748054020684560204601F00DF800B9C6
:1024400066772268FF2151620021217770BD00006C
:102450003FFFFF002DE9F0410446007F0D460128B3
:1024600023D04FF0010884F81C8002206077206898
:10247000002780684FEA4060D2B1002800DBEF708F
:10248000A878297840EA01466878E978000240EAAD
:10249000815006432168CA2048622168532048625F
:1024A000204600F0B5FFB8B12CE00220BDE8F08175
:1024B000002800DBEF70287800F09DFF02046878A8
:1024C00000F099FF42EA0022A87800F094FF02434E
:1024D000E87842EA8056DDE70D480640206806604D
:1024E0002068816821F480218160D5E903010843D7
:1024F00021688A6810438860204600F0ADFF08B963
:1025000084F81D802268FF2151622777CEE7000002
:102510007F7F7F0070B504460068C16821F0A0018C
:10252000C160FEF7FFFC05464FF47A7607E000BF76
:10253000FEF7F8FC401BB04201D9032070BD2068B3
:10254000C0688006F4D5002070BD70477047000059
:1025500070B590F83C20012A32D0012480F83C402C
:10256000022280F83D2003685A689D6822F07006B8
:102570000A6832435A60134B02689A4214D0B2F18F
:10258000804F11D0104B9A420ED0104B9A420BD074
:102590000F4B9A4208D00F4B9A4205D00E4B9A42ED
:1025A00002D00E4B9A4204D1496825F080031943AA
:1025B000916080F83D40002180F83C10084670BDD5
:1025C000022070BD000001400004004000080040EF
:1025D000000C004000040140004001400018004091
:1025E00010B5040003D094F83D0010B107E00120BD
:1025F00010BD002084F83C00204600F01FF80220A7
:1026000084F83D00211D206800F0A2FF012084F81D
:10261000460084F83E0084F83F0084F8400084F8C7
:10262000410084F8420084F8430084F8440084F8B0
:10263000450084F83D00002010BD000008B5114A97
:1026400001681148914211D1016841F00201016015
:102650000068002200F00200009005211D20FEF716
:10266000EDFCBDE808401D20FEF7DABC074A9142A8
:1026700007D1016841F080010160006800F080002E
:10268000009008BD0004004040380240001C00409B
:1026900090F83D10012901D001207047022180F8F7
:1026A0003D100168CA6842F00102CA600068114921
:1026B000884214D0B0F1804F11D00F4988420ED01B
:1026C0000E4988420BD00E49884208D00D498842F5
:1026D00005D00D49884202D00C49884204D1816856
:1026E00001F00701062903D0016841F001010160F2
:1026F0000020704700000140000400400008004036
:10270000000C00400004014000400140001800405F
:1027100070B5044690F83C000025012817D001262A
:1027200084F83C60022084F83D002068826822F032
:10273000770222F47F4282600868502838D00DDC8E
:1027400020284FD005DC90B3102811D14AE0022098
:1027500070BD302846D040280AD13BE060282FD0F9
:1027600070280DD0B0F5805F03D0B0F5005F12D0B7
:10277000012584F83D60002084F83C00284670BDA7
:10278000CB68D1E90121206800F046FF206881680C
:1027900041F0770109E0CB68D1E90121206800F020
:1027A0003BFF2068816841F480418160E1E719E0E6
:1027B000CA684968206801F003F85021206806E0E3
:1027C000CA684968206801F00CF86021206800F0B0
:1027D0002DFFCEE7CA684968206800F0F1FF40216C
:1027E0002068F4E7226801461046F0E7704770B5AC
:1027F0000446006801694FF00005C943890715D4F4
:10280000C168C943890711D4E91E016101202077FD
:10281000206880698007204602D0FFF7E7FF04E0C8
:1028200000F0C2F8204600F054F9257720680169CD
:10283000C943490717D4C168C943490713D46FF086
:1028400004010161022020772068806910F4407F34
:10285000204602D0FFF7CAFF04E000F0A5F82046AA
:1028600000F037F9257720680169C943090716D4B4
:10287000C168C943090712D46FF00801016104203F
:1028800020772068C0698007204602D0FFF7AEFF9E
:1028900004E000F089F8204600F01BF92577206855
:1028A0000169C943C90617D4C168C943C90613D40D
:1028B0006FF010010161082020772068C06910F4D2
:1028C000407F204602D0FFF791FF04E000F06CF853
:1028D000204600F0FEF8257720680169C943C90742
:1028E00008D1C168C943C90704D1891E01612046C6
:1028F00000F0F0F820680169C943090609D4C168ED
:10290000C943090605D46FF0800101612046FFF735
:102910001CFE20680169C943490609D4C168C9433E
:10292000490605D46FF040010161204600F0DCF853
:1029300020680169C94389060BD4C168C943890667
:1029400007D46FF0200101612046BDE87040FFF719
:10295000FDBD70BD10B586B0044614216846FDF774
:1029600079FC0E492068884215D10D480021026883
:1029700042F001020260006800F001000590402072
:1029800000900220CDE901010920CDE9031069463C
:102990000448FEF7C9F906B010BD0000001C004055
:1029A0003038024000000240704770B5044690F88D
:1029B0003C0000260D4601280FD0012084F83C0081
:1029C0006AB1042A1DD0082A2FD00C2A3FD0012634
:1029D000002084F83C00304670BD022070BD2068A5
:1029E00000F02CFE2068816941F0080181612068B7
:1029F000816921F004018161206881692A6911439C
:102A000011E0206800F04AFE2068816941F400610D
:102A100081612068816921F4806181612068816918
:102A20002A6941EA02218161D2E7206800F06CFE48
:102A30002068C16941F00801C1612068C16921F0C5
:102A40000401C1612068C1692A69114311E020684D
:102A500000F08EFE2068C16941F40061C161206808
:102A6000C16921F48061C1612068C1692A6941EAB4
:102A70000221C161ACE710B5040003D094F83D0019
:102A800010B107E0012010BD002084F83C00204672
:102A900000F01EF8022084F83D00211D206800F09F
:102AA00057FD012084F8460084F83E0084F83F007A
:102AB00084F8400084F8410084F8420084F8430020
:102AC00084F8440084F8450084F83D00002010BDDF
:102AD0007047704700680349884201D1FEF728BA61
:102AE00070470000000C0040704738B5044690F86D
:102AF0003E00202822D181B17AB194F83C0001280F
:102B00001CD0012084F83C002063204601F012F81C
:102B1000002803D1216B012901D0012038BD216893
:102B20000A684968009121680C3151E8002F42F091
:102B3000100241E80023002BF5D138BD022038BD3A
:102B400070477047F8B5016804460868CA684B6961
:102B500010F00F0F4FF0000559D003F0010602F4FA
:102B60009077374365D0C10705D0D10503D5216CD7
:102B700041F001012164410705D5D90703D0216C3B
:102B800041F002012164810705D5D90703D0216CEA
:102B900041F004012164010707D502F0200131430F
:102BA00003D0216C41F008012164216C00293AD046
:102BB000800604D5900602D5204600F0D4FE206899
:102BC0004069216CC0F38010090700D460B320462F
:102BD00000F094FE20684069400621D5206814303A
:102BE00050E8001F21F0400140E80012002AF5D112
:102BF000A06BA8B16C490165A06BFDF7FEFE002833
:102C000011D0A06B016D01B0BDE8F040084783060C
:102C10000FD593060DD52046BDE8F84000F0A3BEC1
:102C20002046FFF78EFFF8BD2046FFF78AFF256498
:102C3000F8BD266B2023012E79D1C60677D5D6069E
:102C400075D50868486800904869400640D5A16B72
:102C5000086840680004000CEAD0A28D8242E7D9DF
:102C6000E085C869B0F5807F2DD020680C3050E831
:102C7000001F21F4807140E80012002AF5D120687D
:102C8000143050E8001F21F0010140E80012002A32
:102C9000F5D12068143050E8001F21F0400140E8D1
:102CA0000012002AF5D184F83E30256320680C30EC
:102CB00050E8001F21F0100140E80012002AF5D171
:102CC000A06BFDF751FEA08DE18D401A81B229E085
:102CD000A08DE18D401A81B2E08D0028A8D0002996
:102CE000A6D020680C3050E8002F22F4907240E803
:102CF0000026002EF5D12068143050E8002F22F075
:102D0000010240E80026002EF5D184F83E3025630C
:102D100020680C3050E8002F22F0100240E8002319
:102D2000002BF5D12046FFF70BFFF8BDFFE70506A6
:102D30002BD5150629D594F83D002128F5D1A0689A
:102D4000B0F5805F01D12069B0B1206A411C2162D9
:102D5000216800784860E08C401E0004000CE0848C
:102D6000E3D12068C16821F08001C1602068C1689A
:102D700041F04001C160D8E7206A0088C0F3080034
:102D80004860206A801C2062E5E74006CDD55006E9
:102D9000CBD5CA68204622F04002CA6084F83D3094
:102DA00000F0ACF8C1E700000738000870B5040077
:102DB00004D094F83D00002510B106E0012070BD5C
:102DC00084F83C50204600F023F8242084F83D008D
:102DD0002068C16821F40051C160204600F024FE43
:102DE0002068016921F4904101612068416921F066
:102DF0002A0141612068C16841F40051C160256425
:102E0000202084F83D0084F83E00002070BD0000C2
:102E10002DE9F04387B0064614216846FDF71AFAFB
:102E20003049306888425AD12F480024016841F067
:102E300010010160006800F0100005902A48143865
:102E4000016841F0020101600068694600F002007B
:102E50000590C02000900220CDE9010403200390DA
:102E6000072004902148FDF75FFF224D20484FF0D6
:102E700000672860C5E901744FF48068C5E903481C
:102E80006C614FF48039AC61C5E9074928466C6232
:102E9000FDF796FE08B1FDF740FDB563AE63154D35
:102EA000134860357830E5E802074020A5E81101B5
:102EB000104845F814496030AC61C5E907496C62B7
:102EC000FDF77EFE08B1FDF728FD756300220521A0
:102ED0002520AE63FEF7B2F82520FEF7A1F807B073
:102EE000BDE8F08300100140443802400004024075
:102EF00040640240740F0020704770477047FEE73F
:102F0000F0B500230A24302537261F4611E000BF04
:102F1000B4EB107F02D905EB107C01E006EB107CCE
:102F200001F813C001EB430C00015B1C8CF801702D
:102F3000DBB29342ECD3F0BD074910B505480860F9
:102F40000846FDF7ECFC002803D0BDE81040FDF773
:102F5000E4BC10BD00300240000000200D4808B560
:102F6000016841F4800101600068002200F48000E3
:102F7000009005213A20FEF761F83A20FEF750F85C
:102F8000002205214620FEF759F8BDE808404620FA
:102F9000FEF746B8303802402DE9F04786B01421DC
:102FA0006846FDF757F930480025016841F00401F3
:102FB0000160016801F004010591016841F08001A0
:102FC0000160016801F080010591016841F0010193
:102FD0000160016801F001010591016841F0020101
:102FE0000160016801F002010591016841F00801EA
:102FF00001600068DFF8748000F00800059001228D
:1030000010214046FDF788FFDFF864904FF44046FA
:10301000002231464846FDF77FFFDFF858A04FF405
:103020008077002239465046FDF776FF10200124B4
:10303000CDE900040320CDE9024069464046FDF792
:1030400073FECDE9006469464846CDE90245FDF7C7
:103050006BFECDE9007469465046CDE90245FDF7A7
:1030600063FE06B0BDE8F087303802400000024041
:1030700000040240000C0240074910B505480860F2
:103080000846FFF70BF9002803D0BDE81040FDF714
:1030900044BC10BD000806507006002010B586B074
:1030A00014216846FDF7D6F81B48002419490594F9
:1030B000C0E900147F218160FF21C0E9031444614D
:1030C0008461FFF719F908B1FDF727FC8DF800407E
:1030D0008DF801408DF802400394002269460E48A5
:1030E0000494FFF7B7F908B1FDF717FC01208DF83C
:1030F00014008DF815008DF816008DF81740002289
:1031000005A90548FFF75AF9002801D0FDF705FC8D
:1031100006B010BD002800408006002010B588B021
:103120001C216846FDF796F81548144900240160F3
:103130005321C0E9011440F2E731C0E9031484616E
:10314000FFF74EFA08B1FDF7E8FB0D48FFF793FCD7
:1031500008B1FDF7E2FB6020CDE9000402940022F3
:10316000694607480494FFF720FC08B1FDF7D5FB3A
:103170000348FFF7EFFB08B010BD0000001C004043
:10318000E806002010B586B000241748009401948A
:103190000294039404941349059401605321C0E9F7
:1031A000011440F2E731C0E903148461FFF718FA13
:1031B00008B1FDF7B2FB4FF48050009069460A4811
:1031C000FFF7A6FA08B1FDF7A8FB049404A9064886
:1031D0000594FFF7BDF9002801D0FDF79EFB06B06E
:1031E00010BD000000040040A00600200E4810B5ED
:1031F0000C4901604FF4E1314160002181600C22F3
:10320000C160C0E904128161C161FFF7CFFD08B15F
:10321000FDF783FB044844300068016821F0080191
:10322000016010BD00100140300F002010B50122D8
:103230000C490D4801F098FA0C490B4800F0C4FE07
:10324000002302220A49084801F0E8FD00231A463B
:103250000849054801F0E2FDBDE81040024801F0D0
:1032600091BE0000E801002090020020D001002063
:103270009401002008000020FEE7FEE70148FEF769
:103280007DB80000DC3100202DE9F04103680D46D7
:1032900004461E6C03EB4511D1F8080BD4F810E07E
:1032A0004FF400474FF0200C04F2C442BEF1010F6E
:1032B00009D0DFF898E0764539D1020432D500BF55
:1032C000C1F8087B3FE0224B5FEA007E04D59E42B6
:1032D00039D90004F4D436E05FEA806E02D5C1F833
:1032E00008CB30E010F0280F2DD19E4201D9000408
:1032F000E6D405EBC50004EB8000D1F8101BD0F834
:103300009832C1F31201591AC0F89C1200F51F70CF
:10331000ADB983691BB10269114401610FE001215C
:1033200020680AE080060AD5C1F808CB07E035B965
:10333000D4F8940218B90021184602F027FAE9B22D
:103340002046FDF7F3FE0020BDE8F0810A31544F1E
:103350000A30544F2DE9F84F0E4601EBC60100EB41
:10336000810481460568616DE06D3C34884202D974
:103370000120BDE8F88F081AE168814200D20846B2
:10338000C01C870805EB46181BE000BFA0EB010A34
:10339000E068504500D282460AF10300870899F898
:1033A000100000901FFA8AF3F2B22846216902F059
:1033B00007FD216901EB0A002061216A01EB0A0087
:1033C0002062D8F8180980B2B84205D3216AA069F2
:1033D000814201D20028D9D1216AA069884208D847
:1033E00006F00F0101208840D5F834188143C5F854
:1033F00034180020BDE7002103E0491C0A38C9B297
:10340000C0B20A28F9D2090740EA116070470000EB
:103410002DE9F041044600680025C168490618D42A
:10342000C16841F08001C160FDF77CFD06464FF4A4
:103430007A78042707E000BFFDF774FD801B404544
:1034400001D9677701252068C068400601D4002DA6
:10345000F2D02846BDE8F08170B50446006800252A
:10346000C16821F08001C16020688068800606D4B0
:103470002046FFF74FF810B1042060770125284659
:1034800070BD0178407841EA0020704730B593B0B4
:1034900030216846FCF7DEFE14210CA8FCF7DAFEAA
:1034A0001F480025016841F080510160006800F06C
:1034B000805011901B48016841F480410160006810
:1034C000022400F480401190092000904FF48030D5
:1034D00001900120CDE905048005079004200890A3
:1034E000A820CDE9090407200B906846FEF720FDCF
:1034F00008B172B6FEE70CA90F2081E831004FF445
:10350000A0500F904FF48050109005210CA8FEF7AA
:10351000FFFB002801D072B6FEE713B030BD0000FB
:1035200040380240007000400248016841F47001D8
:103530000160704788ED00E00148FFF758B90000CE
:10354000A00600200148FFF752B900003410002007
:10355000F0B50268254C264D264E274F274B4FF0DD
:10356000804CA04209D0604507D0A84205D0B042A7
:1035700003D0B84201D0984204D122F0700E4A68BC
:1035800042EA0E02A0421BD0604519D0A84217D0D3
:10359000B04215D0B84213D0984211D0184DA8426D
:1035A0000ED0184DA8420BD0174DA84208D0174D89
:1035B000A84205D0164DA84202D0164DA84203D10C
:1035C00022F44075CA682A434D6922F080022A43DA
:1035D00002608A68C2620A688262A04201D0984290
:1035E00001D10969016301214161F0BD0000014081
:1035F0000004004000080040000C004000040140AE
:1036000000400140004401400048014000180040D3
:10361000001C00400020004010B5846842EA0322EC
:1036200024F47F440A432243826010BD826822F062
:1036300070020A4342F0070181607047F0B5026AE8
:1036400022F001020262036A42688469124E24F089
:1036500073050C682C4323F002058B682B430D4D3A
:10366000A84201D0B04205D123F00807CB683B4304
:1036700023F00403A84201D0B04205D14D6922F4E1
:10368000407215438A692A434260846149684163F4
:103690000362F0BD0000014000040140F0B5026A81
:1036A00022F010020262026A436884690D6824F401
:1036B000E64444EA05248D6822F0200242EA05121D
:1036C0000F4D104EA84201D0B04206D1CF6822F073
:1036D000800242EA071222F04002A84201D0B04222
:1036E00007D14D6923F4406343EA85038D6943EABA
:1036F000850343608461496881630262F0BD000014
:103700000000014000040140F0B5026A22F480721A
:103710000262026A4368C46922F4007224F07305ED
:103720000C68124E2C438D6842EA05220E4DA842C9
:1037300001D0B04206D1CF6822F4006242EA0722EB
:1037400022F48062A84201D0B04207D14D6923F42F
:10375000405343EA05138D6943EA05134360C4618E
:103760004968C1630262F0BD0000014000040140ED
:1037700030B5026A22F480520262046A4268C36968
:103780000D6823F4E64343EA05238D6824F40054CE
:1037900044EA0534084DA84202D0084DA84204D19D
:1037A0004D6922F4804242EA85124260C361496851
:1037B0000164046230BD00000000014000040140CB
:1037C00010B5036A046A24F001040462846924F0D9
:1037D000F00444EA021423F00A020A4384610262FC
:1037E00010BD10B5036A23F0100303628369046AF5
:1037F00023F4704343EA023224F0A00343EA0111A8
:103800008261016210BD10B5806B0021C185C18449
:10381000FFF797F910BD70B5846B2068406994F884
:103820003D10C0F3C0100025212904D118B1E58452
:10383000204600F08AF82068406994F83E10C0F3F2
:103840008010222904D118B1E585204600F056F8F1
:10385000206C40F0100020642046FFF772F970BD24
:1038600010B50146806B09680968C9052FD400218D
:10387000C18501680C3151E8002F22F4807241E8C3
:103880000023002BF5D10168143151E8002F22F0FC
:10389000010241E80023002BF5D10168143151E801
:1038A000002F22F0400241E80023002BF5D1202117
:1038B00080F83E10016B012909D101680C3151E8F3
:1038C000002F22F0100241E80023002BF5D1016BFC
:1038D000012902D0FFF710FB10BD818DFFF730F9F1
:1038E00010BD10B5806B016B012902D0FFF705FBFD
:1038F00010BD818D4908FFF723F910BD01680C3117
:1039000051E8002F22F4907241E80023002BF5D1FA
:103910000168143151E8002F22F0010241E8002330
:10392000002BF5D1016B012909D101680C3151E857
:10393000002F22F0100241E80023002BF5D12021B6
:1039400080F83E1000210163704701680C3151E896
:10395000002F22F0C00241E80023002BF5D12021E6
:1039600080F83D10704708B590F83E10222901D02C
:10397000022008BD82684FF480539A4201D1016948
:1039800021B1816A9A421BD04AB10AE00268816A79
:103990005268C2F308020A80816A891C08E0026941
:1039A00072B10268526802F07F020A70816A491C93
:1039B0008162C18D491E0904090CC18503D019E03B
:1039C00002685268F1E70168CA6822F02002CA6002
:1039D0000168CA6822F48072CA6001684A6922F0EC
:1039E00001024A61202180F83E10016B012903D0B9
:1039F000FFF782FA002008BD0021016301680C3145
:103A000051E8002F22F0100241E80023002BF5D1ED
:103A100001680A68D20602D50A6849680091818D5A
:103A2000FFF78EF8E6E7000070B50446006801690C
:103A3000E26821F44051114301612169A068E26903
:103A400008436169114308432168CA6849F20C635D
:103A50009A430243CA6020684169A26921F4407117
:103A60001143416131492068884202D0304988427F
:103A700002D1FEF71DFA01E0FEF70AFAE26900231F
:103A8000192164253226B2F5004F626828D0A0FBC8
:103A90000101930F9200FCF793FB0146B0FBF5F098
:103AA0006FF01802504301EB800006EB0010B0FBF2
:103AB000F5F000F0F002B1FBF5F002EB0012B1FB03
:103AC000F5F06FF01803584301EB800006EB00108F
:103AD000B0FBF5F000F00F0021681044886070BD65
:103AE000A0FB010192185B41FCF76AFB0146B0FBA9
:103AF000F5F00201B1FBF5F06FF01803584301EB4C
:103B0000800006EBC000B0FBF5F000F0F80002EB1F
:103B10004002B1FBF5F0584301EB800006EBC0001A
:103B2000B0FBF5F000F00700D6E700000010014000
:103B30000014014038B58162828500251346044691
:103B40000564222084F83E00A26B1C48D063A26B5F
:103B50001B481064A26B1B48D064A06B0A46056525
:103B60002168A06B091DFDF795F820680168406881
:103B7000009084F83C50206948B120680C3050E82F
:103B8000001F41F4807140E80012002AF5D120683E
:103B9000143050E8001F41F0010140E80012002AF3
:103BA000F5D12068143050E8001F41F0400140E892
:103BB0000012002AF5D1002038BD0000613800084D
:103BC000E3380008173800080148FEF7BBBF0000C3
:103BD000300F00202DE9F0410C46D0F8F812D0F853
:103BE000EC2200EB8101D1F8CC1229B304F00F06CE
:103BF00006EB860300EB83050027AB694BB106EBB0
:103C0000C60602EB8602926CB3FBF2F602FB16329A
:103C1000A2B1C1F81472D0F8F82200EB8200D0F8FB
:103C2000DC0203692BB1D1F80802224601F50471C8
:103C300098470020BDE8F0810320FBE700231A46E7
:103C40002146AF6101F012F8F3E770B50546D0F8F0
:103C5000F80205EB8000D0F8CC4294B1284600F081
:103C6000AFFEC4F80C02D5F8F812D4F8040205EB44
:103C70008101D1F8DC12CA6804F503719047002075
:103C800070BD032070BD000070B504460222802183
:103C900000F082FB284D022200212870204600F00F
:103CA0007BFB687003228021204600F075FBA87022
:103CB0002978204600F087FD2878002600F00F00C4
:103CC00000EB800004EB800086846978204600F0D9
:103CD0007AFD687800F00F0000EB800004EB8000B4
:103CE000A0F86461A978204600F06DFDA87800F086
:103CF0000F0000EB800004EB80008684C684D4F8BB
:103D0000F80204EB8000D0F8CC1299B1D0F8DC02B4
:103D100040688047D4F8F80204EB8000D0F8CC0269
:103D200002F006FDD4F8F80204EB8000C0F8CC6283
:103D3000C4F8C862002070BD3801002010B5D0F86A
:103D4000F81200EB8100D0F8CC4284B1D0F8DC123C
:103D500059B194F80002FF2807D08B6894F801222B
:103D600021469847FF2084F80002002010BD032060
:103D700010BD00000A210180004870473C0100206E
:103D800070B5064682210C4800F09AFC05460321D6
:103D9000094800F095FC04468321074800F090FC98
:103DA0000DB11021A971402104B1A18000B1818021
:103DB0004B203080004870BD4801002070B5064699
:103DC00082210D4800F07CFC054603210A4800F0E2
:103DD00077FC04468321084800F072FC0DB11021E5
:103DE000A9714FF4007104B1A18000B181804B2012
:103DF0003080014870BD00004801002070B50646C3
:103E000082210C4800F05CFC05460321094800F0C3
:103E100057FC04468321074800F052FC0DB11021E5
:103E2000A971402104B1A18000B181804B20308074
:103E3000004870BD480100202DE9F04704464FF4CA
:103E40000775284602F09CFD06004FF0000976D069
:103E50002946FCF7FFF9D4F8F802022204EB8000AF
:103E60008021C0F8CC622046C4F8C86200F094FA01
:103E7000404D022200212870204600F08DFA687023
:103E800003228021204600F087FAA870207C4FF0A2
:103E900010084FF4007A0127F0B34023022229785A
:103EA000204600F007FE2878402300F00F0000EBCA
:103EB000800004EB8000878402226978204600F0AD
:103EC000F9FD6878082300F00F0000EB800004EB98
:103ED00080000322A0F86471A978204601F00F0148
:103EE00001EB810104EB8101A1F82680A97800F0A3
:103EF000E1FDA87800F00F0000EB800004EB8000EB
:103F00008784C6F80492D4F8F8024F4604EB800088
:103F1000D0F8DC02006800E019E006F50176804781
:103F200037617761326882B1207C00B340236978C1
:103F3000204600F0CBFD0020BDE8F087FFE7D4F875
:103F4000F81204EB8101C1F8CC920220F4E7534649
:103F500002222978204600F0ADFD2878534600F073
:103F60000F0000EB800004EB80008784A4E7534639
:103F7000DDE700003801002070B50446D0F8F802F3
:103F8000022204EB80000021D0F8CC52204600F041
:103F900003FA0C4948700146D4F8F80204EB80009B
:103FA000D0F8CC0248B1207CD5F8042238B14023A7
:103FB000204600F08BFD002070BD032070BD4FF443
:103FC0000073F5E73801002039B1D0F8F82200EB92
:103FD0008200C0F8DC120020704703207047D0F840
:103FE000F82200EB8200D0F8CC0218B1C0F804121D
:103FF0000020704703207047D0F8F83200EB8300B0
:10400000D0F8CC0228B1C0F81022C0F80812002065
:104010007047032070472DE9FC410646D0F8F802AE
:104020000C4606EB80000021D0F8CC728DF8001011
:10403000ADF804100D4637B1217811F060022FD091
:10404000202A4BD102E00320BDE8FC81E288F2B1D6
:1040500009060DD5D0F8DC0263783946D0F808C0DF
:104060001846E047E288072A00D9072239462DE0A2
:10407000607887F80002E088402800D34020C2B270
:1040800087F801223946304600F0C7F92BE0D0F816
:10409000DC0263780022866821461846B04722E099
:1040A000607830B101281ED00A2809D00B2815D11C
:1040B00010E096F89C02032810D1022201A905E025
:1040C00096F89C02032809D101226946304600F087
:1040D000BEF908E096F89C02032804D02146304639
:1040E00000F090F903252846AEE700002DE9FF4FC8
:1040F00083B000270446ADF80470D0F8FC02614E8E
:104100003D4608B97580357049B1896A39B101A851
:104110008847010003D0BDF80420092A03D20320F8
:1041200007B0BDE8F08F738857484FF0010A83B994
:10413000092303704FF0020C80F801C08570C57030
:10414000057180F805A085718025C5714B25057224
:10415000738001F109097188093A084495B2B346A0
:1041600000907AE099F8006099F801003EB1AE4203
:1041700005D8BBF802103144B1F5807F01D903277F
:104180007EE00B2804D004280CD005282ED054E063
:10419000324649460098FCF744F800989BF8001016
:1041A00081704FE0D4F8F802C0EBC00204EBC2010A
:1041B000D1F8280305280CD200EB040C4FF44B78FF
:1041C0009BF8003008EBC202401CC1F828030CF831
:1041D0000230324649460098FCF723F8009A9BF8D3
:1041E00000009070401C8BF800002BE0D4F8F8021F
:1041F000C0EBC00004EBC001D1F80C0305281CD2B1
:1042000001EB800099F8021080F8101399F8031060
:1042100001F0030180F8111399F8041080F81213CB
:1042200080F813A3D4F8F802C0EBC00004EBC00080
:10423000D0F80C13491CC0F80C13324649460098BC
:10424000FBF7EFFF0098B14430440090BBF8021038
:10425000A81B3144ABF8021085B2002D82D1D4F8EE
:10426000F8120598C1EBC10104EBC10181F800030C
:10427000D4F8F812C1EBC10104EBC101C1F808A3E5
:1042800038464DE764020020E8360020054B10B5A3
:10429000054A598891700C0AD4701B7813710180FB
:1042A000104610BD64020020E83600200A2101807B
:1042B0000048704768020020FFF7E8BFFFF7E6BF3D
:1042C000FFF7E4BF2DE9F04100260F4605463446CE
:1042D000C4EBC40005EBC000D0F8080301280ED1E0
:1042E00005EB8400D0F8B81249B1C5F8F842D0F80F
:1042F000B802394642682846904700B10326641C3C
:10430000042CE5D33046BDE8F081F0B50022C2EBC5
:10431000C20300EBC304D4F80833012B14D10023EB
:1043200000EB8206D4F80C530CE004EB830797F8FB
:1043300010738F4205D1D6F8B872BF680FB1D0B2F2
:10434000F0BD5B1C9D42F0D8521C042ADFD3FF2035
:10435000F0BDF0B50022C2EBC20300EBC304D4F8F9
:104360000833012B13D1002300EB8206D4F8285325
:104370000BE0E71897F82C738F4205D1D6F8B87286
:10438000BF680FB1D0B2F0BD5B1C9D42F1D8521C8A
:10439000042AE0D3FF20F0BD70B5D0F8F842002326
:1043A000C4EBC40400EBC400D0F80C5316E000BF0B
:1043B00000EB830494F8106306F080068E420BD164
:1043C00094F81163964207D194F8134324B100EB9B
:1043D000830090F8100370BD5B1CDBB29D42E7D8F0
:1043E000FF2070BD134610B50A46002100F06EFB99
:1043F000002010BD134610B50A46002100F036FC1F
:10440000002010BD10B50446802100F014FC2046A9
:10441000BDE81040002100F00EBC10B50323C0F829
:104420009432C0F858211346C0F85C210A46002196
:1044300000F04CFB002010BD10B50521C0F894120F
:1044400000231A46194600F041FB002010BD10B5AC
:104450000223C0F8943282611346C2610A460021E9
:1044600000F004FC002010BD10B50421C0F8941227
:1044700000231A46194600F0F9FB002010BD000089
:1044800010B50A46024903A000F03EF9004810BDED
:104490007C2200206E65785F6C696E6B56322063FB
:1044A0006F6E666967000000122008800048704740
:1044B0000802002010B50A46024903A000F024F9C2
:1044C000004810BD7C2200206E65785F6C696E6BC1
:1044D000563220696E746572666163650000000083
:1044E00004200880004870470402002010B50A46E6
:1044F000024903A000F008F9004810BD7C2200200A
:1045000054656D706C6174650000000010B50A465A
:10451000024903A000F0F8F8004810BD7C220020FA
:104520004E65784C696E6B56322D53544D3332467E
:10453000342D42617265000010B51A2008800A48C7
:104540000168001D0468001D0068081809D00822D1
:104550000649FEF7D5FC0549042210312046FEF736
:10456000CFFC0248801E10BD107AFF1F1E020020E3
:10457000F8B5044600200E46ADF8000073880146E9
:104580001A0A4E48082A69D2DFE802F08F0409218E
:104590008F8F5F70D4F8B412207C0A6823E0217CEE
:1045A0000225002994F8FC1202D061B1816805E06F
:1045B00009B1416802E0D4F8B802816A68468847C8
:1045C0000146457063E0D4F8B802C16AF6E7D8B294
:1045D000062821D2DFE800F0030A1014181CD4F8D2
:1045E000B402426805E0694690473DE0D4F8B40261
:1045F00082689AB3207CF6E7D4F8B402C268F8E780
:10460000D4F8B4020269F4E7D4F8B4024269F0E7DE
:10461000D4F8B4028269ECE7002511E004EB8500D0
:10462000D0F8B822926B52B1C4F8F852D0F8B80260
:10463000B1786A46836B20469847010027D16D1CEC
:10464000D4F8FC02A842E9D821E0217C31B994F8E1
:10465000FC1211F0FF0F02D0016903E025E0D4F84D
:10466000B802416B68468847014610E0217CE1B9F9
:1046700094F8FC1211F0FF0F01D0C16802E0D4F8E9
:10468000B802016B68468847014607204870F288E7
:1046900082B1BDF8000040B1824200D90246ADF8B7
:1046A00000202046FFF7D3FEF8BD31462046FFF735
:1046B000A9FEF8BD2046FFF7D7FEF8BD7402002022
:1046C00078B50E4642880178002504468A4212D900
:1046D000ADF800100AE0694600F00FF841780529AE
:1046E00004D181780546B14205D000256188BDF826
:1046F00000209142EFD8284678BD0A8803781A44F2
:104700000A8001780844704770B5002300281ED045
:104710000025044602E06D1CEDB2641C2678002ED4
:10472000F9D1022404EB450414801278CA545B1CAE
:104730000322CA5400245B1C06E0CA545B1CDAB294
:104740008C54521CD3B2401C0278002AF5D170BDA3
:1047500001004FF0000004D0012901D0022901D04E
:10476000032070470120704730B400B30024234673
:1047700000EB8405C5F8B832C5F8DC32C4EBC405DB
:1047800000EBC505641CC5F80833C0F8FC32C0F85E
:10479000F832042CECD3C0F8F43209B1C0F8B412EA
:1047A000012180F89C12027030BC00F00DB930BCC1
:1047B0000320704710B5D0F8EC02FCF7FAFCBDE816
:1047C0001040FFF7C5BF10B5D0F8EC02FCF7CBFCEA
:1047D000BDE81040FFF7BCBF70B516460D0004469B
:1047E0000CD045F08001FFF790FDFF2859D0042838
:1047F00057D294F89C12032943D052E0D4F8941273
:1048000004F114000025022935D1D0E902318B4290
:1048100006D95A1A826031462046FFF7EBFD0FE0B9
:10482000994214D14068884211D3D4F89812884232
:104830000DD2002211462046FFF7DCFDC4F8985245
:1048400000231A461946204600F040F913E094F878
:104850009C02032808D1D4F8B802C16821B1C4F879
:10486000F852C168204688478021204600F0E3F9CD
:104870002046FFF7E1FD94F8A00290B184F8A05221
:104880000FE004EB8001D1F8B82252694AB1C4F8B4
:10489000F802D1F8B802294642692046904700281C
:1048A00000D1002070BD70B513460D0004460CD039
:1048B00005F07F01FFF729FDFF2858D0042856D2C4
:1048C00094F89C12032942D051E0D4F8941204F5D4
:1048D000AA7003294BD1D0E9021291420AD98A1A4F
:1048E0008260C068824200D3024619462046FFF724
:1048F00079FD3CE094F8AA0210F01F0012D00128C4
:1049000003D0022807D000200CE094F8AE12204615
:10491000FFF71FFD04E094F8AE122046FFF7F5FC08
:10492000042810D294F89C1203290CD104EB8001C6
:10493000D1F8B822126932B1C4F8F802D1F8B8023D
:104940000169204688472046FFF78EFD0FE004EB03
:104950008001D1F8B82292694AB1C4F8F802D1F8BE
:10496000B8022946826920469047002800D10020DD
:1049700070BD00207047000070B50546002601207C
:1049800085F89C024FEA0604C4EBC40005EBC000A6
:10499000D0F8080301280ED105EB8400D0F8B81236
:1049A00049B1C5F8F842D0F8B802297942682846DA
:1049B000904700B10326641C042CE5D3304670BD3B
:1049C000D0F8EC02FCF723BC10B50178012932D1F4
:1049D0001A490122C1F80805C0F8EC12184808600D
:1049E000062048600020C8600861C1E9062008620E
:1049F0004862C862086348630846FCF777FF08B15D
:104A0000FBF78BFF4FF400710C48FCF75CFB802236
:104A100000210A48FCF75BFB802201210748FCF7D4
:104A200056FB202202210548FCF751FB802203217E
:104A30000248FCF74CFB002010BD0000DC310020D8
:104A4000000004400A0601F07F01D0F8EC0201EBFF
:104A5000C10100EB810002D590F83E00704790F84C
:104A60007E02704710B5D0F8F82200EB8202D2F82F
:104A7000B82222B190F89C32032B02D004E003202C
:104A800010BD126A02B19047002010BD10B5D0F8D9
:104A9000F82200EB8202D2F8B82222B190F89C32C0
:104AA000032B02D004E0032010BD526A02B19047EC
:104AB000002010BD10B51C461346D0F8EC0222466B
:104AC000FCF7AEFBBDE81040FFF742BE10B5D0F8D2
:104AD000EC02FCF7D5FBBDE81040FFF739BE000043
:104AE0002DE9F04100270126044680F89C62C4F8B5
:104AF00094726760C4F8A47280F8A0724FEA070548
:104B0000C5EBC50004EBC000D0F8080301280FD1A5
:104B100004EB8500D0F8B81251B1C4F8F852D0F8BF
:104B2000B802426822B121792046904700B103279C
:104B30006D1C042DE4D30022402311462046FFF7CC
:104B4000B9FF4025A4F864612B460022802120464D
:104B5000C4F86051FFF7AEFFA68438462562BDE871
:104B6000F08190F89C12042903D190F89D1280F8EE
:104B70009C1200207047000070B5054690F89C021A
:104B800003281AD15FF00004C4EBC40005EBC00099
:104B9000D0F8080301280DD105EB8401D1F8B80243
:104BA00040B1C06930B1C5F8F842D1F8B802C16966
:104BB00028468847641C042CE6D3002070BD01748D
:104BC0000020704710B5D0F8EC02FCF78BFFBDE871
:104BD0001040FFF7BDBD70B5044600F2AA2005469F
:104BE00000F005F90120C4F89402B4F8B002C4F84A
:104BF000980294F8AA0210F01F010AD001290ED0E1
:104C0000022912D000F080012046BDE8704000F07B
:104C100012B829462046BDE8704000F0B8B92946D0
:104C20002046BDE8704000F0FBBA29462046BDE8AA
:104C3000704000F043BA10B5D0F8EC02FCF744FB2A
:104C4000BDE81040FFF784BD10B5D0F8EC02FCF7CA
:104C500088FFBDE81040FFF77BBD90F89C1280F8FC
:104C60009D12042180F89C120020704710B5D0F8E6
:104C7000EC02FCF763FBBDE81040FFF769BD0000E4
:104C800010B54A78202A04D18A88042A03D0052A3C
:104C900008D0002010BDCA88084B2824282A07D92C
:104CA000224605E0054BCA8828339224922AF7D879
:104CB0001946FFF7CCFB012010BD00007C0000204E
:104CC000FFF7DEBFD0F8C802012101700020704755
:104CD00070B505460324FFF773FE81B2034801F067
:104CE000FCFE284600F056F8204670BD7C100020DF
:104CF00010B504468121FFF766FD01212046FFF72C
:104D000062FD002010BD00207047000020210180BE
:104D1000004870474800002010B5EE2905D000215A
:104D20001180FFF76FFB002010BD1220108001489A
:104D300010BD00006800002070B50446082001F096
:104D40001FFE0021F0B10160416001210170D4F823
:104D5000F8124FF4007504EB81012B46C1F8CC0228
:104D6000C4F8C802022281212046FFF7A3FE2B4689
:104D7000022201212046FFF79DFE204600F00AF89E
:104D8000002070BDD4F8F80204EB8000C0F8CC120B
:104D9000022070BD4FF40073014A0121FFF796BE57
:104DA0007C10002010B50A7812F0600F06D1497807
:104DB0000A2903D101220249FFF749FB002010BD57
:104DC0004400002010B51346D0F8C822147844B12E
:104DD0000024147051600A468121FFF747FF00202C
:104DE00010BD032010BDD0F8C8020078704770B520
:104DF000054611F8010B2870087868704C1C204695
:104E0000FEF73FFB6880A41C2046FEF73AFBA88013
:104E1000A01CFEF736FBE88070BD0000F8B5002549
:104E20000446ADF80050D0F8F80204281ED2D4F899
:104E3000FC62042E1AD209B304EB8000C0F8B81249
:104E4000D4F8F802C0EBC00004EBC000C0F8243373
:104E500000232046FFF74AF9D4F8F802401CC4F8B2
:104E6000F802D4F8FC02401CC4F8FC020448416873
:104E700068468847C4F8F4022846F8BD0325FBE7D6
:104E8000740200202DE9F04100260F460546344605
:104E9000C4EBC40005EBC000D0F8080301280ED114
:104EA00005EB8400D0F8B81249B1C5F8F842D0F843
:104EB000B802394602682846904700B10326641CB0
:104EC000042CE5D33046BDE8F08100002DE9F04127
:104ED00088462B4E8978002504463170012906D971
:104EE00041462046FFF78EFA0320BDE8F08194F892
:104EF0009C02022702280CD003281DD041462046E0
:104F0000FFF780FA31782046FFF7DCF903252846C1
:104F1000EBE789B320466160FFF7B4FF050004D0DA
:104F200041462046FFF76EFA1DE02046FFF79CFA47
:104F3000032084F89C02EAE7C1B1606888421BD074
:104F4000C1B22046FFF7BEF9317820466160FFF715
:104F500099FF050010D041462046FFF753FA21790A
:104F60002046FFF7AFF984F89C72D0E784F89C7272
:104F700020466160FFF7A6F92046FFF775FAC6E7FD
:104F8000600200200021C0F8F812FFF75DBE2DE995
:104F9000F0410A78002512F060020CD0202A01D0DE
:104FA000402A7ED1D0F8F82200EB8202D2F8B82253
:104FB0009268904732E04B78002201264FF00208B9
:104FC0000A2B6ED2DFE803F040656D576D08056D62
:104FD0002C28FFF7CDFA66E004468888D0B9C88847
:104FE000C0B94888802815D200F07F0794F89C0249
:104FF00003280FD084F89E7239462046FFF7E2FD61
:105000002046FFF731FA17B184F89C824BE084F810
:105010009C6248E0204644E0FFF758FF054642E026
:10502000CB88012B3DD190F89C32012B04D0022B70
:1050300002D0032B35D104E08260012200F1080187
:1050400016E00122011D13E090F89C32012B03D0E1
:10505000022B01D0032B24D1CB88022B21D1C2609B
:10506000D0F8A41209B1C0F80C80022200F10C01A2
:10507000FFF7EDF917E04A88012A02D0022A03D08F
:105080000FE0C0F8A46216E08988090A80F8A0122F
:1050900011E090F89C32012B08D0022B06D0032B94
:1050A00004D0FFF7AFF92846BDE8F081498801290F
:1050B000F9D1C0F8A422FFF7D7F9F4E72DE9F041C0
:1050C000054608780C790E464FF0000810F0600095
:1050D00019D0202801D040287DD121462846FFF74D
:1050E00014F9FF280ED004280CD2C5F8F80205EBFD
:1050F0008000D0F8B8028268002A03D031462846E2
:105100009047804689E07078C0B3012824D00328F6
:1051100061D195F89C02022802D003287AD10CE0D4
:10512000002C77D0802C75D021462846FFF783FDD0
:1051300080212846FFF77FFD6FE0708840B93CB1C1
:10514000802C05D0C88818B921462846FFF773FD82
:105150002846FFF789F960E095F89C020228DFD025
:10516000032857D17088B8BB600603D02146284673
:10517000FFF720FB2846FFF777F9AEE7FFE795F842
:105180009C020027022802D0032843D111E00CB171
:10519000802C3FD1200604F07F0000EB800005EB5F
:1051A000800101D5143101E001F5AA7102220F60DE
:1051B0002CE0200604F00F0000EB800005EB8000DF
:1051C0000BD5808C38B104F07F0000EB800005EB3C
:1051D000800614360CE01DE01FE0B0F86401C8B191
:1051E00004F07F0000EB800005EB800606F5AA7650
:1051F0004CB1802C07D021462846FFF723FC10B184
:105200000120306000E03760022231462846FFF777
:105210001EF902E02846FFF7F5F84046BDE8F081A8
:1052200070B50646087800240D4610F0600003D0E3
:10523000202801D040282CD196F89C02012803D0C8
:10524000022801D0032824D1A888C1B203291FD87D
:10525000C1B23046FFF77DF8FF2811D004280FD2E5
:1052600006EB8001D1F8B82292684AB1C6F8F8027C
:10527000D1F8B8022946826830469047044600E0DB
:105280000324E888204307D13046FFF7EDF803E018
:1052900029463046FFF7B6F8204670BD70B50A784B
:1052A000012302F00F054E78AB401B4CD0F81C5880
:1052B000012E17D045EA0343C0F81C3800EB42101A
:1052C000D0F8002B12040BD4D0F8002B8B8909796D
:1052D000C3F30A031A4344EA81410A43C0F8002B8E
:1052E000002070BD9BB21D43C0F81C5800EB42105B
:1052F000D0F800391B04F3D4D0F800398D8909792E
:10530000C5F30A0589042B4341EA82510B43234329
:10531000C0F80039E4E7000000800010D0F8001960
:105320006FF30A01C0F80019D0F8041841F4807135
:10533000C0F804180020704770B5044606990A9E0C
:10534000049D0D98012916D0E06840F04000E0600F
:10535000204600F02BF8A16B1EB321F48031A1632D
:10536000012D07D1A16841F00601A160A16841F0BB
:105370002001A16070BDA16B21F48031A163E168BF
:10538000094A1140E160E16821F44011E16001281F
:1053900003D1E06840F48010E060204600F006F899
:1053A000DEE741F48031DAE7BFFFBDFF08B5002238
:1053B0000D490092009B5B1C00938B420CD8036943
:1053C000002BF7DA0092026942F001020261009AB2
:1053D000521C00928A4201D9032008BD0269D207FB
:1053E000F5D1002008BD0000400D030030B54C7819
:1053F0000A78012300EB4212012C2CD0D2F8004B8A
:10540000002C0BDAD2F8004B44F00064C2F8004BD9
:10541000D2F8004B44F08044C2F8004BD0F83C581E
:105420000C7804F00F0403FA04F425EA0444C0F8ED
:105430003C48D0F81C48097801F00F018B4024EA61
:105440000341C0F81C18D2F8000B19490840C2F8F3
:10545000000B002030BDD2F80049002C0BDAD2F846
:10546000004944F00064C2F80049D2F8004944F011
:105470008044C2F80049D0F83C480D7805F00F058B
:1054800003FA05F5ADB2AC43C0F83C48D0F81C486F
:10549000097801F00F018B4099B28C43C0F81C4889
:1054A000D2F8000903490840C2F80009D1E700001A
:1054B0000078F3EF007833ECD0F8001E21F0030100
:1054C000C0F8001ED0F8041821F00201C0F804183A
:1054D00000207047D0F8001E21F00301C0F8001E24
:1054E000D0F8041841F00201C0F8041800207047F9
:1054F0002DE9F04F00250E460446DDF82CC0DDF8FE
:1055000024B0109F2846294604EB8002C2F80411FB
:10551000401C0F28F8D32046C7B1806B20F400123E
:10552000A263A06B40F40022A26308468846C4F838
:10553000000ED4F800182046C4F80018BCF1010F82
:1055400016D0D0F8001841F0030116E0D0F8040896
:1055500040F00202C4F80428A06B40F40012A263D9
:10556000A06B20F40022A263A06B20F48022DBE772
:10557000D0F800180BB141F00101C0F8001810215B
:1055800000F0EEFA00B10125204600F0CBFA00B1A0
:1055900001254046C4F81088C4F81488C4F81C8853
:1055A00000214FF000694FF0904A4FF67F3314E02E
:1055B00004EB4112D2F800C9BCF1000F06DA11B1B8
:1055C000C2F800A904E0C4F8009901E0C2F800099B
:1055D000C2F81009C2F80839491C8E42E8D80021E7
:1055E00015E000BF04EB4112D2F800CBBCF1000F74
:1055F00006DA11B1C2F800AB04E0C4F8009B01E088
:10560000C2F8000BC2F8100BC2F8083B491C8E42CE
:10561000E8D8D4F8101821F48072C4F81028A061DA
:105620006FF080406061BBF1000F03D1A06940F0D2
:105630001000A061A06909490843A0610C9818B145
:10564000A06940F00800A061012F03D1A0690449BE
:105650000843A0612846BDE8F08F000000383C8078
:1056600004000040816821F0010181600020704742
:1056700070B50D784E78444CEBB200EB4313012E1D
:1056800021D0D3F8100B6FF31200C3F8100BD3F82E
:10569000100B2040C3F8100B886908B1C8688861F6
:1056A000C868C861D3F8100B40F40020C3F8100B91
:1056B000D3F8100BCC69C4F312042043C3F8100BC9
:1056C000012A55D058E08E69002ED3F8106932D0E7
:1056D0006FF31206C3F81069D3F810692640C3F8B7
:1056E00010698E69CC68A64200D98C61D3F8104944
:1056F00044F40024C3F81049D3F810498E69C6F366
:1057000012063443C3F81049012A22D000EB451297
:10571000D2F8003943F00443C2F800398A6932B341
:10572000D0F83428097801F00F03012199400A4389
:10573000C0F8342826E02640C3F81069D3F8104991
:1057400044F40024C3F81049D3F810496FF312044D
:10575000D8E7496919B100EB4512C2F8141900EBFA
:105760004510D0F8001941F00441C0F8001909E0D3
:10577000086908B1C3F8140BD3F8000B40F00440DB
:10578000C3F8000B002070BDFFFF07E010B5036CED
:10579000134CA34203D9D0F8003B002B1EDB00239F
:1057A000C0F8103BD0F8103B43F40023C0F8103B86
:1057B000D0F8103B43F01803C0F8103BD0F8103B72
:1057C00043F0C043C0F8103B012907D1C0F8142BA7
:1057D000D0F8001B41F08021C0F8001B002010BD54
:1057E0000A30544F4A780B78012A00EB43100BD053
:1057F000D0F8002B22F40012C0F8002B09790329FD
:1058000014D0022912D017E0D0F8002922F4001297
:10581000C0F800290979032901D002290CD1D0F858
:10582000001941F08051C0F8001905E0D0F8001BC4
:1058300041F08051C0F8001B002070470A784B7877
:10584000D1B200EB4110012B12D0D0F8001B00297F
:1058500006DB2AB1D0F8001B21F08041C0F8001B04
:10586000D0F8001B41F40011C0F8001B0020704765
:10587000D0F80019002906DB2AB1D0F8001921F070
:105880008041C0F80019D0F8001941F40011C0F8A7
:105890000019EBE7F8B50C784F78764DE3B26FF06E
:1058A000604600EB4313012F27D0D3F8104B6FF362
:1058B0001204C3F8104BD3F8104B2C40C3F8104B14
:1058C0008D69002D75D0CC6825446D1EB5FBF4F5AF
:1058D000ADB26C43CC61D3F8104B06EAC5452C43FE
:1058E000C3F8104BD3F8104BCD69C5F312052C4308
:1058F000C3F8104B012A71D0A4E08F691FB3D3F80D
:1059000010796FF31207C3F81079D3F810792F408C
:10591000C3F810798F69CD682F447F1EB7FBF5F56A
:1059200006EAC545D3F810693543C3F81059D3F8D2
:1059300010598E69C6F312063543C3F810590D7914
:10594000012D10D01BE0D3F810692E40C3F8106968
:10595000D3F8105945F40025C3F81059D3F810595D
:105960006FF3120509E0D3F8105925F0C045C3F8CC
:105970001059D3F8105945F00055C3F81059012AB1
:1059800018D000EB4413D3F8004944F00444C3F8A2
:1059900000490C79012C2FD08A6962B3D0F83428E1
:1059A000097801F00F03012199400A43C0F8342817
:1059B0005EE036E04A691AB100EB4413C3F81429DB
:1059C000097901290FD1D0F80818C90500EB441155
:1059D000D1F8002903D442F0005202E02EE042F058
:1059E0008052C1F8002900EB4410D0F8001941F0B2
:1059F0000441C0F800193BE0D0F80848E405D3F8AA
:105A0000004902D444F0005401E044F08054C3F84B
:105A1000004900920A8B93B20A78096900F0D0F924
:105A200026E0D3F8104BCD68C5F312052C43C3F81C
:105A3000104BD3F8104B44F4002459E70A690AB11B
:105A4000C3F8142B097901290CD1D0F80808C00536
:105A5000D3F8000B02D440F0005001E040F0805039
:105A6000C3F8000BD3F8000B40F00440C3F8000B60
:105A70000020F8BDFFFF07E038B500220092134672
:105A80004D780A7842F2107400EB4212012D19D0C1
:105A9000D2F8005B002D3CDAD2F8005B45F00065DF
:105AA000C2F8005B0A7800EB4212D2F8005B45F0C6
:105AB0008045C2F8005B009A521C0092A24221D994
:105AC000012326E0D2F80059002D22DAD2F800593D
:105AD00045F00065C2F800590A7800EB4212D2F88E
