:020000040801F1
:10000000F0B20020A9010108F72601082325010804
:10001000F5260108A3070108654701080000000054
:100020000000000000000000000000007D2A010820
:10003000850801080000000073280108892A0108CA
:10004000C3010108C3010108C3010108C30101087C
:10005000C3010108C3010108C3010108C30101086C
:10006000C3010108C3010108C3010108C30101085C
:10007000C3010108C3010108C3010108C30101084C
:10008000C3010108C3010108C30101080000000009
:10009000000000000000000000000000C301010893
:1000A000C3010108C3010108C3010108C30101081C
:1000B000C3010108C3010108C3010108C30101080C
:1000C000C3010108C3010108C3010108C3010108FC
:1000D000C3010108C3010108C301010800000000B9
:1000E000C3010108C3010108C301010800000000A9
:1000F000000000000000000000000000C301010833
:1001000000000000C3010108C3010108C301010888
:1001100000000000000000000000000000000000DF
:10012000C3010108C3010108C3010108D507010883
:10013000C3010108000000000000000000000000F2
:10014000000000000000000000000000F926010887
:10015000C3010108C3010108C3010108C30101086B
:10016000C3010108C30101080000000000000000F5
:10017000000000000000000000000000000000007F
:1001800000000000C30101080000000000000000A2
:10019000C3010108DFF80CD000F0C6FA00480047A0
:1001A0005D4A0108F0B20020064880470648004733
:1001B000FEE7FEE7FEE7FEE7FEE7FEE7FEE7FEE717
:1001C000FEE7FEE7212B0108950101082DE9F05F0C
:1001D0000546002092469B468846064681464024B6
:1001E0001BE0284641464746224600F08CFA53461B
:1001F0005A46C01A914110D311461846224600F0C3
:1002000073FA2D1A67EB01084F46224601200021A0
:1002100000F06AFA17EB00094E41201EA4F1010418
:10022000DFDC484631462A464346BDE8F09F0000E1
:10023000014610B509683C22B1FBF2F302FB13132F
:10024000B1FBF2F11D480360B1FBF2F302FB1313A3
:10025000B1FBF2F118224360B1FBF2F302FB13137E
:10026000B1FBF2F183600A1D0723B2FBF3F403FB39
:10027000142282618A0040F2B55102F66C32B2FB60
:10028000F1F344334361B2FBF1F301FB132189081D
:10029000C1613B2903D3027D920700D0491C002293
:1002A000074C13460261E25C8A4203D8891A5B1C40
:1002B0000361F8E7491CC16010BD0000C0AC00201C
:1002C0009A4C010870B5054601B90721541A241D3E
:1002D000B4F5B67F09DD286800F036F9A04204DCE9
:1002E0002868401C2860012070BD002C05DA2868B1
:1002F000401E286000F028F90444072094FBF0F029
:10030000401C70BD2DE9F04F89B01D468A468046DD
:10031000002401AF4FF0070B0192079057F824100B
:1003200011F8010B47F8241048B125280DD0BAF177
:10033000010F06D908F8010BAAF1010A5CE0641E5E
:100340005AE0002009B0BDE8F08F11F8010B47F822
:1003500024100028F3D002264FF030095A284BD041
:1003600020DC4D2873D014DC442871D008DC25280B
:10037000DDD041282AD042282ED043283CD130E07D
:10038000462847D0472857D0482862D0492833D13B
:1003900061E0523808282FD2DFE800F0787AA6838F
:1003A0008A97A6A86138192826D2DFE800F00D1335
:1003B00018202E253513255C252560642566256DBE
:1003C000257375258B9BA0006AA000E070A0A96929
:1003D0000091B4E07DA000E088482969F8E788A092
:1003E00007E06969642091FBF0F0133082E0E8686F
:1003F00080E0641C47F82400002C8FDA002088F885
:1004000000000799A8EB01009CE7E8684FF020097D
:10041000009070E07EA0ECE7686900F26C700090DC
:10042000D5E906126846FFF74DFF0099642091FB5D
:10043000F0F200FB12105DE06869042600F26C70B7
:100440000090D5E906126846FFF73CFF53E010E044
:1004500048E0A8684EE0A8680C21173090FBF1F244
:1004600001FB120001E0E8690326401C42E0286914
:10047000FBE768683EE069A0BBE7A8680C2801DAE2
:1004800067A0B6E767A0B4E767A0B2E769A0B0E7E6
:1004900028682FE069A0ACE7A869012608BB0720FF
:1004A00028E0D5E90610401AC01D90FBFBF021E0C2
:1004B000686900F26C700090D5E906126846FFF793
:1004C00001FF17E00126A86914E0A9695846891DB3
:1004D00091FBF0F20BFB1211EA69511AC91D91FB55
:1004E000FBF007E056A084E758A082E7042668697D
:1004F00000F26C70009000218DF8181006A80A21F7
:1005000013E0009A92FBF1F301FB1322303200F862
:10051000012D009A92FBF1F2009232B901E000F84D
:10052000019D321EA6F10106F9DC321EA6F101067C
:10053000E7DC5EE710F8011B0029FBD100994A1E99
:1005400000920029F6DC54E781070CD1642190FB6E
:10055000F1F201FB120151B94FF4C87190FBF1F2B5
:1005600001FB120018B1002000F26D10704701204D
:10057000FAE7000053756E004D6F6E00547565000C
:1005800057656400546875004672690053617400D1
:1005900053756E646179004D6F6E646179005475B6
:1005A0006573646179005765646E65736461790091
:1005B0005468757273646179004672696461790088
:1005C0005361747572646179000000004A616E00C5
:1005D000466562004D617200417072004D617900A4
:1005E0004A756E004A756C0041756700536570006E
:1005F0004F6374004E6F760044656300A84C010899
:1006000025612025622025652025542025590000DC
:1006100025592D256D2D2564000000000A000000DD
:10062000414D0000504D000025493A254D3A2553D3
:100630002025700025483A254D00000009000000E3
:10064000256D2F25642F25790000000025483A25C7
:100650004D3A25530000000040EA01039B0703D0F8
:1006600009E008C9121F08C0042AFAD203E011F8F1
:10067000013B00F8013B521EF9D27047D2B201E0B3
:1006800000F8012B491EFBD270470022F6E710B597
:1006900013460A4604461946FFF7F0FF204610BDF0
:1006A00010B54843044604F02DFA002805D0002177
:1006B000002C02D0641E0155FAE710BD30B50B4680
:1006C000014600202022012409E021FA02F59D4282
:1006D00005D303FA02F5491B04FA02F52844151E56
:1006E000A2F10102F1DC30BD202A04DB203A00FA3D
:1006F00002F1002070479140C2F1200320FA03F379
:10070000194390407047202A04DB203A21FA02F076
:100710000021704721FA02F3D040C2F1200291403B
:100720000843194670470000064C074D06E0E06894
:1007300040F0010394E8070098471034AC42F6D328
:10074000FFF72CFD004D0108204D010870B58C18F5
:1007500010F8015B15F0070301D110F8013B2A11D5
:1007600006D110F8012B03E010F8016B01F8016BC2
:100770005B1EF9D12B0705D40023521E0DD401F8BE
:10078000013BFAE710F8013BCB1A921C03E013F887
:10079000015B01F8015B521EF9D5A142D8D30020BC
:1007A00070BDFEE770B50A4A0021C3B2002001EB1C
:1007B00081054400166804EB8514401C335534440D
:1007C000A0286370F5DB491C8029EFDB70BD0000B9
:1007D00018000020014800F0DBB8000010A5002040
:1007E00001681823CAB2103AB2FBF3F2054B6FF35B
:1007F0000901032A9B5CC36500D9091D8165084670
:10080000704700007A4C010810B5014600208B6942
:100810008A6A4FF0C07453B1B3F5005F15D072B15E
:10082000012A0CD0022A0AD0032A09D104E01AB105
:10083000012A06D0022A03D1C96AC90100D50120C4
:1008400010BDC96AA142FAD010BD002AF7D0012A12
:10085000F2D0022AF3D0032AF3D010BD30B50468D9
:10086000256825F480252560046863608368402B33
:10087000036803D099600068C26030BD9A60006868
:10088000C16030BD7047000010B53E493E4C0022AB
:1008900008601021204600F0F4FA002204212046CE
:1008A00000F0EFFA282000F0E5F9012204212046AB
:1008B00000F0E7FA142000F0DDF90121042002F035
:1008C00003F8012000F0D6F90021042001F0FCFF1C
:1008D000012000F0CFF90021062001F0F5FF0121F1
:1008E000022001F0F1FF3021032001F0EDFF7F2114
:1008F000282001F0E9FF0021292001F0E5FF312146
:10090000142001F0E1FF6621162001F0DDFF4521F2
:10091000102001F0D9FF3421112001F0D5FF33213F
:10092000122001F0D1FF0421082001F0CDFF0521A4
:10093000092001F0C9FF05210A2001F0C5FF9D2112
:100940000B2001F0C1FF8C210C2001F0BDFF5721CD
:100950000D2001F0B9FF0021802001F0B5FF00213A
:10096000132001F0B1FF0020FFF71CFF01F09CFFF6
:10097000642000F07FF90121BDE81040062001F05D
:10098000A3BF0000180000200000024072B6FEE77E
:100990002DE9F84304464FF00009CDF80090634874
:1009A0004FF41651A56D0068B0FBF1F72E6894F86E
:1009B0005C10082000FA01F131420FD021680A686A
:1009C00052070BD50A6822F004020A6094F85C1002
:1009D0008840A860606D40F00100606594F85C108C
:1009E0004FF0010808FA01F0304208D02168496947
:1009F000090604D5A860606D40F00200606594F8B7
:100A00005C1004208840304208D0216809688907BA
:100A100004D5A860606D40F00400606594F85C1037
:100A200010208840304218D021680968090714D581
:100A3000A86020680168490304D50068000308D550
:100A4000A16C07E00168C90503D4016821F0080121
:100A50000160216C09B12046884794F85C10202081
:100A60008840304231D021680968C9062DD5A86078
:100A700094F8350005282068016806D0490347D559
:100A8000006800031DD4616C1CE021F016010160B8
:100A90002068416921F080014161206C08B9A06C97
:100AA00020B12068016821F00801016094F85C1011
:100AB0003F208840A86084F8358084F83490216D08
:100AC0001FE0E16B09B120468847606D00282BD0FC
:100AD000606DC00714D0052084F8350020680168D7
:100AE00021F0010101600098401C0090B84203D839
:100AF00020680068C007F6D184F8358084F8349007
:100B0000E16C002910D001B02046BDE8F043084751
:100B10000168C905D5D4016821F01001016084F88D
:100B2000358084F83490CCE7BDE8F883D401002008
:100B30002DE9F041044600F0A9F906465CB1022017
:100B400084F83500002584F834502068016821F0CD
:100B5000010101600DE00120BDE8F08100F096F98F
:100B6000801B052805D920206065032084F8350006
:100B7000F2E720680068C007F0D1226811682048B9
:100B80000140D4E901031843D4E903363343184341
:100B900063691843A3691843E3691843236A184338
:100BA0000843616A042903D1D4E90B1319430843AC
:100BB000106020684069666A20F0070130460E43E5
:100BC000012704280CD1A06A0643E06A40B1204600
:100BD000FFF71AFE20B14020606584F83570BAE74F
:100BE000206846612046FFF7FBFD94F85C203F211A
:100BF00091408160656584F835700020ACE70000A5
:100C00003F8010F02DE9F0410446866D90F83400E5
:100C1000002501280DD0012084F8340094F83570A7
:100C20000020012F07D084F8340002252846BDE8B3
:100C3000F0810220FBE7022784F8357060652046CA
:100C4000FFF70CFE94F85C103F208840B0602068ED
:100C5000016841F016010160206C20B12068016834
:100C600041F0080101602068016841F00101016064
:100C7000DCE7000070B5044600F008F90546601C8A
:100C800002D004480078044400F000F9401BA04260
:100C9000FAD370BDC80100202DE9F84FDFF8B8A1E4
:100CA0000022012403254FF00F090AF1040BAAF1D9
:100CB000040E00BF0B6804FA02F63340B34273D14E
:100CC0000F7907F00307012F01D0022F16D1876893
:100CD0004FEA420805FA08FC27EA0C07D1F80CC0D5
:100CE0000CFA08FC4CEA070CC0F808C04768B74388
:100CF0000E79C6F3001696403E4346600E79F643E1
:100D0000B6070DD0C768560005FA06FC27EA0C079F
:100D1000D1F808C00CFA06FC4CEA070CC0F80CC06D
:100D20000E7906F00306022E10D1D60800EB8608D5
:100D3000D8F8206057074FEAD76C09FA0CF7BE4382
:100D40000F6907FA0CF73743C8F8207006684FEAB6
:100D5000420C05FA0CF7BE430F7907F0030707FAB8
:100D60000CF7374307604E6816F4403F6DD03B4E9A
:100D7000376847F480473760366822F0030706F487
:100D800080460096364E07EB060CDCF8086897079D
:100D90003F0F09FA07F826EA0806DFF8C880404541
:100DA00003D14FF000081EE04FE0DFF8BC80404563
:100DB00002D14FF0010816E0DFF8B080404502D1C3
:100DC0004FF002080FE0DFF8A880404502D14FF055
:100DD000030808E0DFF89C80404502D14FF004088A
:100DE00001E04FF0070808FA07F848EA0608CCF8CF
:100DF0000888DAF800605746D1F804C09E435FEADD
:100E0000CC2C00D51E433E60DBF800605F46D1F875
:100E100004C09E435FEA8C2C00D51E433E60DEF882
:100E200000607746D1F804C09E435FEA8C3C00D551
:100E30001E433E60084F083F3E68D1F804C09E4301
:100E40005FEACC3C00D51E433E60521C102AFFF4E2
:100E500031AFBDE8F88F0000083C01404438024043
:100E6000003001400000024000040240000802403F
:100E7000000C0240001002400069084000D0012030
:100E800070470AB1816170470904FBE70148806837
:100E900070470000C80100200248816802781144B0
:100EA00081607047C80100200B4810B5016841F40B
:100EB00000710160016841F480610160016841F4E2
:100EC00080710160032000F06FF80F2000F006F839
:100ED00000F024F8002010BD003C024070B50D4D1C
:100EE00004464FF47A712878B1FBF0F00A4909689A
:100EF000B1FBF0F001F040FA48B9102C07D2002203
:100F00002146501E00F030F800206C6070BD0120BA
:100F100070BD0000C8010020D40100200A4808B5B7
:100F2000016841F480410160006800F48040009055
:100F30000548001F016841F080510160006800F021
:100F40008050009008BD000044380240002809DBB2
:100F500000F01F02012191404009800000F1E020D3
:100F6000C0F8001170470000F0B40E4B1B680C462F
:100F7000C3F30223C3F10705042D00D90425191D6D
:100F8000072901D2002300E0DB1E012606FA05F145
:100F9000491E214099409E40761E16403143F0BCC8
:100FA00003F054BC0CED00E0064900F007020868AD
:100FB0004FF6FF03184040EA0220034A104308603E
:100FC000704700000CED00E00000FA057047006873
:100FD000416200207047F0B50368586A39B19C6AD5
:100FE0004FF4827600EB144400204D1E0AE040EAE4
:100FF000024098620FE006EB8007DF59401C04EBCB
:101000001744C0B2A842F6D344EA02404FF48072BB
:1010100002EB810158500020F0BDD0F8080502F025
:1010200077B801EBC10200EB8202D0F80805D26C60
:1010300001F0E2BF01EBC10200EB8202D0F808052B
:10104000D2F88C2202F02DB8D0F8080502F062B870
:101050000A0601F00F0101EBC10100EB810101D58E
:101060003C3101E001F51F71006803F0C3B970B5B0
:1010700004460B0601F00F0000EBC00104EB8101F8
:101080004FF001024FF0000503D581F83D203C31BF
:1010900003E081F87D5201F51F71087094F8BC04DB
:1010A000012808D084F8BC24206802F05DFE84F892
:1010B000BC54002070BD022070BD70B5044601F024
:1010C0000F006268904201D9012070BD0B0601F04B
:1010D0000F0101EBC10104EB81014FF001024FF060
:1010E000000503D581F83D203C3103E081F87D52B5
:1010F00001F51F718D70087094F8BC04012808D0A8
:1011000084F8BC24206803F02BF884F8BC54002039
:1011100070BD022070BD01F00F0101EBC10100EBB9
:101120008100D0F89C0270472DE9F04104460F067B
:1011300001F00F0000EBC00104EB81014FF001064C
:101140004FF0000503D581F83D603C3103E081F8A4
:101150007D5201F51F710870CA600B714A7802B1A7
:101160000881022B00D14D7194F8BC04012809D0EC
:1011700084F8BC64206802F04FFD284684F8BC5413
:10118000BDE8F0810220FBE770B50C4601F00F05C9
:1011900005EBC50100EB8101C1F89432C1F88C2246
:1011A0000023C1F89C3281F87D3281F87C520369BA
:1011B00001F51F71012B00D14A612207027C0068F2
:1011C00003D003F025F8002070BD02F00FFFFAE70E
:1011D00070B504460D4601F00F006168884201D9E0
:1011E000012070BD29064FF000064FF0010207D51F
:1011F00000EBC00104EB810181F83D203C3107E0A8
:1012000005EBC50104EB810181F87D6201F51F71D9
:101210008A70087094F8BC04012807D084F8BC24B4
:10122000206802F0C9FF280702D007E0022070BD45
:10123000217C04F2C442206802F066FF84F8BC649A
:10124000002070BD70B50C4601F00F0505EBC5011F
:1012500000EB81014B65CA640023CB65012381F853
:101260003D3001F83C5F0369012B00D14A61220740
:10127000027C006803D002F0CBFF002070BD02F0BA
:10128000B5FEFAE72DE9FC5F05680446284603F041
:1012900052F900287DD1206803F079F9002878D030
:1012A000D5F80808C0F30D20C4F8FC04206803F04A
:1012B0006EF9800704D52068416901F0020141619F
:1012C000206803F064F9C10604F2C440009034D5EC
:1012D0002068816921F0100181612F6A07F00F00F9
:1012E00000EBC00004EB8006C7F3434006F51F7611
:1012F000022802D0062811D01AE047F6F070074203
:1013000016D0C7F30A1217462846316903F043F98D
:10131000306938443061306A384408E00822284691
:10132000009903F038F9306AC7F30A1108443062B3
:101330002068816941F010018161206803F027F97C
:1013400000034FF0080B4FF0000A4FF001097CD565
:101350000026206803F0FAF8074674E0F80770D01A
:10136000F1B2206803F00BF98046C00707D005EB07
:101370004611C1F8089B3146204601F0C3F95FEAE7
:10138000087024D505EB4611C1F808BB2068016C34
:1013900000E025E200EB46100191D0F8082BFC4B51
:1013A000994205D9110403D54FF40041C0F8081B38
:1013B000204600F005FBF6490198884207D92069CC
:1013C000012804D120680121009A02F09DFE5FEA05
:1013D000C86004D505EB46111020C1F8080B5FEA80
:1013E00088701DD56869000605D5D5F8040840F455
:1013F0008061C5F8041806EBC60004EB800090F885
:101400007F1200F51F70012905D180F803A0F1B209
:10141000204600F0EBF905EB46110220C1F8080B5D
:101420005FEA886004D505EB46102021C0F8081B50
:101430005FEA884005D505EB46104FF40051C0F82F
:10144000081B7F08761C002F88D1206803F09FF8C6
:1014500040036FD5206803F072F80746002667E066
:10146000F80763D0F1B2206803F077F88046C00730
:1014700023D006F00F0209FA02F0D5F8342882438F
:10148000C5F8342805EB4610C0F8089920690128F2
:101490000FD106EBC60004EB8000D0E91221114405
:1014A000C16436B9606D20B920680121009A02F04C
:1014B0002BFEF1B22046FFF7B4FD5FEA087003D5BA
:1014C00005EB4611C1F808B95FEAC86004D505EB21
:1014D00046111020C1F808095FEA486004D505EB01
:1014E00046104021C0F808195FEA887017D53146C8
:1014F000284602F0F3FF06EBC60004EB800090F8EC
:101500003F103C30012905D180F803A0F1B22046FC
:1015100000F068F905EB46110220C1F808095FEAFE
:10152000086003D53146204601F052F97F08761C49
:10153000002F95D1206803F02AF8002811DAD5F899
:10154000040820F00101C5F8041894F8F4040128F7
:101550002BD0204600F018FA2068416901F00041C4
:101560004161206803F013F800050BD5D5F8080891
:10157000C00702D0204600F06FFA2068416901F4EC
:1015800000614161206803F002F8C00466D5D5F817
:10159000040820F00100C5F804081021206802F0BA
:1015A0009DFF00214FF67F321FE084F8F4A4002154
:1015B0002046FFF70BFDCFE705EB4110C0F80829E7
:1015C000D0F8003923F40013C0F80039C0F8082B14
:1015D000D0F8003B23F40013C0F8003BD0F8003BE8
:1015E00043F00063C0F8003B491C60688842E3D8C0
:1015F000D5F81C0840F00111C5F81C18206B002814
:1016000028460DD0D0F8840840F00B01C5F88418A6
:10161000D5F8440840F00B012846C5F844180DE001
:10162000D0F8140842F22B010843C5F81408D5F885
:10163000100840F00B012846C5F81018D0F8000833
:1016400020F4FE61C5F80018217C2068009A02F0A1
:101650005BFD2068416901F480514161206802F01E
:1016600096FF800415D5206802F016FB206802F072
:1016700055FFE06000F0A2FA0146227B206802F0EC
:10168000E9FF204600F06AF92068416901F4005141
:101690004161206802F07BFF000707D5204600F07B
:1016A00077F92068416901F008014161206802F082
:1016B0006EFF000616D5A86920F08000A8610126FB
:1016C0000DE000BF06EBC60004EB800090F87F023F
:1016D000012803D1F1B22046FFF7BAFC761C6068FE
:1016E000B042EFD8206802F052FFC00221D5012697
:1016F0004F4616E005EB4610D0F8001906EBC60081
:1017000004EB800090F84020012A09D1002907DA73
:1017100080F83F70F0B240F080012046FFF798FC5F
:10172000761C6068B042E5D82068416901F48011F8
:101730004161206802F02BFF800234D501204B4626
:1017400029E000BF05EB4011D1F8001B00EBC002FF
:1017500004EB820696F88022012A1BD1002919DAAF
:1017600094F8FC2401F4803102F00102914211D17D
:1017700086F87F32A96941F08002AA616969090689
:1017800008D4D5F8040840F40070C5F8040805E052
:101790000A30544F401C61688142D3D820684169A7
:1017A00001F400114161206802F0F1FE400007D50C
:1017B0002046FFF732FC2068416901F08041416119
:1017C000206802F0E4FE40070AD5206845686807F3
:1017D00002D52046FFF738FC206841682943416064
:1017E000BDE8FC9FD0F8080501F0E4BCD0F808057E
:1017F00001F0E2BC2DE9F0418AB0040005D094F874
:10180000BD042668002520B108E001200AB0BDE82B
:10181000F08184F8BC54204600F05EF8032084F880
:10182000BD04F06BC00500D42561206802F0D8FB30
:1018300004F11001282288466846FEF70DFF94E85F
:101840000F0002F037FA0226C8BB0021206802F020
:10185000C1FE002001270EE000EBC00104EB810176
:1018600081F83D7001F83C0F08810D71CD600D616C
:10187000401CC0B28D6161688142EDD8002011E04A
:1018800000EBC00104EB810181F87D5281F87C02FC
:1018900081F88052C1F88852C1F88C52401CC0B205
:1018A000C1F8945261688142EAD8282241466846CC
:1018B000FEF7D2FE94E80F0002F0D8FA10B184F8D7
:1018C000BD64A2E784F8385084F8BD74206802F043
:1018D000BFFA00209AE7000010B586B00446142134
:1018E0006846FEF7D2FE2068B0F1A04F2FD119480C
:1018F0000021026842F001020260006800F001006D
:1019000005904FF4C05000900220CDE90101032062
:1019100003900A20049069460F48FFF7BDF90D486F
:10192000001D016841F0800101600A48143001681F
:1019300041F4804101600068002200F4804005907D
:1019400011464320FFF710FB4320FFF7FFFA06B0D4
:1019500010BD0000303802400000024070B504465F
:10196000C068012570B1022801D0FFF70FF82946A1
:10197000D4F8080501F076FCD4F80805BDE87040FD
:1019800001F031BC0025F2E7D0F8080501F054BCA5
:10199000D0F8080501F05ABC10B5044690F8BC0414
:1019A00001280BD0012084F8BC0484F8381020688A
:1019B00002F03EFE002084F8BC0410BD022010BDE1
:1019C0002DE9F04100F2C441D0F80845054604F283
:1019D000AA200F46064601F033FF94F8AA12002011
:1019E000C90603D13146204601F0E4FC94F8AA125E
:1019F00001F01F01012903D13146204601F01EFDEF
:101A0000002806D13946D5F80805BDE8F04101F0B7
:101A100035BCBDE8F08110B50446006894F8BC14EC
:101A2000012906D0012184F8BC14A16A012902D041
:101A300008E0022010BDA169012903D0816B41F4A7
:101A400080318163206802F024FD206802F0F2F901
:101A5000002084F8BC0410BD10B50446D0F8080579
:101A600001F04EFC2068D0F8001E41F00101C0F8E2
:101A7000001E206A002804D00248016841F00601D7
:101A8000016010BD10ED00E02DE9F0470E460500A5
:101A900065D0DFF81481D8F80000F7B200F0070035
:101AA000B04207D288F80070D8F8000000F00700B4
:101AB000B04254D128683D4C810712D5400703D568
:101AC000206840F4E05020602878000703D52068A3
:101AD00040F4604020602068A96820F0F0000843CE
:101AE00020602878C0072DD030496868083901285F
:101AF00012D0022813D0032811D0096889070029C1
:101B00002DDA216821F0030101432160FFF7BEF9BE
:101B1000814641F2883A0EE009688903EFE70968D7
:101B20008901ECE7FFF7B2F9A0EB0901514502D9B1
:101B30000320BDE8F0872068696800F00C00B0EB76
:101B4000810FEFD1D8F80010404601F00701B142F3
:101B500007D90770006800F00700B04201D00120EB
:101B6000E7E72878400705D52068E96820F4E050C9
:101B7000084320602878000706D52068296920F4EA
:101B8000604040EAC100206000F03EF82168084A49
:101B9000C1F30311515CC84006490860064800685B
:101BA000FFF79CF90020C4E7003C024008380240DF
:101BB000824C0108D4010020CC01002001480068BB
:101BC00070470000D40100200448054900680968F6
:101BD000044AC1F38221515CC8407047D4010020FF
:101BE00008380240924C0108044805490068096819
:101BF000044AC1F34231515CC8407047D40100200F
:101C000008380240924C0108154810B5006810F0E1
:101C10000C02144813D04110042A0FD0082A0ED108
:101C20000F4C241F2268236802F03F025B0207D595
:101C30002068C0F38810A0FB010106E0084610BD33
:101C40002168C1F38811A1FB00010023FEF7BEFA51
:101C50002168C1F30141491C4900B0FBF1F010BDFE
:101C6000083802400024F4002DE9F84F04006ED03B
:101C70002078DFF84C93C007A9F104054AD009F198
:101C800004000168C1F38101012908D00068C0F394
:101C9000810002280AD1D9F80000400206D5286840
:101CA000800337D560680028E1D033E06068B0F584
:101CB000803F10D0B0F5A02F286810D020F48030DD
:101CC0002860286820F4802028606068A8B1FFF7A9
:101CD000DDF806460DE0286840F48030F4E740F473
:101CE00080202860F7E700BFFFF7D0F8801B64284A
:101CF00073D828688003F7D50CE0FFF7C7F80646CD
:101D000005E000BFFFF7C2F8801B6428F0D8286800
:101D10008003F7D42078DFF8AC8280074FF0000A08
:101D20003ED5A748001D016811F00C0F08D00068CF
:101D3000C0F3810002280BD1D9F80000400207D47B
:101D40002868800716D5E068012800D112E033E149
:101D5000E068B8B10120C8F80000FFF797F8064620
:101D600005E000BFFFF792F8801B0228C0D8286862
:101D70008007F7D52868216920F0F80040EAC10003
:101D800028600DE0C8F800A0FFF780F8064604E0E0
:101D9000FFF77CF8801B02281FD828688007F7D43B
:101DA0002078000722D5864F87486169703771B166
:101DB00001210160FFF76AF8064604E0FFF766F8C4
:101DC000801B022809D838688007F7D50EE0C0F8D4
:101DD00000A0FFF75BF8064605E082E0FFF756F843
:101DE000801B02287DD838688007F7D42078400708
:101DF00068D5DFF8CCB100270BF13C0BDBF8000015
:101E0000C0000BD4DBF8001041F08051CBF800107B
:101E1000DBF80000012700F0805000906B4E306826
:101E2000C00510D4306840F480703060FFF72EF8A1
:101E3000009005E0FFF72AF80099401A022850D8D0
:101E40003068C005F6D55E4EA0686C3601280FD00C
:101E50000528306810D020F001003060306820F094
:101E600004003060A068B8B1FFF710F800900FE0F0
:101E7000306840F00100F4E740F004003060F7E71C
:101E8000FFF704F80099411A41F28830814266D880
:101E900030688007F4D50EE0FEF7F8FF009007E009
:101EA000FEF7F4FF0099411A41F28830814256D87A
:101EB00030688007F4D42FB1DBF8001021F0805196
:101EC000CBF80010A069C8B33D49091D0968C1F3EA
:101ED000810102294AD00228504607D0C8F8600084
:101EE00000E03CE0FEF7D2FF04463BE04746C8F87E
:101EF0006000FEF7CBFF064605E000BFFEF7C6FF19
:101F0000801B02282BD828688001F7D4D4E9070168
:101F10000843A16A2E4A490802EB0141626A41EA7C
:101F20008211084394F82C1040EA0161C9F80010AE
:101F300001203866FEF7AAFF044606E03EE000BF37
:101F4000FEF7A4FF001B022809D828688001F7D5F6
:101F500034E000BFFEF79AFF001B022802D90320DD
:101F6000BDE8F88F28688001F4D427E00128F7D075
:101F7000D9F80000E26900F4800191421CD1226A84
:101F800000F03F01914217D147F6C071626A0140EB
:101F9000B1EB821F10D1A26A4FF0FF3300F4403141
:101FA00003EB5202B1EB024F06D194F82C1000F073
:101FB0007060B0EB016F01D00120D1E70020CFE7C6
:101FC0000438024000004742800E47420070004043
:101FD0000000FFFF704770B5040009D0606A00255B
:101FE00040B125616561A56294F8510040B10CE0F3
:101FF000012070BD6068B0F5827FF4D0E561F2E742
:1020000084F85050204600F045F8022084F8510032
:102010002068016821F040010160A088218900F456
:10202000827001F404410843A18901F4006108436E
:10203000217C01F002010843217D01F001010843E8
:10204000218B01F400710843217F01F0380108431E
:1020500094F8201001F080010843218D01F4005113
:10206000084321680860A069042101EA104094F83F
:10207000241001F010010843216848602068C169FC
:1020800021F40061C1616565012084F851000020E0
:1020900070BD000070B586B0064614216846FEF794
:1020A000F4FA1F493068884238D11E48002501687B
:1020B00041F480510160006800F480500590194897
:1020C0001438016841F0010101600068694600F0C0
:1020D00001000590A02000900220CDE90105032019
:1020E0000390052004901048FEF7D6FD104C0F48D1
:1020F00020604FF0C06060604020C4E9020500012C
:10210000C4E90405A561E561256220466562FEF724
:102110000FFD08B1FEF73AFCB464A66306B070BDCB
:102120000030014044380240000002405864024040
:1021300010A500202DE9F84F044690F85000002724
:102140001D461646894601280DD04FF0010B84F834
:1021500050B0FEF79BFE804694F85100BA46012825
:1021600004D0022793E00220BDE8F88FB9F1000FF8
:1021700073D0002E71D0032084F85100C4F854A00D
:10218000C4F83090A686E686C4F838A0A4F83CA02F
:10219000A4F83EA0C4F844A0C4F840A0A068B0F5DC
:1021A000004F09D12068016821F0400101602068DA
:1021B000016841F48041016020680168490603D448
:1021C000016841F040010160E068B0F5006F6068AF
:1021D00003D030B3012E24D041E008B1012E1CD130
:1021E000206B21680088C86006E020688168890744
:1021F00009D5216B0988C160206B801C2063E08EAB
:10220000401EE08609E0FEF741FEA0EB0800A84270
:1022100002D3681C01D031E07DB3E08E0028E4D108
:1022200020E0206B21680078087306E02068816850
:10223000890709D5216B09780173206B401C206345
:10224000E08E401EE0860AE0FEF720FEA0EB0800CC
:10225000A84203D3681C02D010E017E06DB1E08EF5
:102260000028E3D142462946204600F07FFB08B112
:1022700020206065A06818B106E0FFE7032706E0AC
:102280002068C16880680090606D00B1012784F803
:1022900051B084F850A0384666E700002DE9F041BF
:1022A000044690F850000026012809D0012784F840
:1022B000507094F851000025012804D002264EE009
:1022C0000220BDE8F08189B182B1032084F8510079
:1022D00065652163A286E286A56365642564A5879A
:1022E000E587A068B0F5004F02D00BE0012636E08C
:1022F0002068016821F0400101602068016841F414
:1023000080410160A16C18480864A16C1748C8633B
:10231000A16C1748C864A06C0565E38E2268216B28
:102320000C32A06CFEF76EFC38B1606D40F010000E
:102330006065012684F8517011E020680168490643
:1023400003D4016841F0400101602068416841F018
:10235000200141602068416841F00201416084F839
:1023600050503046ADE70000FF2801080929010858
:10237000DD2801087047704710B5401EB0F1807F1E
:1023800001D3012010BD4FF0E02460610F216017E0
:1023900002F05CFA0020A06107202061002010BD3F
:1023A00070B5040004D094F83D00002510B106E09B
:1023B000012070BD84F83C50204600F023F8242012
:1023C00084F83D002068C16821F40051C1602046B6
:1023D00000F0B4FB2068016921F49041016120689C
:1023E000416921F02A0141612068C16841F400512E
:1023F000C1602564202084F83D0084F83E00002060
:1024000070BD000010B586B0044614216846FEF782
:102410003CF914492068884221D113480021026800
:1024200042F010020260006800F0100005900E48B3
:102430001438026842F001020260006800F00100F6
:1024400005904FF4C06000900220CDE90101032007
:1024500003900720049069460448FEF71DFC06B06F
:1024600010BD00000010014044380240000002404E
:102470002DE9F843044690F83D001F4616460D46E8
:1024800020284CD1C5B1BEB194F83C00012846D0FB
:10249000012084F83C004FF00008C4F8408021205F
:1024A00084F83D00FEF7F2FCA6848146E684A0682D
:1024B000B0F5805F03D004E00120BDE8F883206917
:1024C00028B12E465FF0000584F83C800EE000261F
:1024D000FAE78021204600F0B7FBA0B9AEB116F8AC
:1024E000010B21684860E08C401EE084E08C4B4684
:1024F0004FF0000200970028EBD14FF0400120463A
:1025000000F0A2FB30B10320D7E735F8020BC0F38F
:102510000800E6E7202084F83D000020CDE70220F7
:10252000CBE7FEE7F0B500230A24302537261F4607
:1025300011E000BFB4EB107F02D905EB107C01E085
:1025400006EB107C01F813C001EB430C00015B1C8F
:102550008CF80170DBB29342ECD3F0BD094808B5AA
:10256000016841F4800101600068002200F48000ED
:10257000009011463B20FEF7F7FCBDE808403B20E9
:10258000FEF7E4BC303802402DE9F04387B0142157
:102590006846FEF77AF834480025016841F00401E6
:1025A0000160016801F004010591016841F08001BA
:1025B0000160016801F080010591016841F00101AD
:1025C0000160016801F001010591016841F002011B
:1025D00001600068254E00F002004FF400540590A1
:1025E000002221463046FEF74CFCDFF884800122B1
:1025F0001C214046FEF745FCDFF878904FF49057D9
:10260000012239464846FEF73CFC00940124694605
:1026100030460194CDE90245FEF73EFB0420CDE9AA
:10262000000469464046CDE90245FEF735FB03202C
:102630001826CDE90240CDE9006469464046FEF720
:102640002BFBCDE9007469464846CDE90245FEF70B
:1026500023FB02200096CDE9015069464846FEF76B
:102660001BFB07B0BDE8F083303802400008024091
:1026700000000240000402400F4810B50D490160FF
:102680004FF48271416000218160C1604FF400729B
:102690000161C0E90512C1610162416281620A21E2
:1026A000C162FFF798FC002803D0BDE81040FEF798
:1026B0006DB910BD00300140B8A400200C4810B521
:1026C0000A4901604FF4E1314160002181600C2230
:1026D000C160C0E904128161C161FFF761FE002899
:1026E00003D0BDE81040FEF751B910BD0010014005
:1026F00070A50020FEE7FEE70148FEF7C3BD00001D
:10270000B4A700202DE9F04103680D4604461E6C75
:1027100003EB4511D1F8080BD4F810E04FF4004753
:102720004FF0200C04F2C442BEF1010F09D0DFF8D3
:1027300098E0764539D1020432D500BFC1F8087B54
:102740003FE0224B5FEA007E04D59E4239D9000467
:10275000F4D436E05FEA806E02D5C1F808CB30E0F1
:1027600010F0280F2DD19E4201D90004E6D405EBCC
:10277000C50004EB8000D1F8101BD0F89832C1F3EB
:102780001201591AC0F89C1200F51F70ADB9836987
:102790001BB10269114401610FE0012120680AE0C8
:1027A00080060AD5C1F808CB07E035B9D4F8940201
:1027B00018B90021184601F0A7FCE9B22046FEF73F
:1027C00039FC0020BDE8F0810A31544F0A30544FE3
:1027D0002DE9F84F0E4601EBC60100EB810481465E
:1027E0000568616DE06D3C34884202D90120BDE886
:1027F000F88F081AE168814200D20846C01C870899
:1028000005EB46181BE000BFA0EB010AE06850454D
:1028100000D282460AF10300870899F81000009060
:102820001FFA8AF3F2B22846216901F087FF216975
:1028300001EB0A002061216A01EB0A002062D8F84E
:10284000180980B2B84205D3216AA069814201D239
:102850000028D9D1216AA069884208D806F00F0162
:1028600001208840D5F834188143C5F83418002079
:10287000BDE7704710B5012210210A48FEF701FBA1
:102880000021172000F020F89F21182000F01CF8EC
:102890000021192000F018F87F21BDE810401A200F
:1028A00000F012B80000024010B5FFF7E3FF22204D
:1028B00001F05AFF03484FF420410068BDE8104082
:1028C00001F09ABF1800002010B50C46C0B201F00C
:1028D0004BFFE0B2BDE8104001F06ABF10B5806B5D
:1028E00001684A6822F003024A60416D41F010011C
:1028F0004165012180F85110FFF76CFB10BD10B548
:10290000806BFFF738FD10BD38B50546846BFEF7C8
:10291000BDFA024628680068C00523D420684168D3
:1029200021F0200141602068416821F002014160EE
:102930006421204600F01AF818B1606D40F02000C4
:102940006065A068002118B92068C268806800909E
:10295000E186012084F85100606D18B12046FFF730
:1029600039FB38BD2046FFF705FD38BD38B50446B4
:102970001248134B0068B0FBF3F04FF47A735843DE
:1029800000906068B0F5827F0DD10B460092002266
:102990008021204600F016F870B1606D40F02000F4
:1029A0006065032038BD009830B1401E009020685B
:1029B0008068C0430006F6D5002038BDD401002051
:1029C00000366E012DE9F8431E46914688460446BE
:1029D000089DFEF75BFA401B351AFEF757FA0746CB
:1029E00025480068C0F3CB30684338E0701C37D00E
:1029F000FEF74CFAC01BA84203D215B1009860B391
:102A00002CE02068416821F0E00141606068B0F589
:102A1000827F0BD1A068B0F5004F02D0B0F5806F77
:102A200004D12068016821F040010160A06AB0F57E
:102A3000005F09D12068016821F40051016020681D
:102A4000016841F400510160012084F85100002028
:102A500084F850000320BDE8F8830025401E009054
:102A60002068816838EA010004D000214945BDD1C1
:102A70000020F0E70121F9E7D40100207047017838
:102A8000407841EA00207047FEF706BA30B593B0AF
:102A900030216846FDF7F9FD14210CA8FDF7F5FD7E
:102AA0001D480025016841F080510160006800F078
:102AB000805011901948016821F4404141F40041CF
:102AC00001600068022400F4404011900120009051
:102AD000000401908001CDE906400420A821CDE941
:102AE00008010A9007200B906846FFF7BDF808B16F
:102AF00072B6FEE70CA90F2081E831004FF4805038
:102B00000F90109002210CA8FEF7BEFF002801D004
:102B100072B6FEE713B030BD40380240007000408E
:102B20000448016841F4700101600249024880399B
:102B30000860704788ED00E00000010870B50446A9
:102B400000680169E26821F4405111430161216983
:102B5000A068E26908436169114308432168CA68B3
:102B600049F20C639A430243CA6020684169A26932
:102B700021F440711143416131492068884202D0FB
:102B80003049884202D1FFF72FF801E0FFF71CF827
:102B9000E2690023192164253226B2F5004F6268EC
:102BA00028D0A0FB0101930F9200FDF70FFB014617
:102BB000B0FBF5F06FF01802504301EB800006EB1C
:102BC0000010B0FBF5F000F0F002B1FBF5F002EB05
:102BD0000012B1FBF5F06FF01803584301EB8000D1
:102BE00006EB0010B0FBF5F000F00F002168104478
:102BF000886070BDA0FB010192185B41FDF7E6FA09
:102C00000146B0FBF5F00201B1FBF5F06FF01803DF
:102C1000584301EB800006EBC000B0FBF5F000F07C
:102C2000F80002EB4002B1FBF5F0584301EB8000E5
:102C300006EBC000B0FBF5F000F00700D6E700009F
:102C400000100140001401402DE9F041984617465C
:102C50000E460446069D27E0681C25D02DB1FEF7E0
:102C600015F9A0EB0800A8421ED920680C3050E8E6
:102C7000001F21F4D07140E80012002AF5D120682D
:102C8000143050E8001F21F0010140E80012002A32
:102C9000F5D1202084F83D0084F83E00002084F81F
:102CA0003C000320BDE8F0812068006836EA00009F
:102CB00004D00020B842CFD00020F3E70120F9E78C
:102CC00010B5D0F8B8220AB152689047002010BD64
:102CD000134610B50A46002100F07CFA002010BD12
:102CE000134610B50A46002100F013FB002010BD6A
:102CF00010B50446802100F0F1FA2046BDE81040EE
:102D0000002100F0EBBA10B50323C0F85821C0F839
:102D10009432C0F85C2113460A46002100F05AFAAA
:102D2000002010BD10B505210023C0F894121A46EA
:102D3000194600F04FFA002010BD10B50223826141
:102D4000C0F89432C26113460A46002100F0E1FA4D
:102D5000002010BD10B504210023C0F894121A46BB
:102D6000194600F0D6FA002010BD000010B50A4642
:102D7000024903A000F0E4F8004810BDB4A500200B
:102D80006E65785F6C696E6B20636F6E6669670055
:102D900012200880004870479801002010B50A46AC
:102DA000024903A000F0CCF8004810BDB4A50020F3
:102DB0006E65785F6C696E6B20696E7465726661B2
:102DC00063650000042008800048704794010020DB
:102DD00010B50A46024903A000F0B2F8004810BD41
:102DE000B4A500204E65784C696E6B0010B50A469C
:102DF000024903A000F0A4F8004810BDB4A50020CB
:102E00004E65784C696E6B2D53544D333246340009
:102E100010B51A2008800A480168001D0468001DCA
:102E20000068081809D008220649FFF77BFB05490E
:102E3000042210312046FFF775FB0248801E10BDAA
:102E4000107AFF1FAE010020F8B504460020ADF84F
:102E5000000048880D46010A082968D2DFE801F021
:102E6000670409176767454ED4F8B412207C0A68D6
:102E700019E0207C02260028D4F8B80205D0C16AE7
:102E8000684688470146467042E0816AF8E7C1B269
:102E9000062921D2DFE801F0030A1014181CD4F827
:102EA000B402426805E06946904725E0D4F8B402D0
:102EB0008268DAB3207CF6E7D4F8B402C268F8E797
:102EC000D4F8B4020269F4E7D4F8B4024269F0E736
:102ED000D4F8B4028269ECE7D4F8B8128B6B2BB348
:102EE000C1B26A462046984706E0207CF0B9D4F883
:102EF000B802416B68468847014609E0207CA8B9C2
:102F0000D4F8B802016B684688470146072048702C
:102F1000EA888AB1BDF8000040B1824200D9024679
:102F2000ADF800202046FFF708FFF8BDFFE729466F
:102F30002046FFF7DDFEF8E72046FFF70BFFF4E73A
:102F400070B5002300281ED00025044602E06D1C49
:102F5000EDB2641C2678002EF9D1022404EB45045E
:102F600014801278CA545B1C0322CA5400245B1CD0
:102F700006E0CA545B1CDAB28C54521CD3B2401C1B
:102F80000278002AF5D170BD01004FF0000004D096
:102F9000012901D0022901D0032070470120704788
:102FA00030B4A0B1D0F8B84200230CB1C0F8B832A8
:102FB000D0F8CC420CB1C0F8CC3209B1C0F8B41290
:102FC000012180F89C12027030BC00F0B3B830BC14
:102FD0000320704710B5D0F8C402FEF76EF8BDE8C4
:102FE0001040FFF7D1BF10B5D0F8C402FEF73FF88C
:102FF000BDE81040FFF7C8BF70B51646044649B19A
:10300000D4F8B80242691AB194F89C02032842D05D
:10301000032070BDD4F89412002504F11400022995
:1030200032D1D0E902318B4206D95A1A8260314638
:103030002046FFF755FE0FE0994214D140688842C0
:1030400011D3D4F8981288420DD20022114620469E
:10305000FFF746FEC4F8985200231A461946204648
:1030600000F0B8F810E0D4F8B802C16829B194F8BB
:103070009C02032801D1204688478021204600F089
:103080002DF92046FFF74EFE94F8A002012806D144
:1030900084F8A05203E0204690470028B9D10020D0
:1030A00070BD10B51346044649B1D4F8B802826920
:1030B0001AB194F89C02032824D0032010BDD4F840
:1030C000941204F5AA70032920D1D0E9021291428A
:1030D0000AD98A1A8260C068824200D30246194621
:1030E0002046FFF7F5FD11E0D4F8B802016929B1D7
:1030F00094F89C02032801D1204688472046FFF718
:1031000029FE03E0204690470028D7D1002010BDBB
:103110000020704710B5012180F89C12D0F8B82229
:1031200012B1526801799047002010BDD0F8C40256
:10313000FDF7F1BF10B5017839BB15490222C1F87E
:103140000805C0F8C4124FF0A04008600520486090
:103150000020C1E90320C1E9062008624862C86274
:1031600008630846FEF746FB08B1FDF70FFC802117
:103170000748FDF72CFF402200210548FDF72BFFF3
:10318000802201210248FDF726FF002010BD00002B
:10319000B4A700200A0601F07F01D0F8C40201EBB9
:1031A000C10100EB810002D590F83E00704790F815
:1031B0007E027047002070470020704710B51C4603
:1031C0001346D0F8C4022246FDF7AEFFBDE810401A
:1031D000FFF7DABE10B5D0F8C402FDF7D5FFBDE8A1
:1031E0001040FFF7D1BE70B50125044680F89C520F
:1031F0000020C4F894026060C4F8A402D4F8BC02B1
:1032000028B1D4F8B8020021426820469047002235
:10321000402311462046FFF7D1FF4026A4F8645111
:103220003346002280212046C4F86061FFF7C6FFC4
:10323000A5840020266270BD90F89C12042903D159
:1032400090F89D1280F89C120020704710B590F8FD
:103250009C12032904D1D0F8B812C96901B188477A
:10326000002010BD01740020704710B5D0F8C402D2
:10327000FEF792FBBDE81040FFF786BE70B504462E
:1032800000F2AA20054600F0DBFA0120C4F89402FF
:10329000B4F8B002C4F8980294F8AA0210F01F0122
:1032A0000AD001290ED0022912D000F08001204658
:1032B000BDE8704000F012B829462046BDE87040D5
:1032C00000F050BB29462046BDE8704000F07BBCB2
:1032D00029462046BDE8704000F0CFBB10B5D0F8BD
:1032E000C402FDF775FFBDE81040FFF74DBE10B5F5
:1032F000D0F8C402FEF78FFBBDE81040FFF744BED4
:1033000090F89C1280F89D12042180F89C120020F5
:10331000704710B5D0F8C402FDF794FFBDE8104027
:10332000FFF732BE70B51E4B0D460646D0F8BC42C4
:103330004FF4C77219461BA001F078FA012084F8F7
:1033400044006878072825D2DFE800F02404100440
:10335000140419002868C4F846006868C4F84A00D4
:10336000EA8821463046FFF7CEFC17E0A16DD1E98F
:10337000000107E0A06D04228068206005E0A16DD7
:10338000D1E903010822C4E9000121463046FFF7D4
:10339000D4FC03E029463046FFF7AAFC002070BDAC
:1033A000C84B010825735B25645D3A2025732020F6
:1033B0000D0A000070B50C46054640F2D3121149C3
:1033C00011A001F033FA607820280ED1A0880428DB
:1033D00002D0052809D106E0E28817494020402A9A
:1033E0000BD9024609E0608808B1002070BD12497F
:1033F000E28840319220922AF3D82846FFF79DFCBC
:10340000012070BD024C010825735B25645D3A20E4
:10341000555342445F4E45585F4C494E4B5F437590
:1034200073746F6D44657669636552657175657314
:103430007420200D0A000000A4000020FFF7BABF8E
:1034400010B5044640F21222044905A001F0EEF93D
:10345000D4F8BC0200210164084610BD384C0108B4
:1034600025735B25645D3A20555342445F4E4558B1
:103470005F4C494E4B5F44617461496E20200D0AD8
:103480000000000070B506460325D0F8BC42FFF7E7
:103490004DFED4E91501098A08444FF42041B0FBE0
:1034A000F1F201FB1200606508B9FFF7FDF9304643
:1034B00000F0B0F8284670BD10B504468121FFF732
:1034C00092FD02212046FFF78EFD002010BD000076
:1034D00070B51E4B064688B040F2451219461CA036
:1034E00001F0A4F9D6F8BC4204F146056878012839
:1034F00004D0032814D0052815D11CE01849012058
:103500004870D4E90012A06DC0E90012A06DFCF76C
:103510008FFE034613A220216846FCF7F3FE02E06B
:10352000A06D21688160304600F074F8FF2068705B
:1035300008B0002070BD002020646065A06DA179F6
:10354000827C61F301028274EDE70000AE4B01085A
:1035500025735B25645D3A20257320200D0A000049
:103560005800002025592D256D2D25642025483A29
:10357000254D3A2553000000322101800048704754
:103580005C00002010B5EE2905D000211180FFF766
:10359000AFFB002010BD12201080014810BD0000BC
:1035A000900000202DE9F041884607461546032685
:1035B00060210120FDF774F80446FE220C490DA09D
:1035C00001F034F9002174B1C4E91481C7F8BC4298
:1035D000A020A565A881A16D8020C881A16D402093
:1035E0000026088201E0C7F8BC123046BDE8F08131
:1035F000754B010825735B25645D3A2055534244A1
:103600005F4E45585F4C494E4B5F496E69742020B0
:103610000D0A0000D0F8BC124023D1E914210A445D
:103620000221FFF7D7BD000010B540F23512034963
:1036300003A001F0FBF8002010BD00009C4B010826
:1036400025735B25645D3A20555342445F4E4558CF
:103650005F4C494E4B5F534F4620200D0A0000003F
:1036600070B50C4605464FF4FB720E490EA001F0F2
:10367000DDF8207810F0600009D0202801D0402823
:103680000DD121462846BDE8704000F087B860782B
:103690000A2804D101220C492846FFF74EFB0020DE
:1036A00070BD0000244C010825735B25645D3A2041
:1036B000555342445F4E45585F4C494E4B5F5365EE
:1036C00074757020200D0A005800002070B5054662
:1036D000032640F217120E490EA001F0A7F8D5F804
:1036E000BC429CB14023022281212846FFF766FD9F
:1036F0000222402311462846FFF760FD0020606546
:1037000084F844002846FFF785FF0026304670BD48
:10371000884B010825735B25645D3A20555342446C
:103720005F4E45585F4C494E4B5F53746172742035
:10373000200D0A002DE9F04116460F460546D0F847
:10374000BC4240F249220B490BA001F06FF8206CFB
:1037500068B994F8440050B10120206433463A46D9
:1037600081212846FFF7D5FD0020BDE8F08101202A
:10377000FBE70000634C010825735B25645D3A207C
:10378000555342445F4E45585F4C494E4B5F54720F
:10379000616E736D697420200D0A00002DE9F041FF
:1037A000064608780D4600F01F07C0F341144FF499
:1037B000E172174917A001F039F8012C04D1012F4B
:1037C00002D1A888012805D029463046BDE8F0413D
:1037D000FFF7A8BD6A78D6F8BC12304600243AB18B
:1037E000032A09D02946FFF783FA2046BDE8F08175
:1037F000012081F85C00F8E70C704C708C70CC7084
:103800000C71FF224A710622FFF797FAEDE70000DC
:10381000E54B010825735B25645D3A20555342440E
:103820005F4E45585F4C494E4B5F56656E646F72F4
:103830005F5265717565737420200D0A00000000E9
:1038400070B5054611F8010B2870087868704C1C9B
:103850002046FFF714F96880A41C2046FFF70FF9F3
:10386000A880A01CFFF70BF9E88070BD38B50446AE
:103870000020ADF8000041B1C4F8B812896A68466A
:103880008847C4F8CC02002038BD032038BD02466A
:103890000320D2F8B832002B02D01B68104618471C
:1038A000704700002DE9F0410F462C4E8978002525
:1038B00004463170012906D939462046FFF718FA27
:1038C0000320BDE8F08194F89C0202280CD0032864
:1038D0001DD039462046FFF70BFA31782046FFF716
:1038E000EFF903252846ECE799B320466160FFF71E
:1038F000CEFF050004D039462046FFF7F9F9F1E77D
:103900002046FFF727FA032084F89C02EAE74FF0ED
:103910000208C1B1606888421BD0C1B22046FFF7DF
:10392000CFF9317820466160FFF7B1FF050010D074
:1039300039462046FFF7DCF921792046FFF7C0F928
:1039400084F89C82CEE784F89C8220466160FFF771
:10395000B7F92046FFF7FEF9C4E70000D8010020C0
:10396000FFF7C5BC2DE9F0410A78002512F060028E
:1039700008D0202A01D0402A72D1D0F8B82292680B
:10398000904732E04B78002201264FF002080A2BC4
:1039900066D2DFE803F0405D6557650805652C28B1
:1039A000FFF752FA5EE004468888D0B9C888C0B9EB
:1039B0004888802815D200F07F0794F89C020328DD
:1039C0000FD084F89E7239462046FFF74EFC204601
:1039D000FFF7C0F917B184F89C8243E084F89C6239
:1039E00040E020463CE0FFF75DFF05463AE0CB882B
:1039F000012B35D190F89C32012B04D0022B02D040
:103A0000032B2DD104E08260012200F1080116E0B1
:103A10000122011D13E090F89C32012B03D0022BF0
:103A200001D0032B1CD1CB88022B19D1C260D0F856
:103A3000A41209B1C0F80C80022200F10C01FFF7BA
:103A40007CF90FE0498801290CD1C0F8A46211E08B
:103A500090F89C32012B08D0022B06D0032B04D007
:103A6000FFF746F92846BDE8F08149880129F9D1D8
:103A7000C0F8A422FFF76EF9F4E72DE9F0410D46F6
:103A8000044628780027097910F060000BD0202820
:103A900001D0402873D1D4F8B80229468268204664
:103AA000904707468CE06878D8B3012822D00328D5
:103AB00065D194F89C02022802D003287CD10BE047
:103AC000002979D0802977D02046FFF707FC802194
:103AD0002046FFF703FC73E0688838B931B18029CC
:103AE00004D0E88810B92046FFF7F8FB2046FFF71E
:103AF00031F965E094F89C020228E1D003285BD1FB
:103B00006888D8BB480602D02046FFF763FA2046F3
:103B1000FFF720F9D4F8B80229468268204690477A
:103B20004EE0FFE794F89C020026022802D003280A
:103B300042D111E009B180293ED1080601F07F0091
:103B400000EB800004EB800101D5143101E001F5A8
:103B5000AA7102220E602BE0080601F00F0000EBB4
:103B6000800004EB80000BD5808C40B101F07F0019
:103B700000EB800004EB800514350CE020E01BE036
:103B8000B0F86401C0B101F07F0000EB800004EBED
:103B9000800505F5AA7541B1802906D02046FFF7BA
:103BA000F9FA10B10120286000E02E6002222946B7
:103BB0002046FFF7C2F803E029462046FFF798F8B1
:103BC0003846BDE8F08170B50646087800240D46F9
:103BD00010F0600003D0202801D0402817D196F8BB
:103BE0009C02012803D0022801D003280FD1287994
:103BF00001280CD8D6F8B8028268304690470446AF
:103C0000E888204306D13046FFF7A4F802E03046AA
:103C1000FFF76EF8204670BD70B50A78012302F0F8
:103C20000F054E78AB401B4CD0F81C58012E17D016
:103C300045EA0343C0F81C3800EB4210D0F8002BD3
:103C400012040BD4D0F8002B8B890979C3F30A0333
:103C50001A4344EA81410A43C0F8002B002070BD9A
:103C60009BB21D43C0F81C5800EB4210D0F800393D
:103C70001B04F3D4D0F800398D890979C5F30A05FE
:103C800089042B4341EA82510B432343C0F8003996
:103C9000E4E7000000800010D0F800196FF30A017B
:103CA000C0F80019D0F8041841F48071C0F8041865
:103CB0000020704770B5044606990A9E049D0D9831
:103CC000012916D0E06840F04000E060204600F096
:103CD0002BF8A16B1EB321F48031A163012D07D114
:103CE000A16841F00601A160A16841F02001A16036
:103CF00070BDA16B21F48031A163E168094A1140D4
:103D0000E160E16821F44011E160012803D1E0683D
:103D100040F48010E060204600F006F8DEE741F451
:103D20008031DAE7BFFFBDFF08B500220D490092E0
:103D3000009B5B1C00938B420CD80369002BF7DAC5
:103D40000092026942F001020261009A521C009244
:103D50008A4201D9032008BD0269D207F5D10020AB
:103D600008BD0000400D030030B54C780A780123EF
:103D700000EB4212012C2CD0D2F8004B002C0BDAB5
:103D8000D2F8004B44F00064C2F8004BD2F8004B6C
:103D900044F08044C2F8004BD0F83C580C7804F052
:103DA0000F0403FA04F425EA0444C0F83C48D0F8B0
:103DB0001C48097801F00F018B4024EA0341C0F848
:103DC0001C18D2F8000B19490840C2F8000B00205B
:103DD00030BDD2F80049002C0BDAD2F8004944F08B
:103DE0000064C2F80049D2F8004944F08044C2F8A7
:103DF0000049D0F83C480D7805F00F0503FA05F5A9
:103E0000ADB2AC43C0F83C48D0F81C48097801F08A
:103E10000F018B4099B28C43C0F81C48D2F80009BE
:103E200003490840C2F80009D1E700000078F3EF29
:103E3000007833ECD0F8001E21F00301C0F8001E1A
:103E4000D0F8041821F00201C0F8041800207047CF
:103E5000D0F8001E21F00301C0F8001ED0F80418AD
:103E600041F00201C0F80418002070472DE9F04F1E
:103E700000250E460446DDF82CC0DDF824B0109F66
:103E80002846294604EB8002C2F80411401C0F2882
:103E9000F8D32046C7B1806B20F40012A263A06B58
:103EA00040F40022A26308468846C4F8000ED4F805
:103EB00000182046C4F80018BCF1010F16D0D0F845
:103EC000001841F0030116E0D0F8040840F00202A7
:103ED000C4F80428A06B40F40012A263A06B20F485
:103EE0000022A263A06B20F48022DBE7D0F8001848
:103EF0000BB141F00101C0F80018102100F0EEFAFA
:103F000000B10125204600F0CBFA00B10125404662
:103F1000C4F81088C4F81488C4F81C8800214FF035
:103F200000694FF0904A4FF67F3314E004EB4112E2
:103F3000D2F800C9BCF1000F06DA11B1C2F800A92D
:103F400004E0C4F8009901E0C2F80009C2F81009C1
:103F5000C2F80839491C8E42E8D8002115E000BF9C
:103F600004EB4112D2F800CBBCF1000F06DA11B11C
:103F7000C2F800AB04E0C4F8009B01E0C2F8000BFB
:103F8000C2F8100BC2F8083B491C8E42E8D8D4F89E
:103F9000101821F48072C4F81028A0616FF08040DE
:103FA0006061BBF1000F03D1A06940F01000A06177
:103FB000A06909490843A0610C9818B1A06940F0B4
:103FC0000800A061012F03D1A06904490843A06142
:103FD0002846BDE8F08F000000383C800400004017
:103FE000816821F0010181600020704770B50D7873
:103FF0004E78444CEBB200EB4313012E21D0D3F8A2
:10400000100B6FF31200C3F8100BD3F8100B204005
:10401000C3F8100B886908B1C8688861C868C861AE
:10402000D3F8100B40F40020C3F8100BD3F8100B9A
:10403000CC69C4F312042043C3F8100B012A55D0F5
:1040400058E08E69002ED3F8106932D06FF3120653
:10405000C3F81069D3F810692640C3F810698E6957
:10406000CC68A64200D98C61D3F8104944F40024EE
:10407000C3F81049D3F810498E69C6F312063443C9
:10408000C3F81049012A22D000EB4512D2F80039BA
:1040900043F00443C2F800398A6932B3D0F83428B7
:1040A000097801F00F03012199400A43C0F8342830
:1040B00026E02640C3F81069D3F8104944F40024E0
:1040C000C3F81049D3F810496FF31204D8E74969CF
:1040D00019B100EB4512C2F8141900EB4510D0F8E5
:1040E000001941F00441C0F8001909E0086908B15D
:1040F000C3F8140BD3F8000B40F00440C3F8000BD6
:10410000002070BDFFFF07E010B5036C134CA34205
:1041100003D9D0F8003B002B1EDB0023C0F8103B76
:10412000D0F8103B43F40023C0F8103BD0F8103B0C
:1041300043F01803C0F8103BD0F8103B43F0C043E5
:10414000C0F8103B012907D1C0F8142BD0F8001B90
:1041500041F08021C0F8001B002010BD0A30544FF0
:104160004A780B78012A00EB43100BD0D0F8002BD3
:1041700022F40012C0F8002B0979032914D0022977
:1041800012D017E0D0F8002922F40012C0F800295C
:104190000979032901D002290CD1D0F8001941F086
:1041A0008051C0F8001905E0D0F8001B41F08051A3
:1041B000C0F8001B002070470A784B78D1B200EBA2
:1041C0004110012B12D0D0F8001B002906DB2AB1C8
:1041D000D0F8001B21F08041C0F8001BD0F8001B74
:1041E00041F40011C0F8001B00207047D0F80019FE
:1041F000002906DB2AB1D0F8001921F08041C0F86F
:104200000019D0F8001941F40011C0F80019EBE7CB
:10421000F8B50C784F78764DE3B26FF0604600EB5E
:104220004313012F27D0D3F8104B6FF31204C3F8B8
:10423000104BD3F8104B2C40C3F8104B8D69002D58
:1042400075D0CC6825446D1EB5FBF4F5ADB26C435A
:10425000CC61D3F8104B06EAC5452C43C3F8104B8C
:10426000D3F8104BCD69C5F312052C43C3F8104B9E
:10427000012A71D0A4E08F691FB3D3F810796FF3CE
:104280001207C3F81079D3F810792F40C3F81079CA
:104290008F69CD682F447F1EB7FBF5F506EAC5454B
:1042A000D3F810693543C3F81059D3F810598E6903
:1042B000C6F312063543C3F810590D79012D10D0FD
:1042C0001BE0D3F810692E40C3F81069D3F81059D9
:1042D00045F40025C3F81059D3F810596FF31205AF
:1042E00009E0D3F8105925F0C045C3F81059D3F8A8
:1042F000105945F00055C3F81059012A18D000EBA9
:104300004413D3F8004944F00444C3F800490C793D
:10431000012C2FD08A6962B3D0F83428097801F0D3
:104320000F03012199400A43C0F834285EE036E0CB
:104330004A691AB100EB4413C3F814290979012919
:104340000FD1D0F80818C90500EB4411D1F80029A5
:1043500003D442F0005202E02EE042F08052C1F855
:10436000002900EB4410D0F8001941F00441C0F8D6
:1043700000193BE0D0F80848E405D3F8004902D41E
:1043800044F0005401E044F08054C3F80049009226
:104390000A8B93B20A78096900F0D0F926E0D3F8C5
:1043A000104BCD68C5F312052C43C3F8104BD3F85E
:1043B000104B44F4002459E70A690AB1C3F8142BDE
:1043C000097901290CD1D0F80808C005D3F8000BF1
:1043D00002D440F0005001E040F08050C3F8000BE0
:1043E000D3F8000B40F00440C3F8000B0020F8BDE8
:1043F000FFFF07E038B50022009213464D780A7897
:1044000042F2107400EB4212012D19D0D2F8005B79
:10441000002D3CDAD2F8005B45F00065C2F8005B85
:104420000A7800EB4212D2F8005B45F08045C2F8F2
:10443000005B009A521C0092A24221D9012326E07F
:10444000D2F80059002D22DAD2F8005945F0006563
:10445000C2F800590A7800EB4212D2F8005945F030
:104460008045C2F80059009A521C0092A242E5D839
:104470000A7800EB4212D2F80029002AF3DB06E0AA
:104480000A7800EB4212D2F8002B002AD1DB184642
:1044900038BD816841F00101816000207047000053
:1044A00008B500220C490092009B5B1C00938B42D4
:1044B0000AD80369002BF7DA009210220261009AF1
:1044C000521C00928A4201D9032008BD0269D2061B
:1044D000F5D4002008BD0000400D030018B50023EE
:1044E0000D4A0093009C641C009494420CD804690B
:1044F000002CF7DA0093202343EA8111016100992F
:10450000491C0091914201D9032018BD0169890617
:10451000F5D4002018BD0000400D0300D0F80808B5
:1045200010F0060004D0022803D0062801D00F2086
:10453000704702207047406900F001007047D0F8D2
:104540001818D0F81C08084080B27047D0F8181826
:10455000D0F81C080840000C704710B5D0F810388F
:10456000D0F8342801F00F0400EB4110E24002F0D3
:104570000102D0F8080943EAC212104010BD00EB56
:104580004111D1F8081BD0F8140808407047416960
:1045900080690840704730B503460846940802F029
:1045A0000301002203F5805303E01D6840F8045B1B
:1045B000521CA242F9D300290BD01C680022D5005E
:1045C00024FA05F3491E521C090400F8013B090CAA
:1045D000F5D130BD70B50446C068002520F0C0405C
:1045E000E060012901D079B120E0E06840F000509E
:1045F000E0600120FCF73EFB60696D1C10F0010FCC
:1046000010D1322DF5D30DE0E06840F08040E0603D
:104610000120FCF72FFB60696D1C10F0010F01D029
:10462000322DF5D3322D01D0002070BD012070BD98
:10463000D0F8002822F4FE62C0F80028D0F8002844
:104640004FF4FE6303EA01110A43C0F8002800207A
:1046500070470000022A3ED1264A274B0A449A425C
:1046600001D20F2138E0254A254B0A449A4201D253
:104670000E2131E0234A244B0A449A4201D20D21F3
:104680002AE0224A224B0A449A4201D20C2123E01A
:10469000204A214B0A449A4201D20B211CE01F4AB6
:1046A0001F4B0A449A4201D20A2115E01D4A1E4BB3
:1046B0000A449A420FD31D4A1D4B0A449A4201D222
:1046C000082109E01B4A11441B4A914201D20721EB
:1046D00002E0062100E00921C26822F47052C260A3
:1046E000C2684FF4705303EA81210A43C26000207C
:1046F00070470000405327FF00350C00401E1BFF91
:1047000040420F0000DC0BFF804F1200808CF9FE4E
:1047100020D6130060B6E5FE60E3160000D3CEFE9F
:1047200040771B00C05BB3FEC091210000CA91FE20
:1047300020753800E05459FEE09C410010B5029C01
:1047400074B9DB1C9C0800EB0230002300F580509C
:1047500004E000BF51F8042B02605B1CA342F9D3B4
:10476000002010BDFEE7000031B50F4C00221021E3
:104770002046FCF786FB002208212046FCF781FB3F
:104780001023012269460948FDF7D4FC0028F7D11F
:10479000012208212046FCF774FB0122102120464B
:1047A000FCF76FFB38BD000000000240B8A40020F9
:1047B00031B50F4C002210212046FCF762FB01228C
:1047C00008212046FCF75DFB1023012269460948B9
:1047D000FDF7B0FC0028F7D1002208212046FCF7A5
:1047E00050FB012210212046FCF74BFB38BD000096
:1047F00000000240B8A4002070B50A4E0D460446E1
:10480000002210213046FCF73CFB012208213046F3
:10481000FCF737FBAAB22146BDE870400248FDF71D
:104820003DBD000000000240B8A400200FB4054BBD
:1048300010B503A9044A029800F028F810BC5DF8EE
:1048400014FB0000454A0108DC0100200907090E9D
:10485000002804DB00F1E02080F80014704700F02D
:104860000F0000F1E02080F8141D704702E008C836
:10487000121F08C1002AFAD170477047002001E0DA
:1048800001C1121F002AFBD1704700002DE9FF4F24
:104890008BB09A460F460546002606E025280BD029
:1048A00052460D9990476D1C761C28780028F5D14A
:1048B0000FB03046BDE8F08F0024A04601226049C9
:1048C00000E0044315F8013F203B02FA03F00842E0
:1048D000F7D128782E2817D115F8010F44F00404D9
:1048E0002A280ED06FF02F022878A0F13001092974
:1048F0000AD808EB880102EB410100EB01086D1CAE
:10490000F2E757F8048B6D1C287869283ED006DC46
:104910000028CDD063280BD0642804D136E073285A
:1049200010D075284BD052460D999047761C85E0E3
:1049300017F8040B8DF8000000208DF80100E946FF
:10494000012003E057F8049B4FF0FF3061074FF060
:10495000000401D40AE0641C44450DDA8442FADB09
:1049600019F804100029F6D106E0641C8442FCDB2F
:1049700019F804100029F8D1264404E019F8010BB5
:1049800052460D999047641EF8D257E001CF4FF080
:104990000A0B002802DA40422D2102E0210504D54D
:1049A0002B218DF82410012103E0E10705D02021FF
:1049B000F7E70DF1200908910CE00021F9E701CF9C
:1049C0004FF00A0BF9E75946FBF778FE01F1300288
:1049D00009F8012D0028F6D1ADEB090000F1200BFC
:1049E000600701D44FF00108D84502DDA8EB0B00A9
:1049F00000E000208046002406E009A85246005D41
:104A00000D999047641C761C08988442F5DB04E0FD
:104A1000302052460D999047761CB8F10001A8F15C
:104A20000108F5DC05E019F8010B52460D99904795
:104A3000761CBBF10001ABF1010BF4DC6D1C34E71B
:104A40000928010013B54FF0FF33012269460248DF
:104A5000FDF70EFD00981CBD70A50020FCF724FAA0
:104A6000FEF714F8FDF790FDFDF728FEFDF776FD43
:104A7000FDF702FE7222174917A0FFF7D7FE0022AA
:104A80001A491B48FEF78CFA1A491948FEF7EEFE40
:104A9000194A1A491648FEF785FD1548FEF760FFCA
:104AA0001648FBF7F1FE164C651508212046FCF769
:104AB000E3F9012804D1002229462046FCF7E1F958
:104AC00040220E490A48FEF735FE6420FCF7D2F872
:104AD000EBE70000704B010825735B25645D3A200D
:104AE00068656C6C6F20200D0A00000078010020C2
:104AF000E80100201C00002000000020B804002075
:104B000000040240F0B50B30154D20F007010024E1
:104B1000144A0FE003688B420BD38B4205D95E1A0F
:104B200043184768C3E9006700E04368136002C0A8
:104B300004E0021D10680028ECD12046002802D1B4
:104B4000286808B10020F0BD064A07481060074AEF
:104B5000121A22F00702C0E9002401202860D7E7DA
:104B6000E4010020E0010020F4AC0020F0AF0020C0
:104B70006D61696E00555342445F4E45585F4C4924
:104B80004E4B5F496E697400555342445F4E455821
:104B90005F4C494E4B5F53746172740055534244ED
:104BA0005F4E45585F4C494E4B5F534F460055533F
:104BB00042445F4E45585F4C494E4B5F4550305F15
:104BC0005278526561647900555342445F4E4558AE
:104BD0005F4C494E4B5F436F6E6669675F5265710C
:104BE0007565737400555342445F4E45585F4C4998
:104BF0004E4B5F56656E646F725F5265717565737B
:104C00007400555342445F4E45585F4C494E4B5FCC
:104C1000437573746F6D446576696365526571752C
:104C200065737400555342445F4E45585F4C494E7E
:104C30004B5F536574757000555342445F4E455841
:104C40005F4C494E4B5F44617461496E005553425D
:104C5000445F4E45585F4C494E4B5F5478526561F6
:104C6000647900555342445F4E45585F4C494E4B62
:104C70005F5472616E736D69740000061016000651
:104C800010160000000000000000010203040607E7
:104C9000080900000000010203041F1D1F1E1F1E43
:104CA0001F1F1E1F1E1F00004A616E756172790072
:104CB0004665627275617279004D61726368004188
:104CC0007072696C004D6179004A756E65004A75B5
:104CD0006C79004175677573740053657074656D08
:104CE000626572004F63746F626572004E6F766525
:104CF0006D62657200446563656D626572000000F7
:104D0000204D010800000020E80100004C070108C8
:104D1000444E0108E801002008B100007C48010869
:104D20008105102C01F401180ACD360108B93401AF
:104D3000086108411AD10C1A41041A85045A291431
:104D4000416D7935010804415A850814090232136E
:104D5000020125804B09041502FFFFFF260705818C
:104D600002402C070502071B0904732009FE0101FC
:104D7000E009210BFF1B081A0F1412034D125312E6
:104D800046125412311A30023220192B2113010419
:104D900082020008100157494E5553420A15011866
:104DA0003A921D1205120132883207122A12441259
:104DB00065127612691A63081249126E1A74081283
:104DC0007212663A611212471A5516124432733241
:104DD000501A7B1612311235126212341A3396129F
:104DE000381A2D0612341A640E1A2D1A1A31341A72
:104DF000360A1A62101A65441A2D0E1A30301A3704
:104E00001A12383A391E3A343C727D1E912D01082F
:104E1000C5041AD1041AED041E112E01086D081ADA
:104E20009D043F040309041201EF1E40501D6F60F2
:104E3000BD24020301031A1A03191F118210031162
:044E400024F4000056
:040000050801019558
:00000001FF
